{
  "contractName": "Madicine",
  "abi": [
    {
      "inputs": [
        {
          "internalType": "address",
          "name": "Manu",
          "type": "address"
        },
        {
          "internalType": "bytes32",
          "name": "Des",
          "type": "bytes32"
        },
        {
          "internalType": "bytes32",
          "name": "RM",
          "type": "bytes32"
        },
        {
          "internalType": "uint256",
          "name": "Quant",
          "type": "uint256"
        },
        {
          "internalType": "address",
          "name": "Shpr",
          "type": "address"
        },
        {
          "internalType": "address",
          "name": "Rcvr",
          "type": "address"
        },
        {
          "internalType": "uint256",
          "name": "RcvrType",
          "type": "uint256"
        }
      ],
      "payable": false,
      "stateMutability": "nonpayable",
      "type": "constructor"
    },
    {
      "anonymous": false,
      "inputs": [
        {
          "indexed": true,
          "internalType": "address",
          "name": "BatchID",
          "type": "address"
        },
        {
          "indexed": true,
          "internalType": "address",
          "name": "Shipper",
          "type": "address"
        },
        {
          "indexed": true,
          "internalType": "address",
          "name": "Receiver",
          "type": "address"
        },
        {
          "indexed": false,
          "internalType": "uint256",
          "name": "TransporterType",
          "type": "uint256"
        },
        {
          "indexed": false,
          "internalType": "uint256",
          "name": "Status",
          "type": "uint256"
        }
      ],
      "name": "ShippmentUpdate",
      "type": "event"
    },
    {
      "constant": true,
      "inputs": [],
      "name": "getMadicineInfo",
      "outputs": [
        {
          "internalType": "address",
          "name": "Manu",
          "type": "address"
        },
        {
          "internalType": "bytes32",
          "name": "Des",
          "type": "bytes32"
        },
        {
          "internalType": "bytes32",
          "name": "RM",
          "type": "bytes32"
        },
        {
          "internalType": "uint256",
          "name": "Quant",
          "type": "uint256"
        },
        {
          "internalType": "address",
          "name": "Shpr",
          "type": "address"
        }
      ],
      "payable": false,
      "stateMutability": "view",
      "type": "function"
    },
    {
      "constant": true,
      "inputs": [],
      "name": "getWDP",
      "outputs": [
        {
          "internalType": "address[3]",
          "name": "WDP",
          "type": "address[3]"
        }
      ],
      "payable": false,
      "stateMutability": "view",
      "type": "function"
    },
    {
      "constant": true,
      "inputs": [],
      "name": "getBatchIDStatus",
      "outputs": [
        {
          "internalType": "uint256",
          "name": "",
          "type": "uint256"
        }
      ],
      "payable": false,
      "stateMutability": "view",
      "type": "function"
    },
    {
      "constant": false,
      "inputs": [
        {
          "internalType": "address",
          "name": "shpr",
          "type": "address"
        }
      ],
      "name": "pickPackage",
      "outputs": [],
      "payable": false,
      "stateMutability": "nonpayable",
      "type": "function"
    },
    {
      "constant": false,
      "inputs": [
        {
          "internalType": "address",
          "name": "Rcvr",
          "type": "address"
        }
      ],
      "name": "receivedPackage",
      "outputs": [
        {
          "internalType": "uint256",
          "name": "rcvtype",
          "type": "uint256"
        }
      ],
      "payable": false,
      "stateMutability": "nonpayable",
      "type": "function"
    },
    {
      "constant": false,
      "inputs": [
        {
          "internalType": "address",
          "name": "receiver",
          "type": "address"
        },
        {
          "internalType": "address",
          "name": "sender",
          "type": "address"
        }
      ],
      "name": "sendWD",
      "outputs": [],
      "payable": false,
      "stateMutability": "nonpayable",
      "type": "function"
    },
    {
      "constant": false,
      "inputs": [
        {
          "internalType": "address",
          "name": "receiver",
          "type": "address"
        }
      ],
      "name": "recievedWD",
      "outputs": [],
      "payable": false,
      "stateMutability": "nonpayable",
      "type": "function"
    },
    {
      "constant": false,
      "inputs": [
        {
          "internalType": "address",
          "name": "receiver",
          "type": "address"
        },
        {
          "internalType": "address",
          "name": "sender",
          "type": "address"
        }
      ],
      "name": "sendDP",
      "outputs": [],
      "payable": false,
      "stateMutability": "nonpayable",
      "type": "function"
    },
    {
      "constant": false,
      "inputs": [
        {
          "internalType": "address",
          "name": "receiver",
          "type": "address"
        }
      ],
      "name": "recievedDP",
      "outputs": [],
      "payable": false,
      "stateMutability": "nonpayable",
      "type": "function"
    }
  ],
  "bytecode": "0x608060405234801561001057600080fd5b50604051610e07380380610e07833981810160405260e081101561003357600080fd5b508051602082015160408301516060840151608085015160a086015160c09096015160008054600160a060020a0319908116600160a060020a03808a1691821790935560058054831690911790556001878155600287905560038690556004805490921692851692909217905595969495939492939192918114156100d25760068054600160a060020a031916600160a060020a0384161790556100f7565b80600214156100f75760078054600160a060020a031916600160a060020a0384161790555b50505050505050610cfa8061010d6000396000f3fe608060405234801561001057600080fd5b50600436106100c0576000357c010000000000000000000000000000000000000000000000000000000090048063638e9a3d11610093578063a19ffd6011610078578063a19ffd6014610236578063bd78683514610271578063d2f3fcc7146102ac576100c0565b8063638e9a3d146101d0578063952565cf14610203576100c0565b806301a9a23e146100c55780631d2aafc8146101055780634175699d1461015657806352b999681461018b575b600080fd5b6100cd6102b4565b6040518082606080838360005b838110156100f25781810151838201526020016100da565b5050505090500191505060405180910390f35b61010d6102fc565b6040805173ffffffffffffffffffffffffffffffffffffffff96871681526020810195909552848101939093526060840191909152909216608082015290519081900360a00190f35b6101896004803603602081101561016c57600080fd5b503573ffffffffffffffffffffffffffffffffffffffff1661032c565b005b6101be600480360360208110156101a157600080fd5b503573ffffffffffffffffffffffffffffffffffffffff166103fe565b60408051918252519081900360200190f35b610189600480360360208110156101e657600080fd5b503573ffffffffffffffffffffffffffffffffffffffff1661071c565b6101896004803603602081101561021957600080fd5b503573ffffffffffffffffffffffffffffffffffffffff16610971565b6101896004803603604081101561024c57600080fd5b5073ffffffffffffffffffffffffffffffffffffffff813581169160200135166109eb565b6101896004803603604081101561028757600080fd5b5073ffffffffffffffffffffffffffffffffffffffff81358116916020013516610ae8565b6101be610ba2565b6102bc610bd3565b506040805160608101825260065473ffffffffffffffffffffffffffffffffffffffff908116825260075481166020830152600854169181019190915290565b60055460015460025460035460045473ffffffffffffffffffffffffffffffffffffffff94851694169091929394565b60085473ffffffffffffffffffffffffffffffffffffffff8281169116146103b557604080517f08c379a000000000000000000000000000000000000000000000000000000000815260206004820152601e60248201527f5468697320506861726d61206973206e6f74204173736f6369617465642e0000604482015290519081900360640190fd5b60065b6008805474ff00000000000000000000000000000000000000001916740100000000000000000000000000000000000000008360068111156103f657fe5b021790555050565b60065460009073ffffffffffffffffffffffffffffffffffffffff83811691161480610444575060075473ffffffffffffffffffffffffffffffffffffffff8381169116145b610499576040517f08c379a000000000000000000000000000000000000000000000000000000000815260040180806020018281038252603f815260200180610c42603f913960400191505060405180910390fd5b60085460019074010000000000000000000000000000000000000000900460ff1660068111156104c557fe5b101561053257604080517f08c379a000000000000000000000000000000000000000000000000000000000815260206004820152601960248201527f50726f64756374206e6f74207069636b65642075702079657400000000000000604482015290519081900360640190fd5b60065473ffffffffffffffffffffffffffffffffffffffff83811691161480156105845750600160085474010000000000000000000000000000000000000000900460ff16600681111561058257fe5b145b15610624576008805474ff0000000000000000000000000000000000000000191674030000000000000000000000000000000000000000179055600654600454604080516002815260036020820152815173ffffffffffffffffffffffffffffffffffffffff948516949093169230927f7e89c4b1a4e2b51aae84eb1f90e8a34cb792ece5ac5cb63db4830c891220b28d928290030190a4506001610717565b60075473ffffffffffffffffffffffffffffffffffffffff83811691161480156106765750600260085474010000000000000000000000000000000000000000900460ff16600681111561067457fe5b145b15610717576008805474ff00000000000000000000000000000000000000001916740400000000000000000000000000000000000000001790556007546004805460408051600381526020810193909352805173ffffffffffffffffffffffffffffffffffffffff948516949092169230927f7e89c4b1a4e2b51aae84eb1f90e8a34cb792ece5ac5cb63db4830c891220b28d929181900390910190a45060025b919050565b60045473ffffffffffffffffffffffffffffffffffffffff82811691161461078f576040517f08c379a000000000000000000000000000000000000000000000000000000000815260040180806020018281038252602d815260200180610c15602d913960400191505060405180910390fd5b600060085474010000000000000000000000000000000000000000900460ff1660068111156107ba57fe5b1461082657604080517f08c379a000000000000000000000000000000000000000000000000000000000815260206004820152601c60248201527f5061636b616765206d75737420626520617420537570706c6965722e00000000604482015290519081900360640190fd5b60065473ffffffffffffffffffffffffffffffffffffffff16156108db576008805474ff00000000000000000000000000000000000000001916740100000000000000000000000000000000000000001790556006546004546040805160018082526020820152815173ffffffffffffffffffffffffffffffffffffffff948516949093169230927f7e89c4b1a4e2b51aae84eb1f90e8a34cb792ece5ac5cb63db4830c891220b28d928290030190a461096e565b6008805474ff00000000000000000000000000000000000000001916740200000000000000000000000000000000000000001790556007546004546040805160018082526020820152815173ffffffffffffffffffffffffffffffffffffffff948516949093169230927f7e89c4b1a4e2b51aae84eb1f90e8a34cb792ece5ac5cb63db4830c891220b28d928290030190a45b50565b60075473ffffffffffffffffffffffffffffffffffffffff8281169116146109e4576040517f08c379a0000000000000000000000000000000000000000000000000000000008152600401808060200182810382526023815260200180610bf26023913960400191505060405180910390fd5b60046103b8565b60075473ffffffffffffffffffffffffffffffffffffffff828116911614610a5e576040517f08c379a0000000000000000000000000000000000000000000000000000000008152600401808060200182810382526023815260200180610ca36023913960400191505060405180910390fd5b600880547fffffffffffffffffffffffff00000000000000000000000000000000000000001673ffffffffffffffffffffffffffffffffffffffff841617905560055b6008805474ff0000000000000000000000000000000000000000191674010000000000000000000000000000000000000000836006811115610adf57fe5b02179055505050565b60065473ffffffffffffffffffffffffffffffffffffffff828116911614610b5b576040517f08c379a0000000000000000000000000000000000000000000000000000000008152600401808060200182810382526022815260200180610c816022913960400191505060405180910390fd5b600780547fffffffffffffffffffffffff00000000000000000000000000000000000000001673ffffffffffffffffffffffffffffffffffffffff84161790556002610aa1565b60085460009074010000000000000000000000000000000000000000900460ff166006811115610bce57fe5b905090565b6040518060600160405280600390602082028038833950919291505056fe54686973204469737472696275746572206973206e6f74204173736f6369617465642e4f6e6c79204173736f636961746520536869707065722063616e2063616c6c20746869732066756e6374696f6e4f6e6c79204173736f63696174652057686f6c6573616c6572206f722044697374727562757465722063616e2063616c6c20746869732066756e6374696f6e746869732057686f6c6573616c6572206973206e6f74204173736f6369617465642e74686973204469737472696275746572206973206e6f74204173736f6369617465642ea265627a7a723158204a3a96a1a74da3dad3322f5f6418d4840b45a99e5079ee786b6a987178d6820364736f6c634300050c0032",
  "source": "pragma solidity >=0.4.25 <0.6.0;\r\n\r\n/********************************************** Madicine ******************************************/\r\n\r\ncontract Madicine {\r\n\r\n    /// @notice\r\n    address Owner;\r\n\r\n    enum madicineStatus {\r\n        atcreator,\r\n        picked4W,\r\n        picked4D,\r\n        deliveredatW,\r\n        deliveredatD,\r\n        picked4P,\r\n        deliveredatP\r\n    }\r\n\r\n    // address batchid;\r\n    bytes32 description;\r\n    /// @notice\r\n    bytes32 rawmatriales;\r\n    /// @notice\r\n    uint quantity;\r\n    /// @notice\r\n    address shipper;\r\n    /// @notice\r\n    address manufacturer;\r\n    /// @notice\r\n    address wholesaler;\r\n    /// @notice\r\n    address distributer;\r\n    /// @notice\r\n    address pharma;\r\n    /// @notice\r\n    madicineStatus status;\r\n\r\n    event ShippmentUpdate(\r\n        address indexed BatchID,\r\n        address indexed Shipper,\r\n        address indexed Receiver,\r\n        uint TransporterType,\r\n        uint Status\r\n    );\r\n\r\n    constructor(\r\n        address Manu,\r\n        bytes32 Des,\r\n        bytes32 RM,\r\n        uint Quant,\r\n        address Shpr,\r\n        address Rcvr,\r\n        uint RcvrType\r\n    ) public {\r\n        Owner = Manu;\r\n        manufacturer = Manu;\r\n        description = Des;\r\n        rawmatriales = RM;\r\n        quantity = Quant;\r\n        shipper = Shpr;\r\n        if(RcvrType == 1) {\r\n            wholesaler = Rcvr;\r\n        } else if( RcvrType == 2){\r\n            distributer = Rcvr;\r\n        }\r\n    }\r\n\r\n    function getMadicineInfo () public view returns(\r\n        address Manu,\r\n        bytes32 Des,\r\n        bytes32 RM,\r\n        uint Quant,\r\n        address Shpr\r\n    ) {\r\n        return(\r\n            manufacturer,\r\n            description,\r\n            rawmatriales,\r\n            quantity,\r\n            shipper\r\n        );\r\n    }\r\n\r\n\r\n    function getWDP() public view returns(\r\n        address[3] memory WDP\r\n    ) {\r\n        return (\r\n            [wholesaler,distributer,pharma]\r\n        );\r\n    }\r\n\r\n\r\n    function getBatchIDStatus() public view returns(\r\n        uint\r\n    ) {\r\n        return uint(status);\r\n    }\r\n\r\n\r\n    function pickPackage(\r\n        address shpr\r\n    ) public {\r\n        require(\r\n            shpr == shipper,\r\n            \"Only Associate Shipper can call this function\"\r\n        );\r\n        require(\r\n            status == madicineStatus(0),\r\n            \"Package must be at Supplier.\"\r\n        );\r\n\r\n        if(wholesaler!=address(0x0)){\r\n            status = madicineStatus(1);\r\n            emit ShippmentUpdate(address(this),shipper,wholesaler,1,1);\r\n        }else{\r\n            status = madicineStatus(2);\r\n            emit ShippmentUpdate(address(this),shipper,distributer,1,1);\r\n        }\r\n    }\r\n\r\n\r\n    function receivedPackage(\r\n        address Rcvr\r\n    ) public\r\n    returns(uint rcvtype)\r\n    {\r\n\r\n        require(\r\n            Rcvr == wholesaler || Rcvr == distributer,\r\n            \"Only Associate Wholesaler or Distrubuter can call this function\"\r\n        );\r\n\r\n        require(\r\n            uint(status) >= 1,\r\n            \"Product not picked up yet\"\r\n        );\r\n\r\n        if(Rcvr == wholesaler && status == madicineStatus(1)){\r\n            status = madicineStatus(3);\r\n            emit ShippmentUpdate(address(this),shipper,wholesaler,2,3);\r\n            return 1;\r\n        } else if(Rcvr == distributer && status == madicineStatus(2)){\r\n            status = madicineStatus(4);\r\n            emit ShippmentUpdate(address(this),shipper,distributer,3,4);\r\n            return 2;\r\n        }\r\n    }\r\n\r\n\r\n    function sendWD(\r\n        address receiver,\r\n        address sender\r\n    ) public {\r\n        require(\r\n            wholesaler == sender,\r\n            \"this Wholesaler is not Associated.\"\r\n        );\r\n        distributer = receiver;\r\n        status = madicineStatus(2);\r\n    }\r\n\r\n\r\n    function recievedWD(\r\n        address receiver\r\n    ) public {\r\n        require(\r\n            distributer == receiver,\r\n            \"This Distributer is not Associated.\"\r\n        );\r\n        status = madicineStatus(4);\r\n    }\r\n\r\n    function sendDP(\r\n        address receiver,\r\n        address sender\r\n    ) public {\r\n        require(\r\n            distributer == sender,\r\n            \"this Distributer is not Associated.\"\r\n        );\r\n        pharma = receiver;\r\n        status = madicineStatus(5);\r\n    }\r\n\r\n    function recievedDP(\r\n        address receiver\r\n    ) public {\r\n        require(\r\n            pharma == receiver,\r\n            \"This Pharma is not Associated.\"\r\n        );\r\n        status = madicineStatus(6);\r\n    }\r\n}\r\n",
  "sourcePath": "D:\\blockchain\\hack\\contracts\\Madicine.sol",
  "compiler": {
    "name": "solc",
    "version": "0.5.12+commit.7709ece9.Emscripten.clang"
  },
  "schemaVersion": "3.0.0",
  "updatedAt": "2020-05-04T17:55:05.405Z",
  "devdoc": {
    "methods": {}
  },
  "userdoc": {
    "methods": {},
    "notice": "******************************************** Madicine *****************************************"
  }
}