{
  "contractName": "RawMaterials",
  "abi": [
    {
      "inputs": [
        {
          "internalType": "address",
          "name": "Splr",
          "type": "address"
        },
        {
          "internalType": "string",
          "name": "Des",
          "type": "string"
        },
        {
          "internalType": "string",
          "name": "FN",
          "type": "string"
        },
        {
          "internalType": "string",
          "name": "Loc",
          "type": "string"
        },
        {
          "internalType": "uint256",
          "name": "Quant",
          "type": "uint256"
        },
        {
          "internalType": "address",
          "name": "Shpr",
          "type": "address"
        },
        {
          "internalType": "address",
          "name": "Rcvr",
          "type": "address"
        }
      ],
      "payable": false,
      "stateMutability": "nonpayable",
      "type": "constructor"
    },
    {
      "anonymous": false,
      "inputs": [
        {
          "indexed": true,
          "internalType": "address",
          "name": "BatchID",
          "type": "address"
        },
        {
          "indexed": true,
          "internalType": "address",
          "name": "Shipper",
          "type": "address"
        },
        {
          "indexed": true,
          "internalType": "address",
          "name": "Manufacturer",
          "type": "address"
        },
        {
          "indexed": false,
          "internalType": "uint256",
          "name": "TransporterType",
          "type": "uint256"
        },
        {
          "indexed": false,
          "internalType": "uint256",
          "name": "Status",
          "type": "uint256"
        }
      ],
      "name": "ShippmentUpdate",
      "type": "event"
    },
    {
      "constant": true,
      "inputs": [],
      "name": "getSuppliedRawMatrials",
      "outputs": [
        {
          "internalType": "string",
          "name": "Des",
          "type": "string"
        },
        {
          "internalType": "string",
          "name": "FN",
          "type": "string"
        },
        {
          "internalType": "string",
          "name": "Loc",
          "type": "string"
        },
        {
          "internalType": "uint256",
          "name": "Quant",
          "type": "uint256"
        },
        {
          "internalType": "address",
          "name": "Shpr",
          "type": "address"
        },
        {
          "internalType": "address",
          "name": "Rcvr",
          "type": "address"
        },
        {
          "internalType": "address",
          "name": "Splr",
          "type": "address"
        }
      ],
      "payable": false,
      "stateMutability": "view",
      "type": "function"
    },
    {
      "constant": true,
      "inputs": [],
      "name": "getRawMatrialsStatus",
      "outputs": [
        {
          "internalType": "uint256",
          "name": "",
          "type": "uint256"
        }
      ],
      "payable": false,
      "stateMutability": "view",
      "type": "function"
    },
    {
      "constant": false,
      "inputs": [
        {
          "internalType": "address",
          "name": "shpr",
          "type": "address"
        }
      ],
      "name": "pickPackage",
      "outputs": [],
      "payable": false,
      "stateMutability": "nonpayable",
      "type": "function"
    },
    {
      "constant": false,
      "inputs": [
        {
          "internalType": "address",
          "name": "manu",
          "type": "address"
        }
      ],
      "name": "receivedPackage",
      "outputs": [],
      "payable": false,
      "stateMutability": "nonpayable",
      "type": "function"
    }
  ],
  "bytecode": "0x60806040523480156200001157600080fd5b5060405162000c7338038062000c73833981810160405260e08110156200003757600080fd5b8151602083018051604051929492938301929190846401000000008211156200005f57600080fd5b9083019060208201858111156200007557600080fd5b82516401000000008111828201881017156200009057600080fd5b82525081516020918201929091019080838360005b83811015620000bf578181015183820152602001620000a5565b50505050905090810190601f168015620000ed5780820380516001836020036101000a031916815260200191505b50604052602001805160405193929190846401000000008211156200011157600080fd5b9083019060208201858111156200012757600080fd5b82516401000000008111828201881017156200014257600080fd5b82525081516020918201929091019080838360005b838110156200017157818101518382015260200162000157565b50505050905090810190601f1680156200019f5780820380516001836020036101000a031916815260200191505b5060405260200180516040519392919084640100000000821115620001c357600080fd5b908301906020820185811115620001d957600080fd5b8251640100000000811182820188101715620001f457600080fd5b82525081516020918201929091019080838360005b838110156200022357818101518382015260200162000209565b50505050905090810190601f168015620002515780820380516001836020036101000a031916815260200191505b5060409081526020828101519183015160609093015160008054600160a060020a038c16600160a060020a03199182161790915560018054909116301790558851929550929350620002a99160029189019062000330565b508451620002bf90600390602088019062000330565b508351620002d590600490602087019062000330565b5060059290925560068054600160a060020a0319908116600160a060020a0393841617909155600780548216938316939093179092556008805460a060020a60ff0219931696909116959095171690935550620003d5915050565b828054600181600116156101000203166002900490600052602060002090601f016020900481019282601f106200037357805160ff1916838001178555620003a3565b82800160010185558215620003a3579182015b82811115620003a357825182559160200191906001019062000386565b50620003b1929150620003b5565b5090565b620003d291905b80821115620003b15760008155600101620003bc565b90565b61088e80620003e56000396000f3fe608060405234801561001057600080fd5b5060043610610068577c010000000000000000000000000000000000000000000000000000000060003504633b205a7d811461006d57806352b9996814610087578063638e9a3d146100bc578063d02eee23146100ef575b600080fd5b610075610272565b60408051918252519081900360200190f35b6100ba6004803603602081101561009d57600080fd5b503573ffffffffffffffffffffffffffffffffffffffff166102a3565b005b6100ba600480360360208110156100d257600080fd5b503573ffffffffffffffffffffffffffffffffffffffff1661044d565b6100f76105f6565b604080516060810186905273ffffffffffffffffffffffffffffffffffffffff808616608083015284811660a0830152831660c082015260e08082528951908201528851909182916020808401928401916101008501918d019080838360005b8381101561016f578181015183820152602001610157565b50505050905090810190601f16801561019c5780820380516001836020036101000a031916815260200191505b5084810383528a5181528a516020918201918c019080838360005b838110156101cf5781810151838201526020016101b7565b50505050905090810190601f1680156101fc5780820380516001836020036101000a031916815260200191505b5084810382528951815289516020918201918b019080838360005b8381101561022f578181015183820152602001610217565b50505050905090810190601f16801561025c5780820380516001836020036101000a031916815260200191505b509a505050505050505050505060405180910390f35b60085460009074010000000000000000000000000000000000000000900460ff16600281111561029e57fe5b905090565b60075473ffffffffffffffffffffffffffffffffffffffff828116911614610316576040517f08c379a00000000000000000000000000000000000000000000000000000000081526004018080602001828103825260328152602001806108286032913960400191505060405180910390fd5b600160085474010000000000000000000000000000000000000000900460ff16600281111561034157fe5b146103ad57604080517f08c379a000000000000000000000000000000000000000000000000000000000815260206004820152601960248201527f50726f64756374206e6f74207069636b65642075702079657400000000000000604482015290519081900360640190fd5b600880547fffffffffffffffffffffff00ffffffffffffffffffffffffffffffffffffffff1674020000000000000000000000000000000000000000179055600754600654604080516001815260026020820152815173ffffffffffffffffffffffffffffffffffffffff948516949093169230927f7e89c4b1a4e2b51aae84eb1f90e8a34cb792ece5ac5cb63db4830c891220b28d928290030190a450565b60065473ffffffffffffffffffffffffffffffffffffffff8281169116146104c0576040517f08c379a000000000000000000000000000000000000000000000000000000000815260040180806020018281038252602d8152602001806107fb602d913960400191505060405180910390fd5b600060085474010000000000000000000000000000000000000000900460ff1660028111156104eb57fe5b1461055757604080517f08c379a000000000000000000000000000000000000000000000000000000000815260206004820152601c60248201527f5061636b616765206d75737420626520617420537570706c6965722e00000000604482015290519081900360640190fd5b600880547fffffffffffffffffffffff00ffffffffffffffffffffffffffffffffffffffff16740100000000000000000000000000000000000000001790556007546006546040805160018082526020820152815173ffffffffffffffffffffffffffffffffffffffff948516949093169230927f7e89c4b1a4e2b51aae84eb1f90e8a34cb792ece5ac5cb63db4830c891220b28d928290030190a450565b60055460065460075460085460028054604080516020601f60001960018616156101000201909416859004938401819004810282018101909252828152606097889788976000978897889788979196600396600496909573ffffffffffffffffffffffffffffffffffffffff918216959082169491169289918301828280156106c05780601f10610695576101008083540402835291602001916106c0565b820191906000526020600020905b8154815290600101906020018083116106a357829003601f168201915b5050895460408051602060026001851615610100026000190190941693909304601f8101849004840282018401909252818152959c508b94509250840190508282801561074e5780601f106107235761010080835404028352916020019161074e565b820191906000526020600020905b81548152906001019060200180831161073157829003601f168201915b5050885460408051602060026001851615610100026000190190941693909304601f8101849004840282018401909252818152959b508a9450925084019050828280156107dc5780601f106107b1576101008083540402835291602001916107dc565b820191906000526020600020905b8154815290600101906020018083116107bf57829003601f168201915b5050505050945096509650965096509650965096509091929394959656fe4f6e6c79204173736f636961746520536869707065722063616e2063616c6c20746869732066756e6374696f6e4f6e6c79204173736f6369617465204d616e7566616374757265722063616e2063616c6c20746869732066756e6374696f6ea265627a7a72315820d35c1bf2e64b592efd85a1bae5de8b721d1022bef7f6ae047307c4a0470d565364736f6c634300050c0032",
  "source": "pragma solidity >=0.4.25 <0.6.0;\r\n\r\n/********************************************** RawMatrials ******************************************/\r\n\r\ncontract RawMaterials {\r\n    /// @notice\r\n    address Owner;\r\n\r\n    enum packageStatus { atcreator, picked, delivered}\r\n    event ShippmentUpdate(\r\n        address indexed BatchID,\r\n        address indexed Shipper,\r\n        address indexed Manufacturer,\r\n        uint TransporterType,\r\n        uint Status\r\n    );\r\n    /// @notice\r\n    address productid;\r\n    /// @notice\r\n    string description;\r\n    /// @notice\r\n    string packageId;\r\n    /// @notice\r\n    string location;\r\n    /// @notice\r\n    uint quantity;\r\n    /// @notice\r\n    address shipper;\r\n    /// @notice\r\n    address manufacturer;\r\n    /// @notice\r\n    address supplier;\r\n    /// @notice\r\n    packageStatus status;\r\n    /// @notice\r\n    bytes32 packageReceiverDescription;\r\n\r\n    constructor (\r\n        address Splr,\r\n        string memory Des,\r\n        string memory FN,\r\n        string memory Loc,\r\n        uint Quant,\r\n        address Shpr,\r\n        address Rcvr\r\n    ) public {\r\n        Owner = Splr;\r\n        productid = address(this);\r\n        description = Des;\r\n        packageId = FN;\r\n        location = Loc;\r\n        quantity = Quant;\r\n        shipper = Shpr;\r\n        manufacturer = Rcvr;\r\n        supplier = Splr;\r\n        status = packageStatus(0);\r\n    }\r\n\r\n    function getSuppliedRawMatrials () public view returns(\r\n        string memory Des,\r\n        string memory FN,\r\n        string memory Loc,\r\n        uint Quant,\r\n        address Shpr,\r\n        address Rcvr,\r\n        address Splr\r\n    ) {\r\n        return(\r\n            description,\r\n            packageId,\r\n            location,\r\n            quantity,\r\n            shipper,\r\n            manufacturer,\r\n            supplier\r\n        );\r\n    }\r\n\r\n  \r\n    function getRawMatrialsStatus() public view returns(\r\n        uint\r\n    ) {\r\n        return uint(status);\r\n    }\r\n\r\n\r\n    function pickPackage(\r\n        address shpr\r\n    ) public {\r\n        require(\r\n            shpr == shipper,\r\n            \"Only Associate Shipper can call this function\"\r\n        );\r\n        require(\r\n            status == packageStatus(0),\r\n            \"Package must be at Supplier.\"\r\n        );\r\n        status = packageStatus(1);\r\n        emit ShippmentUpdate(address(this),shipper,manufacturer,1,1);\r\n    }\r\n\r\n    function receivedPackage(\r\n        address manu\r\n    ) public {\r\n\r\n        require(\r\n            manu == manufacturer,\r\n            \"Only Associate Manufacturer can call this function\"\r\n        );\r\n\r\n        require(\r\n            status == packageStatus(1),\r\n            \"Product not picked up yet\"\r\n        );\r\n        status = packageStatus(2);\r\n        emit ShippmentUpdate(address(this),shipper,manufacturer,1,2);\r\n    }\r\n}\r\n",
  "sourcePath": "D:\\blockchain\\hack\\contracts\\RawMatrials.sol",
  "compiler": {
    "name": "solc",
    "version": "0.5.12+commit.7709ece9.Emscripten.clang"
  },
  "schemaVersion": "3.0.0",
  "updatedAt": "2020-05-08T09:35:20.046Z",
  "devdoc": {
    "methods": {}
  },
  "userdoc": {
    "methods": {},
    "notice": "******************************************** RawMatrials *****************************************"
  }
}