{
  "contractName": "RawMatrials",
  "abi": [
    {
      "inputs": [
        {
          "internalType": "address",
          "name": "Splr",
          "type": "address"
        },
        {
          "internalType": "bytes32",
          "name": "Des",
          "type": "bytes32"
        },
        {
          "internalType": "bytes32",
          "name": "FN",
          "type": "bytes32"
        },
        {
          "internalType": "bytes32",
          "name": "Loc",
          "type": "bytes32"
        },
        {
          "internalType": "uint256",
          "name": "Quant",
          "type": "uint256"
        },
        {
          "internalType": "address",
          "name": "Shpr",
          "type": "address"
        },
        {
          "internalType": "address",
          "name": "Rcvr",
          "type": "address"
        }
      ],
      "payable": false,
      "stateMutability": "nonpayable",
      "type": "constructor"
    },
    {
      "anonymous": false,
      "inputs": [
        {
          "indexed": true,
          "internalType": "address",
          "name": "BatchID",
          "type": "address"
        },
        {
          "indexed": true,
          "internalType": "address",
          "name": "Shipper",
          "type": "address"
        },
        {
          "indexed": true,
          "internalType": "address",
          "name": "Manufacturer",
          "type": "address"
        },
        {
          "indexed": false,
          "internalType": "uint256",
          "name": "TransporterType",
          "type": "uint256"
        },
        {
          "indexed": false,
          "internalType": "uint256",
          "name": "Status",
          "type": "uint256"
        }
      ],
      "name": "ShippmentUpdate",
      "type": "event"
    },
    {
      "constant": true,
      "inputs": [],
      "name": "getSuppliedRawMatrials",
      "outputs": [
        {
          "internalType": "bytes32",
          "name": "Des",
          "type": "bytes32"
        },
        {
          "internalType": "bytes32",
          "name": "FN",
          "type": "bytes32"
        },
        {
          "internalType": "bytes32",
          "name": "Loc",
          "type": "bytes32"
        },
        {
          "internalType": "uint256",
          "name": "Quant",
          "type": "uint256"
        },
        {
          "internalType": "address",
          "name": "Shpr",
          "type": "address"
        },
        {
          "internalType": "address",
          "name": "Rcvr",
          "type": "address"
        },
        {
          "internalType": "address",
          "name": "Splr",
          "type": "address"
        }
      ],
      "payable": false,
      "stateMutability": "view",
      "type": "function"
    },
    {
      "constant": true,
      "inputs": [],
      "name": "getRawMatrialsStatus",
      "outputs": [
        {
          "internalType": "uint256",
          "name": "",
          "type": "uint256"
        }
      ],
      "payable": false,
      "stateMutability": "view",
      "type": "function"
    },
    {
      "constant": false,
      "inputs": [
        {
          "internalType": "address",
          "name": "shpr",
          "type": "address"
        }
      ],
      "name": "pickPackage",
      "outputs": [],
      "payable": false,
      "stateMutability": "nonpayable",
      "type": "function"
    },
    {
      "constant": false,
      "inputs": [
        {
          "internalType": "address",
          "name": "manu",
          "type": "address"
        }
      ],
      "name": "receivedPackage",
      "outputs": [],
      "payable": false,
      "stateMutability": "nonpayable",
      "type": "function"
    }
  ],
  "bytecode": "0x608060405234801561001057600080fd5b5060405161067d38038061067d833981810160405260e081101561003357600080fd5b508051602082015160408301516060840151608085015160a086015160c09096015160008054600160a060020a0319908116600160a060020a0398891690811783556001805430908416179055600297909755600395909555600493909355600591909155600680548416968616969096179095556007805483169490951693909317909355600880549093161760a060020a60ff02191690915561059f9081906100de90396000f3fe608060405234801561001057600080fd5b5060043610610068577c010000000000000000000000000000000000000000000000000000000060003504633b205a7d811461006d57806352b9996814610087578063638e9a3d146100bc578063d02eee23146100ef575b600080fd5b61007561014b565b60408051918252519081900360200190f35b6100ba6004803603602081101561009d57600080fd5b503573ffffffffffffffffffffffffffffffffffffffff1661017c565b005b6100ba600480360360208110156100d257600080fd5b503573ffffffffffffffffffffffffffffffffffffffff16610326565b6100f76104cf565b60408051978852602088019690965286860194909452606086019290925273ffffffffffffffffffffffffffffffffffffffff908116608086015290811660a08501521660c0830152519081900360e00190f35b60085460009074010000000000000000000000000000000000000000900460ff16600281111561017757fe5b905090565b60075473ffffffffffffffffffffffffffffffffffffffff8281169116146101ef576040517f08c379a00000000000000000000000000000000000000000000000000000000081526004018080602001828103825260328152602001806105396032913960400191505060405180910390fd5b600160085474010000000000000000000000000000000000000000900460ff16600281111561021a57fe5b1461028657604080517f08c379a000000000000000000000000000000000000000000000000000000000815260206004820152601960248201527f50726f64756374206e6f74207069636b65642075702079657400000000000000604482015290519081900360640190fd5b600880547fffffffffffffffffffffff00ffffffffffffffffffffffffffffffffffffffff1674020000000000000000000000000000000000000000179055600754600654604080516001815260026020820152815173ffffffffffffffffffffffffffffffffffffffff948516949093169230927f7e89c4b1a4e2b51aae84eb1f90e8a34cb792ece5ac5cb63db4830c891220b28d928290030190a450565b60065473ffffffffffffffffffffffffffffffffffffffff828116911614610399576040517f08c379a000000000000000000000000000000000000000000000000000000000815260040180806020018281038252602d81526020018061050c602d913960400191505060405180910390fd5b600060085474010000000000000000000000000000000000000000900460ff1660028111156103c457fe5b1461043057604080517f08c379a000000000000000000000000000000000000000000000000000000000815260206004820152601c60248201527f5061636b616765206d75737420626520617420537570706c6965722e00000000604482015290519081900360640190fd5b600880547fffffffffffffffffffffff00ffffffffffffffffffffffffffffffffffffffff16740100000000000000000000000000000000000000001790556007546006546040805160018082526020820152815173ffffffffffffffffffffffffffffffffffffffff948516949093169230927f7e89c4b1a4e2b51aae84eb1f90e8a34cb792ece5ac5cb63db4830c891220b28d928290030190a450565b60025460035460045460055460065460075460085473ffffffffffffffffffffffffffffffffffffffff9283169291821691169091929394959656fe4f6e6c79204173736f636961746520536869707065722063616e2063616c6c20746869732066756e6374696f6e4f6e6c79204173736f6369617465204d616e7566616374757265722063616e2063616c6c20746869732066756e6374696f6ea265627a7a723158207e22a79dbc839d7ee2596168713156205f773da3f7af60a8335ea6203ab4f34e64736f6c634300050c0032",
  "source": "pragma solidity >=0.4.25 <0.6.0;\r\n\r\n/********************************************** RawMatrials ******************************************/\r\n\r\ncontract RawMatrials {\r\n    /// @notice\r\n    address Owner;\r\n\r\n    enum packageStatus { atcreator, picked, delivered}\r\n    event ShippmentUpdate(\r\n        address indexed BatchID,\r\n        address indexed Shipper,\r\n        address indexed Manufacturer,\r\n        uint TransporterType,\r\n        uint Status\r\n    );\r\n    /// @notice\r\n    address productid;\r\n    /// @notice\r\n    bytes32 description;\r\n    /// @notice\r\n    bytes32 farmer_name;\r\n    /// @notice\r\n    bytes32 location;\r\n    /// @notice\r\n    uint quantity;\r\n    /// @notice\r\n    address shipper;\r\n    /// @notice\r\n    address manufacturer;\r\n    /// @notice\r\n    address supplier;\r\n    /// @notice\r\n    packageStatus status;\r\n    /// @notice\r\n    bytes32 packageReceiverDescription;\r\n\r\n    constructor (\r\n        address Splr,\r\n        bytes32 Des,\r\n        bytes32 FN,\r\n        bytes32 Loc,\r\n        uint Quant,\r\n        address Shpr,\r\n        address Rcvr\r\n    ) public {\r\n        Owner = Splr;\r\n        productid = address(this);\r\n        description = Des;\r\n        farmer_name = FN;\r\n        location = Loc;\r\n        quantity = Quant;\r\n        shipper = Shpr;\r\n        manufacturer = Rcvr;\r\n        supplier = Splr;\r\n        status = packageStatus(0);\r\n    }\r\n\r\n    function getSuppliedRawMatrials () public view returns(\r\n        bytes32 Des,\r\n        bytes32 FN,\r\n        bytes32 Loc,\r\n        uint Quant,\r\n        address Shpr,\r\n        address Rcvr,\r\n        address Splr\r\n    ) {\r\n        return(\r\n            description,\r\n            farmer_name,\r\n            location,\r\n            quantity,\r\n            shipper,\r\n            manufacturer,\r\n            supplier\r\n        );\r\n    }\r\n\r\n  \r\n    function getRawMatrialsStatus() public view returns(\r\n        uint\r\n    ) {\r\n        return uint(status);\r\n    }\r\n\r\n\r\n    function pickPackage(\r\n        address shpr\r\n    ) public {\r\n        require(\r\n            shpr == shipper,\r\n            \"Only Associate Shipper can call this function\"\r\n        );\r\n        require(\r\n            status == packageStatus(0),\r\n            \"Package must be at Supplier.\"\r\n        );\r\n        status = packageStatus(1);\r\n        emit ShippmentUpdate(address(this),shipper,manufacturer,1,1);\r\n    }\r\n\r\n    function receivedPackage(\r\n        address manu\r\n    ) public {\r\n\r\n        require(\r\n            manu == manufacturer,\r\n            \"Only Associate Manufacturer can call this function\"\r\n        );\r\n\r\n        require(\r\n            status == packageStatus(1),\r\n            \"Product not picked up yet\"\r\n        );\r\n        status = packageStatus(2);\r\n        emit ShippmentUpdate(address(this),shipper,manufacturer,1,2);\r\n    }\r\n}\r\n",
  "sourcePath": "D:\\blockchain\\hack\\contracts\\RawMatrials.sol",
  "compiler": {
    "name": "solc",
    "version": "0.5.12+commit.7709ece9.Emscripten.clang"
  },
  "schemaVersion": "3.0.0",
  "updatedAt": "2020-05-04T17:55:05.410Z",
  "devdoc": {
    "methods": {}
  },
  "userdoc": {
    "methods": {},
    "notice": "******************************************** RawMatrials *****************************************"
  }
}