{
  "contractName": "SupplyChain_OLD",
  "abi": [
    {
      "inputs": [],
      "payable": false,
      "stateMutability": "nonpayable",
      "type": "constructor"
    },
    {
      "anonymous": false,
      "inputs": [
        {
          "indexed": true,
          "internalType": "bytes32",
          "name": "BatchId",
          "type": "bytes32"
        },
        {
          "indexed": true,
          "internalType": "address",
          "name": "Manufacturer",
          "type": "address"
        },
        {
          "indexed": false,
          "internalType": "address",
          "name": "shipper",
          "type": "address"
        },
        {
          "indexed": true,
          "internalType": "address",
          "name": "Reciever",
          "type": "address"
        }
      ],
      "name": "MadicineNewBatch",
      "type": "event"
    },
    {
      "anonymous": false,
      "inputs": [
        {
          "indexed": true,
          "internalType": "bytes32",
          "name": "BathcID",
          "type": "bytes32"
        },
        {
          "indexed": true,
          "internalType": "address",
          "name": "Sender",
          "type": "address"
        },
        {
          "indexed": true,
          "internalType": "address",
          "name": "Shipper",
          "type": "address"
        },
        {
          "indexed": false,
          "internalType": "address",
          "name": "Receiver",
          "type": "address"
        }
      ],
      "name": "MedicineReceive",
      "type": "event"
    },
    {
      "anonymous": false,
      "inputs": [
        {
          "indexed": true,
          "internalType": "bytes32",
          "name": "BatchID",
          "type": "bytes32"
        },
        {
          "indexed": true,
          "internalType": "address",
          "name": "Shipper",
          "type": "address"
        },
        {
          "indexed": true,
          "internalType": "address",
          "name": "Sender",
          "type": "address"
        },
        {
          "indexed": false,
          "internalType": "address",
          "name": "Receiver",
          "type": "address"
        }
      ],
      "name": "MedicineReceiveAtPharma",
      "type": "event"
    },
    {
      "anonymous": false,
      "inputs": [
        {
          "indexed": true,
          "internalType": "bytes32",
          "name": "BatchID",
          "type": "bytes32"
        },
        {
          "indexed": true,
          "internalType": "address",
          "name": "Shipper",
          "type": "address"
        },
        {
          "indexed": true,
          "internalType": "address",
          "name": "Receiver",
          "type": "address"
        },
        {
          "indexed": false,
          "internalType": "address",
          "name": "Sender",
          "type": "address"
        }
      ],
      "name": "MedicineShipToPharma",
      "type": "event"
    },
    {
      "anonymous": false,
      "inputs": [
        {
          "indexed": false,
          "internalType": "bytes32",
          "name": "BatchID",
          "type": "bytes32"
        },
        {
          "indexed": true,
          "internalType": "address",
          "name": "Pharma",
          "type": "address"
        },
        {
          "indexed": false,
          "internalType": "uint256",
          "name": "status",
          "type": "uint256"
        }
      ],
      "name": "MedicineStatus",
      "type": "event"
    },
    {
      "anonymous": false,
      "inputs": [
        {
          "indexed": true,
          "internalType": "bytes32",
          "name": "BatchID",
          "type": "bytes32"
        },
        {
          "indexed": true,
          "internalType": "address",
          "name": "Shipper",
          "type": "address"
        },
        {
          "indexed": true,
          "internalType": "address",
          "name": "Receiver",
          "type": "address"
        },
        {
          "indexed": false,
          "internalType": "address",
          "name": "Sender",
          "type": "address"
        }
      ],
      "name": "MedicineTransportWtoD",
      "type": "event"
    },
    {
      "anonymous": false,
      "inputs": [
        {
          "indexed": true,
          "internalType": "bytes32",
          "name": "BatchID",
          "type": "bytes32"
        },
        {
          "indexed": true,
          "internalType": "address",
          "name": "shipper",
          "type": "address"
        },
        {
          "indexed": true,
          "internalType": "address",
          "name": "supplier",
          "type": "address"
        },
        {
          "indexed": false,
          "internalType": "address",
          "name": "receiver",
          "type": "address"
        }
      ],
      "name": "RawProductReceive",
      "type": "event"
    },
    {
      "anonymous": false,
      "inputs": [
        {
          "indexed": true,
          "internalType": "bytes32",
          "name": "ProductID",
          "type": "bytes32"
        },
        {
          "indexed": true,
          "internalType": "address",
          "name": "Supplier",
          "type": "address"
        },
        {
          "indexed": false,
          "internalType": "address",
          "name": "Shipper",
          "type": "address"
        },
        {
          "indexed": true,
          "internalType": "address",
          "name": "Receiver",
          "type": "address"
        }
      ],
      "name": "RawSupplyInit",
      "type": "event"
    },
    {
      "anonymous": false,
      "inputs": [
        {
          "indexed": true,
          "internalType": "bytes32",
          "name": "BatchId",
          "type": "bytes32"
        },
        {
          "indexed": true,
          "internalType": "address",
          "name": "Shipper",
          "type": "address"
        },
        {
          "indexed": true,
          "internalType": "address",
          "name": "receiver",
          "type": "address"
        },
        {
          "indexed": false,
          "internalType": "uint256",
          "name": "transportertype",
          "type": "uint256"
        },
        {
          "indexed": false,
          "internalType": "uint256",
          "name": "status",
          "type": "uint256"
        }
      ],
      "name": "ShippmentUpdate",
      "type": "event"
    },
    {
      "anonymous": false,
      "inputs": [
        {
          "indexed": true,
          "internalType": "address",
          "name": "EthAddress",
          "type": "address"
        },
        {
          "indexed": false,
          "internalType": "bytes32",
          "name": "Name",
          "type": "bytes32"
        }
      ],
      "name": "UserRegister",
      "type": "event"
    },
    {
      "anonymous": false,
      "inputs": [
        {
          "indexed": true,
          "internalType": "address",
          "name": "EthAddress",
          "type": "address"
        },
        {
          "indexed": false,
          "internalType": "bytes32",
          "name": "Name",
          "type": "bytes32"
        },
        {
          "indexed": false,
          "internalType": "uint256",
          "name": "Role",
          "type": "uint256"
        }
      ],
      "name": "UserRoleRessigne",
      "type": "event"
    },
    {
      "anonymous": false,
      "inputs": [
        {
          "indexed": true,
          "internalType": "address",
          "name": "EthAddress",
          "type": "address"
        },
        {
          "indexed": false,
          "internalType": "bytes32",
          "name": "Name",
          "type": "bytes32"
        },
        {
          "indexed": false,
          "internalType": "uint256",
          "name": "Role",
          "type": "uint256"
        }
      ],
      "name": "UserRoleRevoked",
      "type": "event"
    },
    {
      "constant": true,
      "inputs": [],
      "name": "Owner",
      "outputs": [
        {
          "internalType": "address",
          "name": "",
          "type": "address"
        }
      ],
      "payable": false,
      "stateMutability": "view",
      "type": "function"
    },
    {
      "constant": false,
      "inputs": [
        {
          "internalType": "address",
          "name": "EthAddress",
          "type": "address"
        },
        {
          "internalType": "bytes32",
          "name": "Name",
          "type": "bytes32"
        },
        {
          "internalType": "bytes32",
          "name": "Location",
          "type": "bytes32"
        },
        {
          "internalType": "uint256",
          "name": "Role",
          "type": "uint256"
        }
      ],
      "name": "registerUser",
      "outputs": [],
      "payable": false,
      "stateMutability": "nonpayable",
      "type": "function"
    },
    {
      "constant": false,
      "inputs": [
        {
          "internalType": "address",
          "name": "userAddress",
          "type": "address"
        }
      ],
      "name": "revokeRole",
      "outputs": [],
      "payable": false,
      "stateMutability": "nonpayable",
      "type": "function"
    },
    {
      "constant": false,
      "inputs": [
        {
          "internalType": "address",
          "name": "userAddress",
          "type": "address"
        },
        {
          "internalType": "uint256",
          "name": "Role",
          "type": "uint256"
        }
      ],
      "name": "reassigneRole",
      "outputs": [],
      "payable": false,
      "stateMutability": "nonpayable",
      "type": "function"
    },
    {
      "constant": true,
      "inputs": [
        {
          "internalType": "address",
          "name": "User",
          "type": "address"
        }
      ],
      "name": "getUserInfo",
      "outputs": [
        {
          "internalType": "bytes32",
          "name": "name",
          "type": "bytes32"
        },
        {
          "internalType": "bytes32",
          "name": "location",
          "type": "bytes32"
        },
        {
          "internalType": "address",
          "name": "ethAddress",
          "type": "address"
        },
        {
          "internalType": "enum SupplyChain_OLD.roles",
          "name": "role",
          "type": "uint8"
        }
      ],
      "payable": false,
      "stateMutability": "view",
      "type": "function"
    },
    {
      "constant": true,
      "inputs": [],
      "name": "getUsersCount",
      "outputs": [
        {
          "internalType": "uint256",
          "name": "count",
          "type": "uint256"
        }
      ],
      "payable": false,
      "stateMutability": "view",
      "type": "function"
    },
    {
      "constant": true,
      "inputs": [
        {
          "internalType": "uint256",
          "name": "index",
          "type": "uint256"
        }
      ],
      "name": "getUserbyIndex",
      "outputs": [
        {
          "internalType": "bytes32",
          "name": "name",
          "type": "bytes32"
        },
        {
          "internalType": "bytes32",
          "name": "location",
          "type": "bytes32"
        },
        {
          "internalType": "address",
          "name": "ethAddress",
          "type": "address"
        },
        {
          "internalType": "enum SupplyChain_OLD.roles",
          "name": "role",
          "type": "uint8"
        }
      ],
      "payable": false,
      "stateMutability": "view",
      "type": "function"
    },
    {
      "constant": false,
      "inputs": [
        {
          "internalType": "bytes32",
          "name": "Description",
          "type": "bytes32"
        },
        {
          "internalType": "bytes32",
          "name": "FarmerName",
          "type": "bytes32"
        },
        {
          "internalType": "bytes32",
          "name": "Location",
          "type": "bytes32"
        },
        {
          "internalType": "uint256",
          "name": "Quantity",
          "type": "uint256"
        },
        {
          "internalType": "address",
          "name": "Shipper",
          "type": "address"
        },
        {
          "internalType": "address",
          "name": "Receiver",
          "type": "address"
        }
      ],
      "name": "supplyRaw",
      "outputs": [],
      "payable": false,
      "stateMutability": "nonpayable",
      "type": "function"
    },
    {
      "constant": true,
      "inputs": [],
      "name": "getCountOfProducts",
      "outputs": [
        {
          "internalType": "uint256",
          "name": "count",
          "type": "uint256"
        }
      ],
      "payable": false,
      "stateMutability": "view",
      "type": "function"
    },
    {
      "constant": true,
      "inputs": [
        {
          "internalType": "uint256",
          "name": "index",
          "type": "uint256"
        }
      ],
      "name": "getProductIdByIndex",
      "outputs": [
        {
          "internalType": "bytes32",
          "name": "BatchID",
          "type": "bytes32"
        }
      ],
      "payable": false,
      "stateMutability": "view",
      "type": "function"
    },
    {
      "constant": true,
      "inputs": [
        {
          "internalType": "bytes32",
          "name": "pid",
          "type": "bytes32"
        }
      ],
      "name": "getSupplyRaw",
      "outputs": [
        {
          "internalType": "bytes32",
          "name": "description",
          "type": "bytes32"
        },
        {
          "internalType": "bytes32",
          "name": "farmer_name",
          "type": "bytes32"
        },
        {
          "internalType": "bytes32",
          "name": "location",
          "type": "bytes32"
        },
        {
          "internalType": "uint256",
          "name": "quantity",
          "type": "uint256"
        },
        {
          "internalType": "address",
          "name": "shipper",
          "type": "address"
        },
        {
          "internalType": "address",
          "name": "receiver",
          "type": "address"
        },
        {
          "internalType": "address",
          "name": "supplier",
          "type": "address"
        }
      ],
      "payable": false,
      "stateMutability": "view",
      "type": "function"
    },
    {
      "constant": true,
      "inputs": [
        {
          "internalType": "bytes32",
          "name": "pid",
          "type": "bytes32"
        }
      ],
      "name": "getStatusOfRawMatrials",
      "outputs": [
        {
          "internalType": "uint256",
          "name": "status",
          "type": "uint256"
        }
      ],
      "payable": false,
      "stateMutability": "view",
      "type": "function"
    },
    {
      "constant": false,
      "inputs": [
        {
          "internalType": "bytes32",
          "name": "pid",
          "type": "bytes32"
        },
        {
          "internalType": "uint256",
          "name": "transportertype",
          "type": "uint256"
        },
        {
          "internalType": "uint256",
          "name": "receivertype",
          "type": "uint256"
        }
      ],
      "name": "loadpacakage",
      "outputs": [],
      "payable": false,
      "stateMutability": "nonpayable",
      "type": "function"
    },
    {
      "constant": false,
      "inputs": [
        {
          "internalType": "bytes32",
          "name": "pid",
          "type": "bytes32"
        }
      ],
      "name": "rawProductReceived",
      "outputs": [],
      "payable": false,
      "stateMutability": "nonpayable",
      "type": "function"
    },
    {
      "constant": false,
      "inputs": [
        {
          "internalType": "bytes32",
          "name": "Description",
          "type": "bytes32"
        },
        {
          "internalType": "bytes32",
          "name": "RawMatrials",
          "type": "bytes32"
        },
        {
          "internalType": "uint256",
          "name": "Quantity",
          "type": "uint256"
        },
        {
          "internalType": "address",
          "name": "Shipper",
          "type": "address"
        },
        {
          "internalType": "address",
          "name": "Receiver",
          "type": "address"
        },
        {
          "internalType": "uint256",
          "name": "receivertype",
          "type": "uint256"
        }
      ],
      "name": "newBatch",
      "outputs": [],
      "payable": false,
      "stateMutability": "nonpayable",
      "type": "function"
    },
    {
      "constant": true,
      "inputs": [],
      "name": "getMadicineBatchCount",
      "outputs": [
        {
          "internalType": "uint256",
          "name": "count",
          "type": "uint256"
        }
      ],
      "payable": false,
      "stateMutability": "view",
      "type": "function"
    },
    {
      "constant": true,
      "inputs": [
        {
          "internalType": "uint256",
          "name": "index",
          "type": "uint256"
        }
      ],
      "name": "getBatchIDByIndex",
      "outputs": [
        {
          "internalType": "bytes32",
          "name": "BatchID",
          "type": "bytes32"
        }
      ],
      "payable": false,
      "stateMutability": "view",
      "type": "function"
    },
    {
      "constant": true,
      "inputs": [
        {
          "internalType": "bytes32",
          "name": "batchID",
          "type": "bytes32"
        }
      ],
      "name": "getMadicineInfo",
      "outputs": [
        {
          "internalType": "bytes32",
          "name": "Description",
          "type": "bytes32"
        },
        {
          "internalType": "bytes32",
          "name": "RawMatrials",
          "type": "bytes32"
        },
        {
          "internalType": "uint256",
          "name": "Quantity",
          "type": "uint256"
        },
        {
          "internalType": "address",
          "name": "Shipper",
          "type": "address"
        },
        {
          "internalType": "address",
          "name": "Manufacturer",
          "type": "address"
        }
      ],
      "payable": false,
      "stateMutability": "view",
      "type": "function"
    },
    {
      "constant": true,
      "inputs": [
        {
          "internalType": "bytes32",
          "name": "batchID",
          "type": "bytes32"
        }
      ],
      "name": "getWDP",
      "outputs": [
        {
          "internalType": "address",
          "name": "Wholesaler",
          "type": "address"
        },
        {
          "internalType": "address",
          "name": "Distributer",
          "type": "address"
        },
        {
          "internalType": "address",
          "name": "Pharma",
          "type": "address"
        }
      ],
      "payable": false,
      "stateMutability": "view",
      "type": "function"
    },
    {
      "constant": true,
      "inputs": [
        {
          "internalType": "bytes32",
          "name": "BatchID",
          "type": "bytes32"
        }
      ],
      "name": "getMedicineStatus",
      "outputs": [
        {
          "internalType": "uint256",
          "name": "status",
          "type": "uint256"
        }
      ],
      "payable": false,
      "stateMutability": "view",
      "type": "function"
    },
    {
      "constant": false,
      "inputs": [
        {
          "internalType": "bytes32",
          "name": "pid",
          "type": "bytes32"
        }
      ],
      "name": "medicineReceived",
      "outputs": [],
      "payable": false,
      "stateMutability": "nonpayable",
      "type": "function"
    },
    {
      "constant": false,
      "inputs": [
        {
          "internalType": "bytes32",
          "name": "BatchID",
          "type": "bytes32"
        },
        {
          "internalType": "address",
          "name": "Shipper",
          "type": "address"
        },
        {
          "internalType": "address",
          "name": "Receiver",
          "type": "address"
        }
      ],
      "name": "shipMedicineWtoD",
      "outputs": [],
      "payable": false,
      "stateMutability": "nonpayable",
      "type": "function"
    },
    {
      "constant": true,
      "inputs": [
        {
          "internalType": "bytes32",
          "name": "BatchID",
          "type": "bytes32"
        }
      ],
      "name": "shipInfoWtoD",
      "outputs": [
        {
          "internalType": "address",
          "name": "shipper",
          "type": "address"
        },
        {
          "internalType": "address",
          "name": "receiver",
          "type": "address"
        },
        {
          "internalType": "uint256",
          "name": "status",
          "type": "uint256"
        }
      ],
      "payable": false,
      "stateMutability": "view",
      "type": "function"
    },
    {
      "constant": true,
      "inputs": [],
      "name": "getBatchIdCountW",
      "outputs": [
        {
          "internalType": "uint256",
          "name": "count",
          "type": "uint256"
        }
      ],
      "payable": false,
      "stateMutability": "view",
      "type": "function"
    },
    {
      "constant": true,
      "inputs": [
        {
          "internalType": "uint256",
          "name": "index",
          "type": "uint256"
        }
      ],
      "name": "getBatchIdByIndexW",
      "outputs": [
        {
          "internalType": "bytes32",
          "name": "BatchID",
          "type": "bytes32"
        }
      ],
      "payable": false,
      "stateMutability": "view",
      "type": "function"
    },
    {
      "constant": false,
      "inputs": [
        {
          "internalType": "bytes32",
          "name": "BatchID",
          "type": "bytes32"
        },
        {
          "internalType": "address",
          "name": "Shipper",
          "type": "address"
        },
        {
          "internalType": "address",
          "name": "Receiver",
          "type": "address"
        }
      ],
      "name": "shipMedicineDtoP",
      "outputs": [],
      "payable": false,
      "stateMutability": "nonpayable",
      "type": "function"
    },
    {
      "constant": true,
      "inputs": [
        {
          "internalType": "bytes32",
          "name": "BatchID",
          "type": "bytes32"
        }
      ],
      "name": "shipInfoDtoP",
      "outputs": [
        {
          "internalType": "address",
          "name": "shipper",
          "type": "address"
        },
        {
          "internalType": "address",
          "name": "receiver",
          "type": "address"
        },
        {
          "internalType": "uint256",
          "name": "status",
          "type": "uint256"
        }
      ],
      "payable": false,
      "stateMutability": "view",
      "type": "function"
    },
    {
      "constant": true,
      "inputs": [],
      "name": "getBatchIdCountD",
      "outputs": [
        {
          "internalType": "uint256",
          "name": "count",
          "type": "uint256"
        }
      ],
      "payable": false,
      "stateMutability": "view",
      "type": "function"
    },
    {
      "constant": true,
      "inputs": [
        {
          "internalType": "uint256",
          "name": "index",
          "type": "uint256"
        }
      ],
      "name": "getBatchIdByIndexD",
      "outputs": [
        {
          "internalType": "bytes32",
          "name": "BatchID",
          "type": "bytes32"
        }
      ],
      "payable": false,
      "stateMutability": "view",
      "type": "function"
    },
    {
      "constant": false,
      "inputs": [
        {
          "internalType": "bytes32",
          "name": "BatchID",
          "type": "bytes32"
        }
      ],
      "name": "receiveMedicineFormD",
      "outputs": [],
      "payable": false,
      "stateMutability": "nonpayable",
      "type": "function"
    },
    {
      "constant": false,
      "inputs": [
        {
          "internalType": "bytes32",
          "name": "BatchID",
          "type": "bytes32"
        },
        {
          "internalType": "uint256",
          "name": "Status",
          "type": "uint256"
        }
      ],
      "name": "updateSaleStatus",
      "outputs": [],
      "payable": false,
      "stateMutability": "nonpayable",
      "type": "function"
    },
    {
      "constant": true,
      "inputs": [
        {
          "internalType": "bytes32",
          "name": "BatchID",
          "type": "bytes32"
        }
      ],
      "name": "salesInfo",
      "outputs": [
        {
          "internalType": "uint256",
          "name": "Status",
          "type": "uint256"
        }
      ],
      "payable": false,
      "stateMutability": "view",
      "type": "function"
    },
    {
      "constant": true,
      "inputs": [],
      "name": "getBatchIdCountP",
      "outputs": [
        {
          "internalType": "uint256",
          "name": "count",
          "type": "uint256"
        }
      ],
      "payable": false,
      "stateMutability": "view",
      "type": "function"
    },
    {
      "constant": true,
      "inputs": [
        {
          "internalType": "uint256",
          "name": "index",
          "type": "uint256"
        }
      ],
      "name": "getBatchIdByIndexP",
      "outputs": [
        {
          "internalType": "bytes32",
          "name": "BatchID",
          "type": "bytes32"
        }
      ],
      "payable": false,
      "stateMutability": "view",
      "type": "function"
    }
  ],
  "bytecode": "0x608060405234801561001057600080fd5b5060008054600160a060020a03191633179055612eb8806100326000396000f3fe608060405234801561001057600080fd5b5060043610610243576000357c010000000000000000000000000000000000000000000000000000000090048063923f645a11610147578063d17cd90a116100da578063e7776468116100a9578063f35ea8051161008e578063f35ea80514610710578063f931cdec14610733578063faefa3351461077957610243565b8063e7776468146106ab578063ede59592146106c857610243565b8063d17cd90a14610605578063e25f38fe14610622578063e5bff92a14610686578063e7656200146106a357610243565b8063b4a99a4e11610116578063b4a99a4e1461053c578063b782e73114610560578063bb51e3ba1461057d578063c155cf68146105d157610243565b8063923f645a146104ec578063a075743d14610524578063a37a27d71461052c578063a4a1e2631461053457610243565b8063602c9745116101da57806376e903aa116101a95780637eee07421161018e5780637eee07421461048057806380e52e3f146104a9578063916e99c5146104cf57610243565b806376e903aa146104465780637bfda3621461046357610243565b8063602c9745146103c95780636386c1c7146103e657806371ffd7f81461040c57806372d574ae1461042957610243565b80633df1ea0a116102165780633df1ea0a146103555780633f36d7281461035d5780634cd22da01461037a5780634f0dc53e146103c157610243565b80630173ce2c14610248578063108329f81461029057806331dbe6a1146102f8578063373d5c1814610327575b600080fd5b6102656004803603602081101561025e57600080fd5b50356107ad565b60408051600160a060020a039485168152928416602084015292168183015290519081900360600190f35b6102ad600480360360208110156102a657600080fd5b50356107e2565b6040518085815260200184815260200183600160a060020a0316600160a060020a031681526020018260078111156102e157fe5b60ff16815260200194505050505060405180910390f35b6103156004803603602081101561030e57600080fd5b5035610821565b60408051918252519081900360200190f35b6103536004803603604081101561033d57600080fd5b50600160a060020a0381351690602001356108be565b005b610315610a68565b6103156004803603602081101561037357600080fd5b5035610aec565b6103976004803603602081101561039057600080fd5b5035610b19565b60408051600160a060020a0394851681529290931660208301528183015290519081900360600190f35b610315610b68565b610315600480360360208110156103df57600080fd5b5035610bec565b6102ad600480360360208110156103fc57600080fd5b5035600160a060020a0316610c77565b6103976004803603602081101561042257600080fd5b5035610cb3565b6103536004803603602081101561043f57600080fd5b5035610cf9565b6103156004803603602081101561045c57600080fd5b5035611224565b6103156004803603602081101561047957600080fd5b50356112af565b6103536004803603606081101561049657600080fd5b50803590602081013590604001356112d7565b610353600480360360208110156104bf57600080fd5b5035600160a060020a03166118ff565b610315600480360360208110156104e557600080fd5b5035611a9d565b6103536004803603608081101561050257600080fd5b50600160a060020a038135169060208101359060408101359060600135611b28565b610315611d37565b610315611dbb565b610315611e3f565b610544611e45565b60408051600160a060020a039092168252519081900360200190f35b6103536004803603602081101561057657600080fd5b5035611e54565b61059a6004803603602081101561059357600080fd5b5035611fd8565b60408051958652602086019490945284840192909252600160a060020a039081166060850152166080830152519081900360a00190f35b610353600480360360608110156105e757600080fd5b50803590600160a060020a0360208201358116916040013516612017565b6103536004803603602081101561061b57600080fd5b503561217e565b61063f6004803603602081101561063857600080fd5b5035612405565b604080519788526020880196909652868601949094526060860192909252600160a060020a03908116608086015290811660a08501521660c0830152519081900360e00190f35b6103156004803603602081101561069c57600080fd5b5035612454565b6103156124df565b610315600480360360208110156106c157600080fd5b5035612563565b610353600480360360c08110156106de57600080fd5b50803590602081013590604081013590600160a060020a03606082013581169160808101359091169060a00135612580565b6103536004803603604081101561072657600080fd5b5080359060200135612805565b610353600480360360c081101561074957600080fd5b50803590602081013590604081013590606081013590600160a060020a03608082013581169160a0013516612982565b6103536004803603606081101561078f57600080fd5b50803590600160a060020a0360208201358116916040013516612b4b565b6000908152600660208190526040909120908101546007820154600890920154600160a060020a039182169392821692911690565b600080600080610812600286815481106107f857fe5b600091825260209091200154600160a060020a0316610c77565b93509350935093509193509193565b600060053360009081526001602052604090206002015460a060020a900460ff16600781111561084d57fe5b1461089157604051600080516020612cf78339815191528152600401808060200182810382526042815260200180612d4d6042913960600191505060405180910390fd5b336000908152600a602052604090208054839081106108ac57fe5b90600052602060002001549050919050565b600054600160a060020a0316331461090f57604051600080516020612cf78339815191528152600401808060200182810382526022815260200180612cd56022913960400191505060405180910390fd5b6000600160a060020a03831660009081526001602052604090206002015460a060020a900460ff16600781111561094257fe5b141561099d5760408051600080516020612cf7833981519152815260206004820152601360248201527f55736572206e6f74207265676973746572656400000000000000000000000000604482015290519081900360640190fd5b8060078111156109a957fe5b600160a060020a0383166000908152600160205260409020600201805474ff0000000000000000000000000000000000000000191660a060020a8360078111156109ef57fe5b0217905550600160a060020a038216600081815260016020526040902080546002909101547f4c8b3f61ed94356876db0fec52d6a7c6aeaf772c4e0ca8f6da74331cc0f687cc919060a060020a900460ff166007811115610a4c57fe5b6040805192835260208301919091528051918290030190a25050565b600060043360009081526001602052604090206002015460a060020a900460ff166007811115610a9457fe5b14610ad857604051600080516020612cf78339815191528152600401808060200182810382526042815260200180612d4d6042913960600191505060405180910390fd5b503360009081526008602052604090205490565b60008181526003602052604081206007015460a060020a900460ff166002811115610b1357fe5b92915050565b600081815260096020526040812060028082015460039092015483928392600160a060020a03918216929182169160a060020a900460ff1690811115610b5b57fe5b9250925092509193909250565b600060053360009081526001602052604090206002015460a060020a900460ff166007811115610b9457fe5b14610bd857604051600080516020612cf78339815191528152600401808060200182810382526042815260200180612d4d6042913960600191505060405180910390fd5b50336000908152600a602052604090205490565b600060013360009081526001602052604090206002015460a060020a900460ff166007811115610c1857fe5b14610c5c57604051600080516020612cf78339815191528152600401808060200182810382526025815260200180612dfa6025913960400191505060405180910390fd5b3360009081526004602052604090208054839081106108ac57fe5b600160a060020a0390811660009081526001602081905260409091208054918101546002909101549193909282169160a060020a900460ff1690565b6000818152600b60205260408120600181015460028083015460039093015484938493600160a060020a039081169391169160a060020a900460ff1690811115610b5b57fe5b60043360009081526001602052604090206002015460a060020a900460ff166007811115610d2357fe5b1480610d56575060053360009081526001602052604090206002015460a060020a900460ff166007811115610d5457fe5b145b610d9957604051600080516020612cf78339815191528152600401808060200182810382526036815260200180612d176036913960400191505060405180910390fd5b6000818152600660205260409020548114610e035760408051600080516020612cf7833981519152815260206004820152601660248201527f50726f6475637420646f6573206e6f7420657869737400000000000000000000604482015290519081900360640190fd5b60016006600083815260200190815260200160002060080160149054906101000a900460ff166006811115610e3457fe5b1015610e8f5760408051600080516020612cf7833981519152815260206004820152601960248201527f50726f64756374206e6f74207069636b65642075702079657400000000000000604482015290519081900360640190fd5b3360009081526001602081905260409091206002015460a060020a900460ff166007811115610eba57fe5b036006811115610ec657fe5b60008281526006602081905260409091206008018054909174ff0000000000000000000000000000000000000000199091169060a060020a908490811115610f0a57fe5b021790555060043360009081526001602052604090206002015460a060020a900460ff166007811115610f3957fe5b14156110375760008181526006602081905260409091200154600160a060020a03163314610fb65760408051600080516020612cf7833981519152815260206004820152601760248201527f57686f6c6573616c657220697320646966666572656e74000000000000000000604482015290519081900360640190fd5b3360008181526008602090815260408083208054600181018255908452828420018590558483526006825291829020600481015460059091015483519485529251600160a060020a0391821694919093169285927f7478eec01e702b6b7f202eb1c19675e24ae1eebb6c87e1ff6574e166d5f43cdb928290030190a4611221565b60053360009081526001602052604090206002015460a060020a900460ff16600781111561106157fe5b141561122157600081815260066020526040902060070154600160a060020a031633146110dd5760408051600080516020612cf7833981519152815260206004820152601860248201527f446973747269627574657220697320646966666572656e740000000000000000604482015290519081900360640190fd5b60008181526006602081905260409091200154600160a060020a03161561119c5760008181526009602090815260409182902060038101805474ff0000000000000000000000000000000000000000191674020000000000000000000000000000000000000000179055600281015460019091015483513381529351600160a060020a0392831694929091169285927f7478eec01e702b6b7f202eb1c19675e24ae1eebb6c87e1ff6574e166d5f43cdb929081900390910190a46111fe565b600081815260066020908152604091829020600481015460059091015483513381529351600160a060020a0392831694919092169285927f7478eec01e702b6b7f202eb1c19675e24ae1eebb6c87e1ff6574e166d5f43cdb9281900390910190a45b336000908152600a60209081526040822080546001810182559083529120018190555b50565b600060043360009081526001602052604090206002015460a060020a900460ff16600781111561125057fe5b1461129457604051600080516020612cf78339815191528152600401808060200182810382526042815260200180612d4d6042913960600191505060405180910390fd5b3360009081526008602052604090208054839081106108ac57fe5b600081815260066020819052604082206008015460a060020a900460ff1690811115610b1357fe5b60023360009081526001602052604090206002015460a060020a900460ff16600781111561130157fe5b1461134557604051600080516020612cf78339815191528152600401808060200182810382526027815260200180612e5d6027913960400191505060405180910390fd5b600082116113a25760408051600080516020612cf7833981519152815260206004820152601f60248201527f5472616e73706f727465722054797065206d75737420626520646566696e6500604482015290519081900360640190fd5b81600114156114ad57600083815260036020526040902060050154600160a060020a031633146114215760408051600080516020612cf7833981519152815260206004820152601960248201527f5472616e73706f72746572206973206f74686572207573657200000000000000604482015290519081900360640190fd5b60008381526003602090815260409182902060078101805474ff0000000000000000000000000000000000000000191660a060020a1790556006015482516001808252928101929092528251600160a060020a0390911692339287927f064fe04394fef40d84544d70823d9be8bbb02f4bbb5c0612f20be8159aabaac6929181900390910190a46118fa565b81600214156116bb57600083815260066020526040902060040154600160a060020a0316331461152c5760408051600080516020612cf7833981519152815260206004820152601960248201527f5472616e73706f72746572206973206f74686572207573657200000000000000604482015290519081900360640190fd5b806115865760408051600080516020612cf7833981519152815260206004820152601c60248201527f52656365697665722054797065206d75737420626520646566696e6500000000604482015290519081900360640190fd5b80600681111561159257fe5b60008481526006602081905260409091206008018054909174ff0000000000000000000000000000000000000000199091169060a060020a9084908111156115d657fe5b0217905550806001141561164b57600083815260066020818152604092839020909101548251600281526001928101929092528251600160a060020a0390911692339287927f064fe04394fef40d84544d70823d9be8bbb02f4bbb5c0612f20be8159aabaac6929181900390910190a46116b6565b80600214156116b6576000838152600660209081526040918290206005015482516002808252928101929092528251600160a060020a0390911692339287927f064fe04394fef40d84544d70823d9be8bbb02f4bbb5c0612f20be8159aabaac6929181900390910190a45b6118fa565b81600314156117c357600083815260096020526040902060020154600160a060020a0316331461173a5760408051600080516020612cf7833981519152815260206004820152601960248201527f5472616e73706f72746572206973206f74686572207573657200000000000000604482015290519081900360640190fd5b600083815260096020908152604091829020600301805474ff0000000000000000000000000000000000000000191660a060020a179081905582516001808252928101929092528251600160a060020a0390911692339287927f064fe04394fef40d84544d70823d9be8bbb02f4bbb5c0612f20be8159aabaac6929181900390910190a46118fa565b81600414156118fa576000838152600b6020526040902060010154600160a060020a031633146118425760408051600080516020612cf7833981519152815260206004820152601960248201527f5472616e73706f72746572206973206f74686572207573657200000000000000604482015290519081900360640190fd5b6000838152600b6020818152604080842060038101805474ff00000000000000000000000000000000000000001990811660a060020a1790915560068452948290206008018054909516740500000000000000000000000000000000000000001790945591815260029092015481516001808252938101939093528151600160a060020a0390911692339287927f064fe04394fef40d84544d70823d9be8bbb02f4bbb5c0612f20be8159aabaac69281900390910190a45b505050565b600054600160a060020a0316331461195057604051600080516020612cf78339815191528152600401808060200182810382526022815260200180612cd56022913960400191505060405180910390fd5b6000600160a060020a03821660009081526001602052604090206002015460a060020a900460ff16600781111561198357fe5b14156119de5760408051600080516020612cf7833981519152815260206004820152601360248201527f55736572206e6f74207265676973746572656400000000000000000000000000604482015290519081900360640190fd5b600160a060020a038116600081815260016020526040902080546002909101547fb5f04dfc1ccfefb366c4dc7a23670362462e0a415afb89d8cba1fb657e264c96919060a060020a900460ff166007811115611a3657fe5b6040805192835260208301919091528051918290030190a2600160a060020a03166000908152600160205260409020600201805474ff0000000000000000000000000000000000000000191674070000000000000000000000000000000000000000179055565b600060033360009081526001602052604090206002015460a060020a900460ff166007811115611ac957fe5b14611b0d57604051600080516020612cf78339815191528152600401808060200182810382526028815260200180612dd26028913960400191505060405180910390fd5b3360009081526005602052604090208054839081106108ac57fe5b600054600160a060020a03163314611b7957604051600080516020612cf78339815191528152600401808060200182810382526022815260200180612cd56022913960400191505060405180910390fd5b6000600160a060020a03851660009081526001602052604090206002015460a060020a900460ff166007811115611bac57fe5b14611c065760408051600080516020612cf7833981519152815260206004820152601760248201527f5573657220416c72656164792072656769737465726564000000000000000000604482015290519081900360640190fd5b600160a060020a0384166000818152600160208190526040909120858155908101849055600201805473ffffffffffffffffffffffffffffffffffffffff19169091179055806007811115611c5757fe5b600160a060020a0385166000908152600160205260409020600201805474ff0000000000000000000000000000000000000000191660a060020a836007811115611c9d57fe5b0217905550600280546001810182556000919091527f405787fa12a823e0f2b7631cc41b3ba8828b3321ca811111fa75cd3aa3bb5ace018054600160a060020a03861673ffffffffffffffffffffffffffffffffffffffff1990911681179091556040805185815290517f33a7170f028b1e4f5ba321064a00ed820856a920c7f9c6636fbcf385427b1b0f9181900360200190a250505050565b600060013360009081526001602052604090206002015460a060020a900460ff166007811115611d6357fe5b14611da757604051600080516020612cf78339815191528152600401808060200182810382526025815260200180612dfa6025913960400191505060405180910390fd5b503360009081526004602052604090205490565b600060063360009081526001602052604090206002015460a060020a900460ff166007811115611de757fe5b14611e2b57604051600080516020612cf78339815191528152600401808060200182810382526042815260200180612d4d6042913960600191505060405180910390fd5b50336000908152600c602052604090205490565b60025490565b600054600160a060020a031681565b60063360009081526001602052604090206002015460a060020a900460ff166007811115611e7e57fe5b148015611ea45750600081815260066020526040902060080154600160a060020a031633145b611ee757604051600080516020612cf7833981519152815260040180806020018281038252603e815260200180612e1f603e913960400191505060405180910390fd5b6000818152600b6020818152604080842060038101805474ff000000000000000000000000000000000000000019908116740200000000000000000000000000000000000000001782556006855283872060080180549091167406000000000000000000000000000000000000000017905533808752600c855283872080546001818101835591895286892001899055888852600d865296849020805460ff1916881790559484525494015481519384529051600160a060020a03948516949091169285927fd2cdcf69957c14edd1b02f1842e1b16ec6d6e72a7f2885ebb4377b5fec9740dd92918290030190a450565b60009081526006602052604090206001810154600282015460038301546004840154600590940154929491939092600160a060020a0391821692911690565b60053360009081526001602052604090206002015460a060020a900460ff16600781111561204157fe5b1480156120675750600083815260066020526040902060070154600160a060020a031633145b6120aa57604051600080516020612cf78339815191528152600401808060200182810382526043815260200180612d8f6043913960600191505060405180910390fd5b6000838152600b6020908152604080832086815560018101805473ffffffffffffffffffffffffffffffffffffffff19908116600160a060020a0389811691821790935560028401805483169389169384179055600390930180547fffffffffffffffffffffff00000000000000000000000000000000000000000016339081179091556006865295849020600801805490911682179055825194855291519193909287927f441f5e2afdb3b50e71754e00bf975ec5511a6e68962f37e3b0bcd28678b285399281900390910190a4505050565b60033360009081526001602052604090206002015460a060020a900460ff1660078111156121a857fe5b146121ec57604051600080516020612cf78339815191528152600401808060200182810382526028815260200180612dd26028913960400191505060405180910390fd5b60008181526003602052604090205481146122565760408051600080516020612cf7833981519152815260206004820152601660248201527f50726f6475637420646f6573206e6f7420657869737400000000000000000000604482015290519081900360640190fd5b600160008281526003602052604090206007015460a060020a900460ff16600281111561227f57fe5b146122d95760408051600080516020612cf7833981519152815260206004820152601960248201527f50726f64756374206e6f74207069636b65642075702079657400000000000000604482015290519081900360640190fd5b600081815260036020526040902060060154600160a060020a0316331461234f5760408051600080516020612cf7833981519152815260206004820152601960248201527f4d616e75666163747572657220697320646966666572656e7400000000000000604482015290519081900360640190fd5b600081815260036020818152604080842060078101805474ff0000000000000000000000000000000000000000191674020000000000000000000000000000000000000000178155338087526005808652848820805460018101825590895286892001899055968890529484525494015481519384529051600160a060020a03948516949091169285927f5ece0855ece9d3bef8346ff1fe04663cc7fb712acc152c6f14a6e19dad7fe93692918290030190a450565b60009081526003602081905260409091206001810154600282015492820154600483015460058401546006850154600790950154939692949193600160a060020a039182169392821692911690565b600060063360009081526001602052604090206002015460a060020a900460ff16600781111561248057fe5b146124c457604051600080516020612cf78339815191528152600401808060200182810382526042815260200180612d4d6042913960600191505060405180910390fd5b336000908152600c602052604090208054839081106108ac57fe5b600060033360009081526001602052604090206002015460a060020a900460ff16600781111561250b57fe5b1461254f57604051600080516020612cf78339815191528152600401808060200182810382526028815260200180612dd26028913960400191505060405180910390fd5b503360009081526005602052604090205490565b6000818152600d602052604081205460ff166004811115610b1357fe5b60033360009081526001602052604090206002015460a060020a900460ff1660078111156125aa57fe5b146125ee57604051600080516020612cf78339815191528152600401808060200182810382526028815260200180612dd26028913960400191505060405180910390fd5b806126485760408051600080516020612cf7833981519152815260206004820152601c60248201527f52656365697665722054797065206d75737420626520646566696e6500000000604482015290519081900360640190fd5b60408051336c01000000000000000000000000810260208084019190915243603484015260548084018990528451808503909101815260749093018452825192810192909220600081815260069093529290912082815560018082018a9055600282018990556003820188905560048201805473ffffffffffffffffffffffffffffffffffffffff19908116600160a060020a038a1617909155600583018054909116909317909255600801805474ff00000000000000000000000000000000000000001916905582141561275457600081815260066020819052604090912001805473ffffffffffffffffffffffffffffffffffffffff1916600160a060020a038516179055612795565b8160021415612795576000818152600660205260409020600701805473ffffffffffffffffffffffffffffffffffffffff1916600160a060020a0385161790555b3360008181526007602090815260408083208054600181018255908452928290209092018490558151600160a060020a0388811682529251928716939285927f3b6f991d2aa45abbc101b22db208a600efaf11748c710c51aaab7b828d1a9916928290030190a450505050505050565b60063360009081526001602052604090206002015460a060020a900460ff16600781111561282f57fe5b1480156128555750600082815260066020526040902060080154600160a060020a031633145b61289857604051600080516020612cf7833981519152815260040180806020018281038252603e815260200180612e1f603e913960400191505060405180910390fd5b60016000838152600d602052604090205460ff1660048111156128b757fe5b146129115760408051600080516020612cf7833981519152815260206004820152601a60248201527f4d65646963696e65204d75737420626520617420506861726d61000000000000604482015290519081900360640190fd5b80600481111561291d57fe5b6000838152600d60205260409020805460ff1916600183600481111561293f57fe5b02179055506040805183815260208101839052815133927fe7b14e8a1267505d152402dcb3fe6f7e936a894404546dc49e6bd6dc83d0ab2c928290030190a25050565b60013360009081526001602052604090206002015460a060020a900460ff1660078111156129ac57fe5b146129f057604051600080516020612cf78339815191528152600401808060200182810382526025815260200180612dfa6025913960400191505060405180910390fd5b604080516c0100000000000000000000000033908102602080840191909152436034840152605480840188905284518085039091018152607490930184528251928101929092206000818152600393849052938420818155600181018b9055600281018a905592830188905560048301879055600583018054600160a060020a0388811673ffffffffffffffffffffffffffffffffffffffff199283161790925560068501805492881692821692909217909155600790930180549093169091178083559092919074ff0000000000000000000000000000000000000000191660a060020a8302179055503360008181526004602090815260408083208054600181018255908452928290209092018490558151600160a060020a0387811682529251928616939285927f3526c908ab533632ede64662724d93d6c153d7f743618f475ff994b850de4d8c928290030190a450505050505050565b60043360009081526001602052604090206002015460a060020a900460ff166007811115612b7557fe5b148015612b9c575060008381526006602081905260409091200154600160a060020a031633145b612bdf57604051600080516020612cf78339815191528152600401808060200182810382526042815260200180612d4d6042913960600191505060405180910390fd5b6000838152600960209081526040808320868155600281018054600160a060020a0388811673ffffffffffffffffffffffffffffffffffffffff199283168117909355600384018054918916918316821774ff0000000000000000000000000000000000000000199081169091556001909401805433908416811790915560068752968590206007810180549093168217909255600890910180549093167402000000000000000000000000000000000000000017909255825194855291519093919287927ffad615ed1c60bf65312a19f25cdf659c8e809d971b3ef99f1a8354b80fc8fad9929081900390910190a450505056fe4f6e6c79206f776e65722063616e2063616c6c20746869732066756e6374696f6e2e08c379a0000000000000000000000000000000000000000000000000000000004f6e6c792057686f6c6573616c657220616e642044697374726962757465722063616e2063616c6c20746869732066756e6374696f6e4f6e6c792057686f6c6573616c6572206f722063757272656e74206f776e6572206f66207061636b6167652063616e2063616c6c20746869732066756e6374696f6e4f6e6c79204469737472696275746572206f722063757272656e74206f776e6572206f66207061636b6167652063616e2063616c6c20746869732066756e6374696f6e4f6e6c79206d616e7566616374757265722063616e2063616c6c20746869732066756e6374696f6e4f6e6c7920537570706c6965722043616e2063616c6c20746869732066756e6374696f6e204f6e6c7920506861726d61206f722063757272656e74206f776e6572206f66207061636b6167652063616e2063616c6c20746869732066756e6374696f6e4f6e6c79205472616e73706f727465722063616e2063616c6c20746869732066756e6374696f6ea265627a7a723158207117a693ea303906bb82878f833694a6333d5541017b517b7263ab39b94ac4de64736f6c634300050c0032",
  "source": "pragma solidity >=0.4.25 <0.6.0;\r\n\r\ncontract SupplyChain_OLD {\r\n\r\n    constructor() public {\r\n        Owner = msg.sender;\r\n    }\r\n/********************************************** Owner Section *********************************************/\r\n    address public Owner;\r\n    modifier onlyOwner() {\r\n        require(\r\n            msg.sender == Owner,\r\n            \"Only owner can call this function.\"\r\n        );\r\n        _;\r\n    }\r\n    enum roles {norole, supplier, transporter, manufacturer, wholesaler, distributer, pharma, revoke }\r\n    \r\n    event UserRegister(address indexed EthAddress, bytes32 Name);\r\n    event UserRoleRevoked(address indexed EthAddress, bytes32 Name, uint Role);\r\n    event UserRoleRessigne(address indexed EthAddress, bytes32 Name, uint Role);\r\n    \r\n    function registerUser(\r\n        address EthAddress, \r\n        bytes32 Name, \r\n        bytes32 Location, \r\n        uint Role\r\n        ) public \r\n        onlyOwner \r\n        {\r\n        require(UsersDetails[EthAddress].role == roles.norole, \"User Already registered\");\r\n        UsersDetails[EthAddress].name = Name;\r\n        UsersDetails[EthAddress].location = Location;\r\n        UsersDetails[EthAddress].ethAddress = EthAddress;\r\n        UsersDetails[EthAddress].role = roles(Role);\r\n        users.push(EthAddress);\r\n        emit UserRegister(EthAddress, Name);\r\n    }\r\n    function revokeRole(address userAddress) public onlyOwner {\r\n        require(UsersDetails[userAddress].role != roles.norole, \"User not registered\");\r\n        emit UserRoleRevoked(userAddress, UsersDetails[userAddress].name,uint(UsersDetails[userAddress].role));\r\n        UsersDetails[userAddress].role = roles(7);\r\n    }\r\n    function reassigneRole(address userAddress, uint Role) public onlyOwner {\r\n        require(UsersDetails[userAddress].role != roles.norole, \"User not registered\");\r\n        UsersDetails[userAddress].role = roles(Role);\r\n        emit UserRoleRessigne(userAddress, UsersDetails[userAddress].name,uint(UsersDetails[userAddress].role));\r\n    }\r\n/********************************************** User Section **********************************************/\r\n    struct UserInfo {\r\n        bytes32 name;\r\n        bytes32 location;\r\n        address ethAddress;\r\n        roles role;\r\n    }\r\n\r\n    mapping(address => UserInfo) UsersDetails;\r\n    address[] users;\r\n\r\n    function getUserInfo(address User) public view returns(\r\n        bytes32 name,\r\n        bytes32 location,\r\n        address ethAddress,\r\n        roles role\r\n        ) {\r\n        return (\r\n            UsersDetails[User].name,\r\n            UsersDetails[User].location,\r\n            UsersDetails[User].ethAddress,\r\n            UsersDetails[User].role);\r\n    }\r\n\r\n    function getUsersCount() public view returns(uint count){\r\n        return users.length;\r\n    }\r\n\r\n    function getUserbyIndex(uint index) public view returns(\r\n        bytes32 name,\r\n        bytes32 location,\r\n        address ethAddress,\r\n        roles role\r\n        ) {\r\n        return getUserInfo(users[index]);    \r\n    }\r\n/********************************************** Supplier Section ******************************************/\r\n    enum packageStatus { atcreator, picked, delivered}\r\n    struct RawProductInfo {\r\n        bytes32 productid;\r\n        bytes32 description;\r\n        bytes32 farmer_name;\r\n        bytes32 location;\r\n        uint quantity;\r\n        address shipper;\r\n        address receiver;\r\n        address supplier;\r\n        packageStatus status;\r\n        // bytes32 transporter_route;\r\n        bytes32 packageReceiverDescription;\r\n    }\r\n\r\n    mapping(bytes32 => RawProductInfo) RawProductDetails;\r\n    mapping(address => bytes32[]) supplierRawProductInfo;\r\n\r\n    event RawSupplyInit(\r\n        bytes32 indexed ProductID, \r\n        address indexed Supplier, \r\n        address Shipper, \r\n        address indexed Receiver\r\n    );\r\n\r\n    function supplyRaw(\r\n        bytes32 Description, \r\n        bytes32 FarmerName, \r\n        bytes32 Location, \r\n        uint Quantity, \r\n        address Shipper, \r\n        address Receiver\r\n        ) public {\r\n        require(\r\n            UsersDetails[msg.sender].role == roles.supplier, \r\n            \"Only Supplier Can call this function \"\r\n        );\r\n        bytes32 pid = keccak256(abi.encodePacked(msg.sender, block.number, Quantity));\r\n        RawProductDetails[pid].productid = pid;\r\n        RawProductDetails[pid].description = Description;\r\n        RawProductDetails[pid].farmer_name = FarmerName;\r\n        RawProductDetails[pid].location = Location;\r\n        RawProductDetails[pid].quantity = Quantity;\r\n        RawProductDetails[pid].shipper = Shipper;\r\n        RawProductDetails[pid].receiver = Receiver;\r\n        RawProductDetails[pid].supplier = msg.sender;\r\n        RawProductDetails[pid].status = packageStatus(0);\r\n\r\n        supplierRawProductInfo[msg.sender].push(pid);\r\n        emit RawSupplyInit(pid, msg.sender, Shipper, Receiver);\r\n    }\r\n\r\n    function getCountOfProducts() public view returns (uint count){\r\n        require(\r\n            UsersDetails[msg.sender].role == roles.supplier, \r\n            \"Only Supplier Can call this function \"\r\n        );\r\n        return supplierRawProductInfo[msg.sender].length;\r\n    }\r\n\r\n    function getProductIdByIndex(uint index) public view returns(bytes32 BatchID) {\r\n        require(\r\n            UsersDetails[msg.sender].role == roles.supplier, \r\n            \"Only Supplier Can call this function \"\r\n        );\r\n        return supplierRawProductInfo[msg.sender][index];\r\n    }\r\n\r\n    function getSupplyRaw(\r\n        bytes32 pid\r\n        ) public\r\n        view\r\n        returns(\r\n            bytes32 description,\r\n            bytes32 farmer_name,\r\n            bytes32 location,\r\n            uint quantity,\r\n            address shipper,\r\n            address receiver,\r\n            address supplier\r\n        ) {\r\n        return(\r\n            RawProductDetails[pid].description,\r\n            RawProductDetails[pid].farmer_name,\r\n            RawProductDetails[pid].location,\r\n            RawProductDetails[pid].quantity,\r\n            RawProductDetails[pid].shipper,\r\n            RawProductDetails[pid].receiver,\r\n            RawProductDetails[pid].supplier\r\n        );\r\n    }\r\n\r\n    function getStatusOfRawMatrials(\r\n        bytes32 pid\r\n    ) public\r\n    view\r\n    returns(\r\n        uint status\r\n    ) {\r\n        return uint(RawProductDetails[pid].status);\r\n    }\r\n/********************************************** Transporter Section ***************************************/\r\n    event ShippmentUpdate(\r\n        bytes32 indexed BatchId, \r\n        address indexed Shipper, \r\n        address indexed receiver, \r\n        uint transportertype, \r\n        uint status\r\n    );\r\n\r\n    function loadpacakage(bytes32 pid, uint transportertype, uint receivertype) public {\r\n        require(\r\n            UsersDetails[msg.sender].role == roles.transporter,\r\n            \"Only Transporter can call this function\"\r\n        );\r\n        require(\r\n            transportertype > 0,\r\n            \"Transporter Type must be define\"\r\n        );\r\n\r\n        if(transportertype == 1) {  // Supplier to Manufacturer\r\n            require(\r\n                msg.sender == RawProductDetails[pid].shipper,\r\n                \"Transporter is other user\"\r\n            );\r\n            RawProductDetails[pid].status = packageStatus(1);\r\n            emit ShippmentUpdate(pid, msg.sender, RawProductDetails[pid].receiver,1,1);\r\n        } else if(transportertype == 2) {   // Manufacturer to Wholesaler OR Manufacturer to Distributer\r\n            require(\r\n                msg.sender == MedicineBatchDetails[pid].shipper,\r\n                \"Transporter is other user\"\r\n            );\r\n            require(receivertype != 0,\"Receiver Type must be define\");\r\n            MedicineBatchDetails[pid].status = medicineStatus(receivertype);\r\n            if(receivertype == 1){\r\n                emit ShippmentUpdate(pid, msg.sender, MedicineBatchDetails[pid].wholesaler,2,1);\r\n            } else if(receivertype == 2){\r\n                emit ShippmentUpdate(pid, msg.sender, MedicineBatchDetails[pid].manufacturer,2,2);\r\n            }\r\n        } else if(transportertype == 3) {   // Wholesaler to Distributer\r\n            require(\r\n                msg.sender == MedicineWtoD[pid].shipper,\r\n                \"Transporter is other user\"\r\n            );\r\n            MedicineWtoD[pid].status = packageStatus(1);\r\n            emit ShippmentUpdate(pid, msg.sender, MedicineWtoD[pid].receiver,1,1);\r\n        } else if(transportertype == 4) {   // Distrubuter to Pharma\r\n            require(\r\n                msg.sender == MedicineDtoR[pid].shipper,\r\n                \"Transporter is other user\"\r\n            );\r\n            MedicineDtoR[pid].status = packageStatus(1);\r\n            MedicineBatchDetails[pid].status = medicineStatus(5);\r\n            emit ShippmentUpdate(pid, msg.sender, MedicineDtoR[pid].receiver,1,1);\r\n        }\r\n    }\r\n/********************************************** Manufacturer Section **************************************/\r\n    mapping(address => bytes32[]) RawProductAtManufacturer;\r\n    // mapping(address => mapping(bytes32 => RawProductInfo)) RawProductDetailsAtManufacturer;\r\n\r\n    enum medicineStatus { atcreator, picked4W, picked4D, deliveredatW, deliveredatD, picked4P, deliveredatP}\r\n    \r\n    event RawProductReceive(\r\n        bytes32 indexed BatchID, \r\n        address indexed shipper, \r\n        address indexed supplier,\r\n        address receiver\r\n    );\r\n\r\n    function rawProductReceived(bytes32 pid) public {\r\n        require(\r\n            UsersDetails[msg.sender].role == roles.manufacturer,\r\n            \"Only manufacturer can call this function\"\r\n        );\r\n        require(\r\n            RawProductDetails[pid].productid == pid,\r\n            \"Product does not exist\"\r\n        );\r\n        require(\r\n            RawProductDetails[pid].status == packageStatus(1),\r\n            \"Product not picked up yet\"\r\n        );\r\n        require(\r\n            msg.sender == RawProductDetails[pid].receiver,\r\n            \"Manufacturer is different\"\r\n        );\r\n        RawProductDetails[pid].status = packageStatus(2);\r\n        // RawProductDetailsAtManufacturer[msg.sender][pid] = RawProductDetails[pid];\r\n\r\n        RawProductAtManufacturer[msg.sender].push(pid);\r\n        emit RawProductReceive(pid,RawProductDetails[pid].shipper, RawProductDetails[pid].supplier, msg.sender);\r\n    }\r\n\r\n    struct MedicineBatch{\r\n        bytes32 batchid;\r\n        bytes32 description;\r\n        bytes32 rawmatriales;\r\n        uint quantity;\r\n        address shipper;\r\n        address manufacturer;\r\n        address wholesaler;\r\n        address distributer;\r\n        address pharma;\r\n        medicineStatus status;\r\n    }\r\n\r\n    mapping(bytes32 => MedicineBatch) MedicineBatchDetails;\r\n    mapping(address => bytes32[]) ManufacturerMedicineBatches;\r\n\r\n    event MadicineNewBatch(\r\n        bytes32 indexed BatchId, \r\n        address indexed Manufacturer, \r\n        address shipper, \r\n        address indexed Reciever\r\n    );\r\n\r\n    function newBatch(\r\n        bytes32 Description,\r\n        bytes32 RawMatrials,\r\n        uint Quantity,\r\n        address Shipper,\r\n        address Receiver,\r\n        uint receivertype\r\n        ) public {\r\n    \r\n        require(\r\n            UsersDetails[msg.sender].role == roles.manufacturer,\r\n            \"Only manufacturer can call this function\"\r\n        );\r\n        require(\r\n            receivertype != 0,\r\n            \"Receiver Type must be define\"\r\n        );\r\n        bytes32 batchID = keccak256(abi.encodePacked(msg.sender, block.number, Quantity));\r\n        MedicineBatchDetails[batchID].batchid = batchID;\r\n        MedicineBatchDetails[batchID].description = Description;\r\n        MedicineBatchDetails[batchID].rawmatriales = RawMatrials;\r\n        MedicineBatchDetails[batchID].quantity = Quantity;\r\n        MedicineBatchDetails[batchID].shipper = Shipper;\r\n        MedicineBatchDetails[batchID].manufacturer = msg.sender;\r\n        MedicineBatchDetails[batchID].status = medicineStatus(0);\r\n        if(receivertype == 1){\r\n            MedicineBatchDetails[batchID].wholesaler = Receiver;\r\n        } else if(receivertype == 2){\r\n            MedicineBatchDetails[batchID].distributer = Receiver;\r\n        }\r\n\r\n        ManufacturerMedicineBatches[msg.sender].push(batchID);\r\n\r\n        emit MadicineNewBatch(batchID, msg.sender, Shipper, Receiver);\r\n    }\r\n\r\n    function getMadicineBatchCount() public view returns (uint count){\r\n        require(\r\n            UsersDetails[msg.sender].role == roles.manufacturer,\r\n            \"Only manufacturer can call this function\"\r\n        );\r\n        return RawProductAtManufacturer[msg.sender].length;\r\n    }\r\n\r\n    function getBatchIDByIndex(uint index) public view returns(bytes32 BatchID){\r\n        require(\r\n            UsersDetails[msg.sender].role == roles.manufacturer,\r\n            \"Only manufacturer can call this function\"\r\n        );\r\n        return RawProductAtManufacturer[msg.sender][index];\r\n    }\r\n\r\n    function getMadicineInfo(\r\n        bytes32 batchID\r\n    ) public \r\n    view\r\n    returns(\r\n        bytes32 Description,\r\n        bytes32 RawMatrials,\r\n        uint Quantity,\r\n        address Shipper,\r\n        address Manufacturer\r\n    ) {\r\n        return (\r\n            MedicineBatchDetails[batchID].description,\r\n            MedicineBatchDetails[batchID].rawmatriales,\r\n            MedicineBatchDetails[batchID].quantity,\r\n            MedicineBatchDetails[batchID].shipper,\r\n            MedicineBatchDetails[batchID].manufacturer\r\n        );\r\n    }\r\n\r\n    function getWDP(\r\n        bytes32 batchID\r\n    ) public\r\n    view\r\n    returns(\r\n        address Wholesaler,\r\n        address Distributer,\r\n        address Pharma\r\n    ) {\r\n        return (\r\n            MedicineBatchDetails[batchID].wholesaler,\r\n            MedicineBatchDetails[batchID].distributer,\r\n            MedicineBatchDetails[batchID].pharma\r\n        );\r\n    }\r\n\r\n    function getMedicineStatus(\r\n        bytes32 BatchID\r\n    ) public\r\n    view\r\n    returns (\r\n        uint status\r\n    ){\r\n        return uint(MedicineBatchDetails[BatchID].status);\r\n    }\r\n/********************************************** Wholesaler Section ****************************************/\r\n\r\n    mapping(address => bytes32[]) MedicineBatchAtWholesaler;\r\n\r\n    event MedicineReceive(\r\n        bytes32 indexed BathcID, \r\n        address indexed Sender,\r\n        address indexed Shipper,\r\n        address Receiver\r\n    );\r\n\r\n    function medicineReceived(bytes32 pid) public {\r\n        require(\r\n            UsersDetails[msg.sender].role == roles.wholesaler || UsersDetails[msg.sender].role == roles.distributer,\r\n            \"Only Wholesaler and Distributer can call this function\"\r\n        );\r\n        require(\r\n            MedicineBatchDetails[pid].batchid == pid,\r\n            \"Product does not exist\"\r\n        );\r\n        require(\r\n            uint(MedicineBatchDetails[pid].status) >= 1,\r\n            \"Product not picked up yet\"\r\n        );\r\n        \r\n        MedicineBatchDetails[pid].status = medicineStatus(uint(UsersDetails[msg.sender].role)-1);\r\n        if(UsersDetails[msg.sender].role == roles.wholesaler) {\r\n            require(\r\n                msg.sender == MedicineBatchDetails[pid].wholesaler,\r\n                \"Wholesaler is different\"\r\n            );\r\n            MedicineBatchAtWholesaler[msg.sender].push(pid);\r\n            emit MedicineReceive(pid, MedicineBatchDetails[pid].manufacturer, MedicineBatchDetails[pid].shipper,msg.sender);\r\n        }else if(UsersDetails[msg.sender].role == roles.distributer){\r\n            require(\r\n                msg.sender == MedicineBatchDetails[pid].distributer,\r\n                \"Distributer is different\"\r\n            );\r\n            if(MedicineBatchDetails[pid].wholesaler!=address(0)){\r\n                MedicineWtoD[pid].status = packageStatus(2);\r\n                emit MedicineReceive(pid, MedicineWtoD[pid].sender, MedicineWtoD[pid].shipper,msg.sender);\r\n            }else{\r\n                emit MedicineReceive(pid, MedicineBatchDetails[pid].manufacturer, MedicineBatchDetails[pid].shipper,msg.sender);\r\n            }\r\n            MedicineBatchAtDistributer[msg.sender].push(pid);\r\n        }\r\n        \r\n    }\r\n\r\n    struct Medicine_WtoD{\r\n        bytes32 batchid;\r\n        address sender;\r\n        address shipper;\r\n        address receiver;\r\n        packageStatus status;\r\n    }\r\n    mapping(bytes32 => Medicine_WtoD) MedicineWtoD;\r\n\r\n    event MedicineTransportWtoD(\r\n        bytes32 indexed BatchID,\r\n        address indexed Shipper,\r\n        address indexed Receiver,\r\n        address Sender\r\n    );\r\n\r\n    function shipMedicineWtoD(\r\n        bytes32 BatchID,\r\n        address Shipper,\r\n        address Receiver\r\n    ) public \r\n    {\r\n        require(\r\n            UsersDetails[msg.sender].role == roles.wholesaler && msg.sender == MedicineBatchDetails[BatchID].wholesaler,\r\n            \"Only Wholesaler or current owner of package can call this function\"\r\n        );\r\n        MedicineWtoD[BatchID].batchid = BatchID;\r\n        MedicineWtoD[BatchID].shipper = Shipper;\r\n        MedicineWtoD[BatchID].receiver = Receiver;\r\n        MedicineWtoD[BatchID].status = packageStatus(0);\r\n        MedicineWtoD[BatchID].sender = msg.sender;\r\n        MedicineBatchDetails[BatchID].distributer = Receiver;\r\n        MedicineBatchDetails[BatchID].status = medicineStatus(2);\r\n        \r\n        emit MedicineTransportWtoD(BatchID, Shipper, Receiver, msg.sender);\r\n    }\r\n\r\n    function shipInfoWtoD(\r\n        bytes32 BatchID\r\n    ) public\r\n    view\r\n    returns(\r\n        address shipper,\r\n        address receiver,\r\n        uint status\r\n    ) {\r\n        return (\r\n            MedicineWtoD[BatchID].shipper,\r\n            MedicineWtoD[BatchID].receiver,\r\n            uint(MedicineWtoD[BatchID].status)\r\n        );\r\n    }\r\n\r\n    function getBatchIdCountW() public view returns(uint count){\r\n        require(\r\n            UsersDetails[msg.sender].role == roles.wholesaler,\r\n            \"Only Wholesaler or current owner of package can call this function\"\r\n        );\r\n        return  MedicineBatchAtWholesaler[msg.sender].length;\r\n    }\r\n\r\n    function getBatchIdByIndexW(uint index) public view returns(bytes32 BatchID){\r\n        require(\r\n            UsersDetails[msg.sender].role == roles.wholesaler,\r\n            \"Only Wholesaler or current owner of package can call this function\"\r\n        );\r\n        return MedicineBatchAtWholesaler[msg.sender][index];\r\n    }\r\n\r\n/********************************************** Distributer Section ***************************************/\r\n    mapping(address => bytes32[]) MedicineBatchAtDistributer;\r\n\r\n    event MedicineShipToPharma(\r\n        bytes32 indexed BatchID,\r\n        address indexed Shipper,\r\n        address indexed Receiver,\r\n        address Sender\r\n    );\r\n\r\n    struct Medicine_DtoR{\r\n        bytes32 batchid;\r\n        address shipper;\r\n        address receiver;\r\n        address sender;\r\n        packageStatus status;\r\n    }\r\n    mapping(bytes32 => Medicine_DtoR) MedicineDtoR;\r\n\r\n    function shipMedicineDtoP(\r\n        bytes32 BatchID,\r\n        address Shipper,\r\n        address Receiver\r\n    ) public \r\n    {\r\n        require(\r\n            UsersDetails[msg.sender].role == roles.distributer && msg.sender == MedicineBatchDetails[BatchID].distributer,\r\n            \"Only Distributer or current owner of package can call this function\"\r\n        );\r\n        MedicineDtoR[BatchID].batchid = BatchID;\r\n        MedicineDtoR[BatchID].shipper = Shipper;\r\n        MedicineDtoR[BatchID].receiver = Receiver;\r\n        MedicineDtoR[BatchID].status = packageStatus(0);\r\n        MedicineDtoR[BatchID].sender = msg.sender;\r\n        MedicineBatchDetails[BatchID].pharma = Receiver;\r\n        // MedicineBatchDetails[BatchID].status = medicineStatus(5);\r\n\r\n        emit MedicineShipToPharma(BatchID, Shipper, Receiver, msg.sender);\r\n    }\r\n\r\n    function shipInfoDtoP(\r\n        bytes32 BatchID\r\n    ) public\r\n    view\r\n    returns(\r\n        address shipper,\r\n        address receiver,\r\n        uint status\r\n    ) {\r\n        return (\r\n            MedicineDtoR[BatchID].shipper,\r\n            MedicineDtoR[BatchID].receiver,\r\n            uint(MedicineDtoR[BatchID].status)\r\n        );\r\n    }\r\n\r\n    function getBatchIdCountD() public view returns(uint count){\r\n        require(\r\n            UsersDetails[msg.sender].role == roles.distributer,\r\n            \"Only Wholesaler or current owner of package can call this function\"\r\n        );\r\n        return  MedicineBatchAtDistributer[msg.sender].length;\r\n    }\r\n\r\n    function getBatchIdByIndexD(uint index) public view returns(bytes32 BatchID){\r\n        require(\r\n            UsersDetails[msg.sender].role == roles.distributer,\r\n            \"Only Wholesaler or current owner of package can call this function\"\r\n        );\r\n        return MedicineBatchAtDistributer[msg.sender][index];\r\n    }\r\n/********************************************** Pharma Section ******************************************/\r\n    enum salestatus{ notfound, atpharma, sold, expire, damaged}\r\n    mapping(address => bytes32[]) MedicineBatchAtPharma;\r\n    mapping(bytes32 => salestatus) sale;\r\n\r\n    event MedicineReceiveAtPharma(\r\n        bytes32 indexed BatchID,\r\n        address indexed Shipper,\r\n        address indexed Sender,\r\n        address Receiver\r\n    );\r\n    event MedicineStatus(\r\n        bytes32 BatchID,\r\n        address indexed Pharma,\r\n        uint status\r\n    );\r\n\r\n    function receiveMedicineFormD(\r\n        bytes32 BatchID\r\n    ) public {\r\n        require(\r\n            UsersDetails[msg.sender].role == roles.pharma && msg.sender == MedicineBatchDetails[BatchID].pharma,\r\n            \"Only Pharma or current owner of package can call this function\"\r\n        );\r\n        MedicineDtoR[BatchID].status = packageStatus(2);\r\n        MedicineBatchDetails[BatchID].status = medicineStatus(6);\r\n        MedicineBatchAtPharma[msg.sender].push(BatchID);\r\n        sale[BatchID] = salestatus(1);\r\n\r\n        emit MedicineReceiveAtPharma(BatchID, MedicineDtoR[BatchID].shipper, MedicineDtoR[BatchID].sender, msg.sender);\r\n    }\r\n\r\n    function updateSaleStatus(\r\n        bytes32 BatchID,\r\n        uint Status\r\n    ) public {\r\n        require(\r\n            UsersDetails[msg.sender].role == roles.pharma && msg.sender == MedicineBatchDetails[BatchID].pharma,\r\n            \"Only Pharma or current owner of package can call this function\"\r\n        );\r\n        require(sale[BatchID] == salestatus(1), \"Medicine Must be at Pharma\");\r\n        sale[BatchID] = salestatus(Status);\r\n\r\n        emit MedicineStatus(BatchID, msg.sender, Status);\r\n    }\r\n\r\n    function salesInfo(\r\n        bytes32 BatchID\r\n    ) public \r\n    view\r\n    returns(\r\n        uint Status\r\n    ){\r\n        return uint(sale[BatchID]);\r\n    }\r\n\r\n    function getBatchIdCountP() public view returns(uint count){\r\n        require(\r\n            UsersDetails[msg.sender].role == roles.pharma,\r\n            \"Only Wholesaler or current owner of package can call this function\"\r\n        );\r\n        return  MedicineBatchAtPharma[msg.sender].length;\r\n    }\r\n\r\n    function getBatchIdByIndexP(uint index) public view returns(bytes32 BatchID){\r\n        require(\r\n            UsersDetails[msg.sender].role == roles.pharma,\r\n            \"Only Wholesaler or current owner of package can call this function\"\r\n        );\r\n        return MedicineBatchAtPharma[msg.sender][index];\r\n    }\r\n}",
  "sourcePath": "D:/blockchain/hack/contracts/SupplyChain_old.sol",
  "compiler": {
    "name": "solc",
    "version": "0.5.12+commit.7709ece9.Emscripten.clang"
  },
  "schemaVersion": "3.0.0",
  "updatedAt": "2020-05-03T12:12:18.639Z",
  "devdoc": {
    "methods": {}
  },
  "userdoc": {
    "methods": {}
  }
}