{
  "contractName": "SupplyChain",
  "abi": [
    {
      "inputs": [],
      "payable": false,
      "stateMutability": "nonpayable",
      "type": "constructor",
      "signature": "constructor"
    },
    {
      "anonymous": false,
      "inputs": [
        {
          "indexed": true,
          "internalType": "address",
          "name": "BatchId",
          "type": "address"
        },
        {
          "indexed": true,
          "internalType": "address",
          "name": "Manufacturer",
          "type": "address"
        },
        {
          "indexed": false,
          "internalType": "address",
          "name": "shipper",
          "type": "address"
        },
        {
          "indexed": true,
          "internalType": "address",
          "name": "Receiver",
          "type": "address"
        }
      ],
      "name": "MadicineNewBatch",
      "type": "event",
      "signature": "0x3279bc96fc4eda86f9fb5456b29ecd9eea4e798e299023b438f7025e6760d5f2"
    },
    {
      "anonymous": false,
      "inputs": [
        {
          "indexed": false,
          "internalType": "address",
          "name": "BatchID",
          "type": "address"
        },
        {
          "indexed": true,
          "internalType": "address",
          "name": "Pharma",
          "type": "address"
        },
        {
          "indexed": false,
          "internalType": "uint256",
          "name": "status",
          "type": "uint256"
        }
      ],
      "name": "MadicineStatus",
      "type": "event",
      "signature": "0x7e0150eb126a0bad6138f448f48f826cabdf937aac9ffdcefbba62cae222332e"
    },
    {
      "anonymous": false,
      "inputs": [
        {
          "indexed": true,
          "internalType": "address",
          "name": "ProductID",
          "type": "address"
        },
        {
          "indexed": true,
          "internalType": "address",
          "name": "Supplier",
          "type": "address"
        },
        {
          "indexed": false,
          "internalType": "address",
          "name": "Shipper",
          "type": "address"
        },
        {
          "indexed": true,
          "internalType": "address",
          "name": "Receiver",
          "type": "address"
        }
      ],
      "name": "RawSupplyInit",
      "type": "event",
      "signature": "0x9dbe7d9fdd28b9b1c2ffe79a40f7beff124537ed0d7a47555d009e0271fc6133"
    },
    {
      "anonymous": false,
      "inputs": [
        {
          "indexed": true,
          "internalType": "address",
          "name": "EthAddress",
          "type": "address"
        },
        {
          "indexed": false,
          "internalType": "bytes32",
          "name": "Name",
          "type": "bytes32"
        }
      ],
      "name": "UserRegister",
      "type": "event",
      "signature": "0x33a7170f028b1e4f5ba321064a00ed820856a920c7f9c6636fbcf385427b1b0f"
    },
    {
      "anonymous": false,
      "inputs": [
        {
          "indexed": true,
          "internalType": "address",
          "name": "EthAddress",
          "type": "address"
        },
        {
          "indexed": false,
          "internalType": "bytes32",
          "name": "Name",
          "type": "bytes32"
        },
        {
          "indexed": false,
          "internalType": "uint256",
          "name": "Role",
          "type": "uint256"
        }
      ],
      "name": "UserRoleRessigne",
      "type": "event",
      "signature": "0x4c8b3f61ed94356876db0fec52d6a7c6aeaf772c4e0ca8f6da74331cc0f687cc"
    },
    {
      "anonymous": false,
      "inputs": [
        {
          "indexed": true,
          "internalType": "address",
          "name": "EthAddress",
          "type": "address"
        },
        {
          "indexed": false,
          "internalType": "bytes32",
          "name": "Name",
          "type": "bytes32"
        },
        {
          "indexed": false,
          "internalType": "uint256",
          "name": "Role",
          "type": "uint256"
        }
      ],
      "name": "UserRoleRevoked",
      "type": "event",
      "signature": "0xb5f04dfc1ccfefb366c4dc7a23670362462e0a415afb89d8cba1fb657e264c96"
    },
    {
      "constant": true,
      "inputs": [],
      "name": "Owner",
      "outputs": [
        {
          "internalType": "address",
          "name": "",
          "type": "address"
        }
      ],
      "payable": false,
      "stateMutability": "view",
      "type": "function",
      "signature": "0xb4a99a4e"
    },
    {
      "constant": false,
      "inputs": [
        {
          "internalType": "address",
          "name": "EthAddress",
          "type": "address"
        },
        {
          "internalType": "bytes32",
          "name": "Name",
          "type": "bytes32"
        },
        {
          "internalType": "bytes32",
          "name": "Location",
          "type": "bytes32"
        },
        {
          "internalType": "uint256",
          "name": "Role",
          "type": "uint256"
        }
      ],
      "name": "registerUser",
      "outputs": [],
      "payable": false,
      "stateMutability": "nonpayable",
      "type": "function",
      "signature": "0x923f645a"
    },
    {
      "constant": false,
      "inputs": [
        {
          "internalType": "address",
          "name": "userAddress",
          "type": "address"
        }
      ],
      "name": "revokeRole",
      "outputs": [],
      "payable": false,
      "stateMutability": "nonpayable",
      "type": "function",
      "signature": "0x80e52e3f"
    },
    {
      "constant": false,
      "inputs": [
        {
          "internalType": "address",
          "name": "userAddress",
          "type": "address"
        },
        {
          "internalType": "uint256",
          "name": "Role",
          "type": "uint256"
        }
      ],
      "name": "reassigneRole",
      "outputs": [],
      "payable": false,
      "stateMutability": "nonpayable",
      "type": "function",
      "signature": "0x373d5c18"
    },
    {
      "constant": true,
      "inputs": [
        {
          "internalType": "address",
          "name": "User",
          "type": "address"
        }
      ],
      "name": "getUserInfo",
      "outputs": [
        {
          "internalType": "bytes32",
          "name": "name",
          "type": "bytes32"
        },
        {
          "internalType": "bytes32",
          "name": "location",
          "type": "bytes32"
        },
        {
          "internalType": "address",
          "name": "ethAddress",
          "type": "address"
        },
        {
          "internalType": "enum SupplyChain.roles",
          "name": "role",
          "type": "uint8"
        }
      ],
      "payable": false,
      "stateMutability": "view",
      "type": "function",
      "signature": "0x6386c1c7"
    },
    {
      "constant": true,
      "inputs": [],
      "name": "getUsersCount",
      "outputs": [
        {
          "internalType": "uint256",
          "name": "count",
          "type": "uint256"
        }
      ],
      "payable": false,
      "stateMutability": "view",
      "type": "function",
      "signature": "0xa4a1e263"
    },
    {
      "constant": true,
      "inputs": [
        {
          "internalType": "uint256",
          "name": "index",
          "type": "uint256"
        }
      ],
      "name": "getUserbyIndex",
      "outputs": [
        {
          "internalType": "bytes32",
          "name": "name",
          "type": "bytes32"
        },
        {
          "internalType": "bytes32",
          "name": "location",
          "type": "bytes32"
        },
        {
          "internalType": "address",
          "name": "ethAddress",
          "type": "address"
        },
        {
          "internalType": "enum SupplyChain.roles",
          "name": "role",
          "type": "uint8"
        }
      ],
      "payable": false,
      "stateMutability": "view",
      "type": "function",
      "signature": "0x108329f8"
    },
    {
      "constant": false,
      "inputs": [
        {
          "internalType": "bytes32",
          "name": "Des",
          "type": "bytes32"
        },
        {
          "internalType": "bytes32",
          "name": "FN",
          "type": "bytes32"
        },
        {
          "internalType": "bytes32",
          "name": "Loc",
          "type": "bytes32"
        },
        {
          "internalType": "uint256",
          "name": "Quant",
          "type": "uint256"
        },
        {
          "internalType": "address",
          "name": "Shpr",
          "type": "address"
        },
        {
          "internalType": "address",
          "name": "Rcvr",
          "type": "address"
        }
      ],
      "name": "createRawPackage",
      "outputs": [],
      "payable": false,
      "stateMutability": "nonpayable",
      "type": "function",
      "signature": "0xd40da967"
    },
    {
      "constant": true,
      "inputs": [],
      "name": "getPackagesCountS",
      "outputs": [
        {
          "internalType": "uint256",
          "name": "count",
          "type": "uint256"
        }
      ],
      "payable": false,
      "stateMutability": "view",
      "type": "function",
      "signature": "0x2becfd04"
    },
    {
      "constant": true,
      "inputs": [
        {
          "internalType": "uint256",
          "name": "index",
          "type": "uint256"
        }
      ],
      "name": "getPackageIdByIndexS",
      "outputs": [
        {
          "internalType": "address",
          "name": "packageID",
          "type": "address"
        }
      ],
      "payable": false,
      "stateMutability": "view",
      "type": "function",
      "signature": "0x5e33cea4"
    },
    {
      "constant": false,
      "inputs": [
        {
          "internalType": "address",
          "name": "pid",
          "type": "address"
        },
        {
          "internalType": "uint256",
          "name": "transportertype",
          "type": "uint256"
        },
        {
          "internalType": "address",
          "name": "cid",
          "type": "address"
        }
      ],
      "name": "loadConsingment",
      "outputs": [],
      "payable": false,
      "stateMutability": "nonpayable",
      "type": "function",
      "signature": "0x73f08eb3"
    },
    {
      "constant": false,
      "inputs": [
        {
          "internalType": "address",
          "name": "pid",
          "type": "address"
        }
      ],
      "name": "rawPackageReceived",
      "outputs": [],
      "payable": false,
      "stateMutability": "nonpayable",
      "type": "function",
      "signature": "0xbc8c5b1c"
    },
    {
      "constant": true,
      "inputs": [],
      "name": "getPackagesCountM",
      "outputs": [
        {
          "internalType": "uint256",
          "name": "count",
          "type": "uint256"
        }
      ],
      "payable": false,
      "stateMutability": "view",
      "type": "function",
      "signature": "0x9fb3a903"
    },
    {
      "constant": true,
      "inputs": [
        {
          "internalType": "uint256",
          "name": "index",
          "type": "uint256"
        }
      ],
      "name": "getPackageIDByIndexM",
      "outputs": [
        {
          "internalType": "address",
          "name": "BatchID",
          "type": "address"
        }
      ],
      "payable": false,
      "stateMutability": "view",
      "type": "function",
      "signature": "0x0bcc7568"
    },
    {
      "constant": false,
      "inputs": [
        {
          "internalType": "bytes32",
          "name": "Des",
          "type": "bytes32"
        },
        {
          "internalType": "bytes32",
          "name": "RM",
          "type": "bytes32"
        },
        {
          "internalType": "uint256",
          "name": "Quant",
          "type": "uint256"
        },
        {
          "internalType": "address",
          "name": "Shpr",
          "type": "address"
        },
        {
          "internalType": "address",
          "name": "Rcvr",
          "type": "address"
        },
        {
          "internalType": "uint256",
          "name": "RcvrType",
          "type": "uint256"
        }
      ],
      "name": "manufacturMadicine",
      "outputs": [],
      "payable": false,
      "stateMutability": "nonpayable",
      "type": "function",
      "signature": "0x9856f6b3"
    },
    {
      "constant": true,
      "inputs": [],
      "name": "getBatchesCountM",
      "outputs": [
        {
          "internalType": "uint256",
          "name": "count",
          "type": "uint256"
        }
      ],
      "payable": false,
      "stateMutability": "view",
      "type": "function",
      "signature": "0x3d66f86d"
    },
    {
      "constant": true,
      "inputs": [
        {
          "internalType": "uint256",
          "name": "index",
          "type": "uint256"
        }
      ],
      "name": "getBatchIdByIndexM",
      "outputs": [
        {
          "internalType": "address",
          "name": "packageID",
          "type": "address"
        }
      ],
      "payable": false,
      "stateMutability": "view",
      "type": "function",
      "signature": "0x986c9139"
    },
    {
      "constant": false,
      "inputs": [
        {
          "internalType": "address",
          "name": "batchid",
          "type": "address"
        },
        {
          "internalType": "address",
          "name": "cid",
          "type": "address"
        }
      ],
      "name": "madicineReceived",
      "outputs": [],
      "payable": false,
      "stateMutability": "nonpayable",
      "type": "function",
      "signature": "0x2246e4d4"
    },
    {
      "constant": false,
      "inputs": [
        {
          "internalType": "address",
          "name": "BatchID",
          "type": "address"
        },
        {
          "internalType": "address",
          "name": "Shipper",
          "type": "address"
        },
        {
          "internalType": "address",
          "name": "Receiver",
          "type": "address"
        }
      ],
      "name": "transferMadicineWtoD",
      "outputs": [],
      "payable": false,
      "stateMutability": "nonpayable",
      "type": "function",
      "signature": "0xe95690aa"
    },
    {
      "constant": true,
      "inputs": [],
      "name": "getBatchesCountWD",
      "outputs": [
        {
          "internalType": "uint256",
          "name": "count",
          "type": "uint256"
        }
      ],
      "payable": false,
      "stateMutability": "view",
      "type": "function",
      "signature": "0x9f696b35"
    },
    {
      "constant": true,
      "inputs": [
        {
          "internalType": "uint256",
          "name": "index",
          "type": "uint256"
        }
      ],
      "name": "getBatchIdByIndexWD",
      "outputs": [
        {
          "internalType": "address",
          "name": "packageID",
          "type": "address"
        }
      ],
      "payable": false,
      "stateMutability": "view",
      "type": "function",
      "signature": "0x9af035a3"
    },
    {
      "constant": true,
      "inputs": [
        {
          "internalType": "address",
          "name": "BatchID",
          "type": "address"
        }
      ],
      "name": "getSubContractWD",
      "outputs": [
        {
          "internalType": "address",
          "name": "SubContractWD",
          "type": "address"
        }
      ],
      "payable": false,
      "stateMutability": "view",
      "type": "function",
      "signature": "0x34759016"
    },
    {
      "constant": false,
      "inputs": [
        {
          "internalType": "address",
          "name": "BatchID",
          "type": "address"
        },
        {
          "internalType": "address",
          "name": "Shipper",
          "type": "address"
        },
        {
          "internalType": "address",
          "name": "Receiver",
          "type": "address"
        }
      ],
      "name": "transferMadicineDtoP",
      "outputs": [],
      "payable": false,
      "stateMutability": "nonpayable",
      "type": "function",
      "signature": "0xf9723eb6"
    },
    {
      "constant": true,
      "inputs": [],
      "name": "getBatchesCountDP",
      "outputs": [
        {
          "internalType": "uint256",
          "name": "count",
          "type": "uint256"
        }
      ],
      "payable": false,
      "stateMutability": "view",
      "type": "function",
      "signature": "0x884b9c52"
    },
    {
      "constant": true,
      "inputs": [
        {
          "internalType": "uint256",
          "name": "index",
          "type": "uint256"
        }
      ],
      "name": "getBatchIdByIndexDP",
      "outputs": [
        {
          "internalType": "address",
          "name": "packageID",
          "type": "address"
        }
      ],
      "payable": false,
      "stateMutability": "view",
      "type": "function",
      "signature": "0xf05bcd4e"
    },
    {
      "constant": true,
      "inputs": [
        {
          "internalType": "address",
          "name": "BatchID",
          "type": "address"
        }
      ],
      "name": "getSubContractDP",
      "outputs": [
        {
          "internalType": "address",
          "name": "SubContractDP",
          "type": "address"
        }
      ],
      "payable": false,
      "stateMutability": "view",
      "type": "function",
      "signature": "0xb6c022f5"
    },
    {
      "constant": false,
      "inputs": [
        {
          "internalType": "address",
          "name": "batchid",
          "type": "address"
        },
        {
          "internalType": "address",
          "name": "cid",
          "type": "address"
        }
      ],
      "name": "madicineRecievedAtPharma",
      "outputs": [],
      "payable": false,
      "stateMutability": "nonpayable",
      "type": "function",
      "signature": "0x0cd48d81"
    },
    {
      "constant": false,
      "inputs": [
        {
          "internalType": "address",
          "name": "BatchID",
          "type": "address"
        },
        {
          "internalType": "uint256",
          "name": "Status",
          "type": "uint256"
        }
      ],
      "name": "updateSaleStatus",
      "outputs": [],
      "payable": false,
      "stateMutability": "nonpayable",
      "type": "function",
      "signature": "0xeae3c207"
    },
    {
      "constant": true,
      "inputs": [
        {
          "internalType": "address",
          "name": "BatchID",
          "type": "address"
        }
      ],
      "name": "salesInfo",
      "outputs": [
        {
          "internalType": "uint256",
          "name": "Status",
          "type": "uint256"
        }
      ],
      "payable": false,
      "stateMutability": "view",
      "type": "function",
      "signature": "0xbb8ee1c5"
    },
    {
      "constant": true,
      "inputs": [],
      "name": "getBatchesCountP",
      "outputs": [
        {
          "internalType": "uint256",
          "name": "count",
          "type": "uint256"
        }
      ],
      "payable": false,
      "stateMutability": "view",
      "type": "function",
      "signature": "0xe581762e"
    },
    {
      "constant": true,
      "inputs": [
        {
          "internalType": "uint256",
          "name": "index",
          "type": "uint256"
        }
      ],
      "name": "getBatchIdByIndexP",
      "outputs": [
        {
          "internalType": "address",
          "name": "BatchID",
          "type": "address"
        }
      ],
      "payable": false,
      "stateMutability": "view",
      "type": "function",
      "signature": "0xe5bff92a"
    }
  ],
  "bytecode": "0x608060405234801561001057600080fd5b5060008054600160a060020a0319163317905561492a806100326000396000f3fe60806040523480156200001157600080fd5b506004361062000231576000357c010000000000000000000000000000000000000000000000000000000090048063986c91391162000146578063bc8c5b1c11620000ce578063e95690aa1162000098578063e95690aa1462000651578063eae3c207146200068c578063f05bcd4e14620006bb578063f9723eb614620006db5762000231565b8063bc8c5b1c14620005b5578063d40da96714620005de578063e581762e1462000627578063e5bff92a14620006315762000231565b8063a4a1e2631162000110578063a4a1e263146200054f578063b4a99a4e1462000559578063b6c022f51462000563578063bb8ee1c5146200058c5762000231565b8063986c913914620004fb5780639af035a3146200051b5780639f696b35146200053b5780639fb3a90314620005455762000231565b80633d66f86d11620001ca57806380e52e3f116200019457806380e52e3f1462000442578063884b9c52146200046b578063923f645a14620004755780639856f6b314620004b05762000231565b80633d66f86d14620003b65780635e33cea414620003c05780636386c1c714620003e057806373f08eb314620004095762000231565b80632246e4d4116200020c5780632246e4d414620003115780632becfd04146200034257806334759016146200035e578063373d5c1814620003875762000231565b80630bcc756814620002365780630cd48d811462000272578063108329f814620002a5575b600080fd5b62000256600480360360208110156200024e57600080fd5b503562000716565b60408051600160a060020a039092168252519081900360200190f35b620002a3600480360360408110156200028a57600080fd5b50600160a060020a0381358116916020013516620007d2565b005b620002c560048036036020811015620002bd57600080fd5b50356200095f565b6040518085815260200184815260200183600160a060020a0316600160a060020a03168152602001826007811115620002fa57fe5b60ff16815260200194505050505060405180910390f35b620002a3600480360360408110156200032957600080fd5b50600160a060020a0381358116916020013516620009a1565b6200034c62000cce565b60408051918252519081900360200190f35b62000256600480360360208110156200037657600080fd5b5035600160a060020a031662000d67565b620002a3600480360360408110156200039f57600080fd5b50600160a060020a03813516906020013562000d85565b6200034c62000f6b565b6200025660048036036020811015620003d857600080fd5b503562001004565b620002c560048036036020811015620003f857600080fd5b5035600160a060020a0316620010a5565b620002a3600480360360608110156200042157600080fd5b50600160a060020a03813581169160208101359160409091013516620010f2565b620002a3600480360360208110156200045a57600080fd5b5035600160a060020a0316620013b3565b6200034c6200157a565b620002a3600480360360808110156200048d57600080fd5b50600160a060020a03813516906020810135906040810135906060013562001613565b620002a3600480360360c0811015620004c857600080fd5b50803590602081013590604081013590600160a060020a03606082013581169160808101359091169060a001356200184c565b62000256600480360360208110156200051357600080fd5b503562001a33565b62000256600480360360208110156200053357600080fd5b503562001ad4565b6200034c62001b75565b6200034c62001c0e565b6200034c62001ca7565b6200025662001cad565b62000256600480360360208110156200057b57600080fd5b5035600160a060020a031662001cbc565b6200034c60048036036020811015620005a457600080fd5b5035600160a060020a031662001cda565b620002a360048036036020811015620005cd57600080fd5b5035600160a060020a031662001d08565b620002a3600480360360c0811015620005f657600080fd5b50803590602081013590604081013590606081013590600160a060020a03608082013581169160a001351662001e52565b6200034c62001fdc565b62000256600480360360208110156200064957600080fd5b503562002075565b620002a3600480360360608110156200066957600080fd5b50600160a060020a03813581169160208101358216916040909101351662002116565b620002a360048036036040811015620006a457600080fd5b50600160a060020a03813516906020013562002304565b6200025660048036036020811015620006d357600080fd5b50356200253d565b620002a360048036036060811015620006f357600080fd5b50600160a060020a038135811691602081013582169160409091013516620025de565b600060033360009081526001602052604090206002015474010000000000000000000000000000000000000000900460ff1660078111156200075457fe5b146200079b576040516000805160206200474283398151915281526004018080602001828103825260288152602001806200481d6028913960400191505060405180910390fd5b336000908152600460205260409020805483908110620007b757fe5b600091825260209091200154600160a060020a031692915050565b60063360009081526001602052604090206002015474010000000000000000000000000000000000000000900460ff1660078111156200080e57fe5b1462000855576040516000805160206200474283398151915281526004018080602001828103825260238152602001806200471f6023913960400191505060405180910390fd5b604080517f32a60e00000000000000000000000000000000000000000000000000000000008152600160a060020a0384811660048301523360248301529151918316916332a60e009160448082019260009290919082900301818387803b158015620008c057600080fd5b505af1158015620008d5573d6000803e3d6000fd5b5050336000908152600c6020908152604082208054600180820183559184529190922001805473ffffffffffffffffffffffffffffffffffffffff1916600160a060020a0387161790559150620009299050565b600160a060020a0383166000908152600d60205260409020805460ff191660018360048111156200095657fe5b02179055505050565b60008060008062000992600286815481106200097757fe5b600091825260209091200154600160a060020a0316620010a5565b93509350935093509193509193565b60043360009081526001602052604090206002015474010000000000000000000000000000000000000000900460ff166007811115620009dd57fe5b148062000a23575060053360009081526001602052604090206002015474010000000000000000000000000000000000000000900460ff16600781111562000a2157fe5b145b62000a6957604051600080516020620047428339815191528152600401808060200182810382526036815260200180620047626036913960400191505060405180910390fd5b604080517f52b999680000000000000000000000000000000000000000000000000000000081523360048201529051600091600160a060020a038516916352b999689160248082019260209290919082900301818787803b15801562000ace57600080fd5b505af115801562000ae3573d6000803e3d6000fd5b505050506040513d602081101562000afa57600080fd5b50519050600181141562000b535733600090815260066020908152604082208054600181018255908352912001805473ffffffffffffffffffffffffffffffffffffffff1916600160a060020a03851617905562000cc9565b806002141562000cc9573360009081526006602090815260408083208054600181018255908452918320909101805473ffffffffffffffffffffffffffffffffffffffff1916600160a060020a03871690811790915581517f01a9a23e000000000000000000000000000000000000000000000000000000008152915190916301a9a23e916004808301926060929190829003018186803b15801562000bf857600080fd5b505afa15801562000c0d573d6000803e3d6000fd5b505050506040513d601f19601f82011682018060405250606081101562000c3357600080fd5b5051600160a060020a03161462000cc957604080517ff4c07229000000000000000000000000000000000000000000000000000000008152600160a060020a03858116600483015233602483015291519184169163f4c072299160448082019260009290919082900301818387803b15801562000caf57600080fd5b505af115801562000cc4573d6000803e3d6000fd5b505050505b505050565b600060013360009081526001602052604090206002015474010000000000000000000000000000000000000000900460ff16600781111562000d0c57fe5b1462000d5357604051600080516020620047428339815191528152600401808060200182810382526025815260200180620048456025913960400191505060405180910390fd5b503360009081526003602052604090205490565b600160a060020a039081166000908152600860205260409020541690565b600054600160a060020a0316331462000dd957604051600080516020620047428339815191528152600401808060200182810382526022815260200180620046ac6022913960400191505060405180910390fd5b6000600160a060020a03831660009081526001602052604090206002015474010000000000000000000000000000000000000000900460ff16600781111562000e1e57fe5b141562000e7b576040805160008051602062004742833981519152815260206004820152601360248201527f55736572206e6f74207265676973746572656400000000000000000000000000604482015290519081900360640190fd5b80600781111562000e8857fe5b600160a060020a0383166000908152600160205260409020600201805474ff000000000000000000000000000000000000000019167401000000000000000000000000000000000000000083600781111562000ee057fe5b0217905550600160a060020a038216600081815260016020526040902080546002909101547f4c8b3f61ed94356876db0fec52d6a7c6aeaf772c4e0ca8f6da74331cc0f687cc919074010000000000000000000000000000000000000000900460ff16600781111562000f4f57fe5b6040805192835260208301919091528051918290030190a25050565b600060033360009081526001602052604090206002015474010000000000000000000000000000000000000000900460ff16600781111562000fa957fe5b1462000ff057604051600080516020620047428339815191528152600401808060200182810382526029815260200180620046f66029913960400191505060405180910390fd5b503360009081526005602052604090205490565b600060013360009081526001602052604090206002015474010000000000000000000000000000000000000000900460ff1660078111156200104257fe5b146200108957604051600080516020620047428339815191528152600401808060200182810382526025815260200180620048456025913960400191505060405180910390fd5b336000908152600360205260409020805483908110620007b757fe5b600160a060020a0390811660009081526001602081905260409091208054918101546002909101549193909282169174010000000000000000000000000000000000000000900460ff1690565b60023360009081526001602052604090206002015474010000000000000000000000000000000000000000900460ff1660078111156200112e57fe5b146200117557604051600080516020620047428339815191528152600401808060200182810382526027815260200180620048cf6027913960400191505060405180910390fd5b60008211620011d4576040805160008051602062004742833981519152815260206004820152601f60248201527f5472616e73706f727465722054797065206d75737420626520646566696e6500604482015290519081900360640190fd5b81600114156200125e57604080517f638e9a3d0000000000000000000000000000000000000000000000000000000081523360048201529051600160a060020a0385169163638e9a3d91602480830192600092919082900301818387803b1580156200123f57600080fd5b505af115801562001254573d6000803e3d6000fd5b5050505062000cc9565b8160021415620012c957604080517f638e9a3d0000000000000000000000000000000000000000000000000000000081523360048201529051600160a060020a0385169163638e9a3d91602480830192600092919082900301818387803b1580156200123f57600080fd5b81600314156200133e57604080517f443c28d8000000000000000000000000000000000000000000000000000000008152600160a060020a03858116600483015233602483015291519183169163443c28d89160448082019260009290919082900301818387803b1580156200123f57600080fd5b816004141562000cc957604080517fd39ff0e7000000000000000000000000000000000000000000000000000000008152600160a060020a03858116600483015233602483015291519183169163d39ff0e79160448082019260009290919082900301818387803b15801562000caf57600080fd5b600054600160a060020a031633146200140757604051600080516020620047428339815191528152600401808060200182810382526022815260200180620046ac6022913960400191505060405180910390fd5b6000600160a060020a03821660009081526001602052604090206002015474010000000000000000000000000000000000000000900460ff1660078111156200144c57fe5b1415620014a9576040805160008051602062004742833981519152815260206004820152601360248201527f55736572206e6f74207265676973746572656400000000000000000000000000604482015290519081900360640190fd5b600160a060020a038116600081815260016020526040902080546002909101547fb5f04dfc1ccfefb366c4dc7a23670362462e0a415afb89d8cba1fb657e264c96919074010000000000000000000000000000000000000000900460ff1660078111156200151357fe5b6040805192835260208301919091528051918290030190a2600160a060020a03166000908152600160205260409020600201805474ff0000000000000000000000000000000000000000191674070000000000000000000000000000000000000000179055565b600060053360009081526001602052604090206002015474010000000000000000000000000000000000000000900460ff166007811115620015b857fe5b14620015ff57604051600080516020620047428339815191528152600401808060200182810382526028815260200180620046ce6028913960400191505060405180910390fd5b50336000908152600a602052604090205490565b600054600160a060020a031633146200166757604051600080516020620047428339815191528152600401808060200182810382526022815260200180620046ac6022913960400191505060405180910390fd5b6000600160a060020a03851660009081526001602052604090206002015474010000000000000000000000000000000000000000900460ff166007811115620016ac57fe5b1462001708576040805160008051602062004742833981519152815260206004820152601760248201527f5573657220416c72656164792072656769737465726564000000000000000000604482015290519081900360640190fd5b600160a060020a0384166000818152600160208190526040909120858155908101849055600201805473ffffffffffffffffffffffffffffffffffffffff191690911790558060078111156200175a57fe5b600160a060020a0385166000908152600160205260409020600201805474ff0000000000000000000000000000000000000000191674010000000000000000000000000000000000000000836007811115620017b257fe5b0217905550600280546001810182556000919091527f405787fa12a823e0f2b7631cc41b3ba8828b3321ca811111fa75cd3aa3bb5ace018054600160a060020a03861673ffffffffffffffffffffffffffffffffffffffff1990911681179091556040805185815290517f33a7170f028b1e4f5ba321064a00ed820856a920c7f9c6636fbcf385427b1b0f9181900360200190a250505050565b60033360009081526001602052604090206002015474010000000000000000000000000000000000000000900460ff1660078111156200188857fe5b14620018cf576040516000805160206200474283398151915281526004018080602001828103825260288152602001806200481d6028913960400191505060405180910390fd5b806200192b576040805160008051602062004742833981519152815260206004820152601c60248201527f52656365697665722054797065206d75737420626520646566696e6500000000604482015290519081900360640190fd5b6000338787878787876040516200194290620027cf565b600160a060020a03978816815260208101969096526040808701959095526060860193909352908516608085015290931660a083015260c082019290925290519081900360e001906000f080158015620019a0573d6000803e3d6000fd5b50336000818152600560209081526040808320805460018101825590845292829020909201805473ffffffffffffffffffffffffffffffffffffffff1916600160a060020a0386811691821790925583518a8316815293519596509088169490927f3279bc96fc4eda86f9fb5456b29ecd9eea4e798e299023b438f7025e6760d5f292908290030190a450505050505050565b600060033360009081526001602052604090206002015474010000000000000000000000000000000000000000900460ff16600781111562001a7157fe5b1462001ab857604051600080516020620047428339815191528152600401808060200182810382526029815260200180620046f66029913960400191505060405180910390fd5b336000908152600560205260409020805483908110620007b757fe5b600060043360009081526001602052604090206002015474010000000000000000000000000000000000000000900460ff16600781111562001b1257fe5b1462001b59576040516000805160206200474283398151915281526004018080602001828103825260278152602001806200486a6027913960400191505060405180910390fd5b336000908152600760205260409020805483908110620007b757fe5b600060043360009081526001602052604090206002015474010000000000000000000000000000000000000000900460ff16600781111562001bb357fe5b1462001bfa576040516000805160206200474283398151915281526004018080602001828103825260278152602001806200486a6027913960400191505060405180910390fd5b503360009081526007602052604090205490565b600060033360009081526001602052604090206002015474010000000000000000000000000000000000000000900460ff16600781111562001c4c57fe5b1462001c93576040516000805160206200474283398151915281526004018080602001828103825260288152602001806200481d6028913960400191505060405180910390fd5b503360009081526004602052604090205490565b60025490565b600054600160a060020a031681565b600160a060020a039081166000908152600b60205260409020541690565b600160a060020a0381166000908152600d602052604081205460ff16600481111562001d0257fe5b92915050565b60033360009081526001602052604090206002015474010000000000000000000000000000000000000000900460ff16600781111562001d4457fe5b1462001d8b576040516000805160206200474283398151915281526004018080602001828103825260288152602001806200481d6028913960400191505060405180910390fd5b604080517f52b999680000000000000000000000000000000000000000000000000000000081523360048201529051600160a060020a038316916352b9996891602480830192600092919082900301818387803b15801562001dec57600080fd5b505af115801562001e01573d6000803e3d6000fd5b505033600090815260046020908152604082208054600181018255908352912001805473ffffffffffffffffffffffffffffffffffffffff1916600160a060020a0394909416939093179092555050565b60013360009081526001602052604090206002015474010000000000000000000000000000000000000000900460ff16600781111562001e8e57fe5b1462001ed557604051600080516020620047428339815191528152600401808060200182810382526025815260200180620048456025913960400191505060405180910390fd5b60003387878787878760405162001eec90620027dd565b600160a060020a039788168152602081019690965260408087019590955260608601939093526080850191909152841660a084015290921660c082015290519081900360e001906000f08015801562001f49573d6000803e3d6000fd5b50336000818152600360209081526040808320805460018101825590845292829020909201805473ffffffffffffffffffffffffffffffffffffffff1916600160a060020a038681169182179092558351898316815293519596509087169490927f9dbe7d9fdd28b9b1c2ffe79a40f7beff124537ed0d7a47555d009e0271fc613392908290030190a450505050505050565b600060063360009081526001602052604090206002015474010000000000000000000000000000000000000000900460ff1660078111156200201a57fe5b146200206157604051600080516020620047428339815191528152600401808060200182810382526042815260200180620047986042913960600191505060405180910390fd5b50336000908152600c602052604090205490565b600060063360009081526001602052604090206002015474010000000000000000000000000000000000000000900460ff166007811115620020b357fe5b14620020fa57604051600080516020620047428339815191528152600401808060200182810382526042815260200180620047986042913960600191505060405180910390fd5b336000908152600c60205260409020805483908110620007b757fe5b60043360009081526001602052604090206002015474010000000000000000000000000000000000000000900460ff1660078111156200215257fe5b148015620021fa575082600160a060020a03166301a9a23e6040518163ffffffff167c010000000000000000000000000000000000000000000000000000000002815260040160606040518083038186803b158015620021b157600080fd5b505afa158015620021c6573d6000803e3d6000fd5b505050506040513d601f19601f820116820180604052506060811015620021ec57600080fd5b5051600160a060020a031633145b6200224057604051600080516020620047428339815191528152600401808060200182810382526042815260200180620047986042913960600191505060405180910390fd5b6000833384846040516200225490620027eb565b600160a060020a039485168152928416602084015290831660408084019190915292166060820152905190819003608001906000f0801580156200229c573d6000803e3d6000fd5b503360009081526007602090815260408083208054600181018255908452828420018054600160a060020a0395861673ffffffffffffffffffffffffffffffffffffffff19918216811790925598909416835260089091529020805490951617909355505050565b60063360009081526001602052604090206002015474010000000000000000000000000000000000000000900460ff1660078111156200234057fe5b148015620023eb575081600160a060020a03166301a9a23e6040518163ffffffff167c010000000000000000000000000000000000000000000000000000000002815260040160606040518083038186803b1580156200239f57600080fd5b505afa158015620023b4573d6000803e3d6000fd5b505050506040513d601f19601f820116820180604052506060811015620023da57600080fd5b5060400151600160a060020a031633145b620024315760405160008051602062004742833981519152815260040180806020018281038252603e81526020018062004891603e913960400191505060405180910390fd5b6001600160a060020a0383166000908152600d602052604090205460ff1660048111156200245b57fe5b14620024b7576040805160008051602062004742833981519152815260206004820152601a60248201527f6d61646963696e65204d75737420626520617420506861726d61000000000000604482015290519081900360640190fd5b806004811115620024c457fe5b600160a060020a0383166000908152600d60205260409020805460ff19166001836004811115620024f157fe5b021790555060408051600160a060020a038416815260208101839052815133927f7e0150eb126a0bad6138f448f48f826cabdf937aac9ffdcefbba62cae222332e928290030190a25050565b600060053360009081526001602052604090206002015474010000000000000000000000000000000000000000900460ff1660078111156200257b57fe5b14620025c257604051600080516020620047428339815191528152600401808060200182810382526028815260200180620046ce6028913960400191505060405180910390fd5b336000908152600a60205260409020805483908110620007b757fe5b60053360009081526001602052604090206002015474010000000000000000000000000000000000000000900460ff1660078111156200261a57fe5b148015620026c5575082600160a060020a03166301a9a23e6040518163ffffffff167c010000000000000000000000000000000000000000000000000000000002815260040160606040518083038186803b1580156200267957600080fd5b505afa1580156200268e573d6000803e3d6000fd5b505050506040513d601f19601f820116820180604052506060811015620026b457600080fd5b5060200151600160a060020a031633145b6200270b57604051600080516020620047428339815191528152600401808060200182810382526043815260200180620047da6043913960600191505060405180910390fd5b6000833384846040516200271f90620027f9565b600160a060020a039485168152928416602084015290831660408084019190915292166060820152905190819003608001906000f08015801562002767573d6000803e3d6000fd5b50336000908152600a602090815260408083208054600181018255908452828420018054600160a060020a0395861673ffffffffffffffffffffffffffffffffffffffff199182168117909255989094168352600b9091529020805490951617909355505050565b610e07806200280883390190565b61067d806200360f83390190565b6105108062003c8c83390190565b610510806200419c8339019056fe608060405234801561001057600080fd5b50604051610e07380380610e07833981810160405260e081101561003357600080fd5b508051602082015160408301516060840151608085015160a086015160c09096015160008054600160a060020a0319908116600160a060020a03808a1691821790935560058054831690911790556001878155600287905560038690556004805490921692851692909217905595969495939492939192918114156100d25760068054600160a060020a031916600160a060020a0384161790556100f7565b80600214156100f75760078054600160a060020a031916600160a060020a0384161790555b50505050505050610cfa8061010d6000396000f3fe608060405234801561001057600080fd5b50600436106100c0576000357c010000000000000000000000000000000000000000000000000000000090048063638e9a3d11610093578063a19ffd6011610078578063a19ffd6014610236578063bd78683514610271578063d2f3fcc7146102ac576100c0565b8063638e9a3d146101d0578063952565cf14610203576100c0565b806301a9a23e146100c55780631d2aafc8146101055780634175699d1461015657806352b999681461018b575b600080fd5b6100cd6102b4565b6040518082606080838360005b838110156100f25781810151838201526020016100da565b5050505090500191505060405180910390f35b61010d6102fc565b6040805173ffffffffffffffffffffffffffffffffffffffff96871681526020810195909552848101939093526060840191909152909216608082015290519081900360a00190f35b6101896004803603602081101561016c57600080fd5b503573ffffffffffffffffffffffffffffffffffffffff1661032c565b005b6101be600480360360208110156101a157600080fd5b503573ffffffffffffffffffffffffffffffffffffffff166103fe565b60408051918252519081900360200190f35b610189600480360360208110156101e657600080fd5b503573ffffffffffffffffffffffffffffffffffffffff1661071c565b6101896004803603602081101561021957600080fd5b503573ffffffffffffffffffffffffffffffffffffffff16610971565b6101896004803603604081101561024c57600080fd5b5073ffffffffffffffffffffffffffffffffffffffff813581169160200135166109eb565b6101896004803603604081101561028757600080fd5b5073ffffffffffffffffffffffffffffffffffffffff81358116916020013516610ae8565b6101be610ba2565b6102bc610bd3565b506040805160608101825260065473ffffffffffffffffffffffffffffffffffffffff908116825260075481166020830152600854169181019190915290565b60055460015460025460035460045473ffffffffffffffffffffffffffffffffffffffff94851694169091929394565b60085473ffffffffffffffffffffffffffffffffffffffff8281169116146103b557604080517f08c379a000000000000000000000000000000000000000000000000000000000815260206004820152601e60248201527f5468697320506861726d61206973206e6f74204173736f6369617465642e0000604482015290519081900360640190fd5b60065b6008805474ff00000000000000000000000000000000000000001916740100000000000000000000000000000000000000008360068111156103f657fe5b021790555050565b60065460009073ffffffffffffffffffffffffffffffffffffffff83811691161480610444575060075473ffffffffffffffffffffffffffffffffffffffff8381169116145b610499576040517f08c379a000000000000000000000000000000000000000000000000000000000815260040180806020018281038252603f815260200180610c42603f913960400191505060405180910390fd5b60085460019074010000000000000000000000000000000000000000900460ff1660068111156104c557fe5b101561053257604080517f08c379a000000000000000000000000000000000000000000000000000000000815260206004820152601960248201527f50726f64756374206e6f74207069636b65642075702079657400000000000000604482015290519081900360640190fd5b60065473ffffffffffffffffffffffffffffffffffffffff83811691161480156105845750600160085474010000000000000000000000000000000000000000900460ff16600681111561058257fe5b145b15610624576008805474ff0000000000000000000000000000000000000000191674030000000000000000000000000000000000000000179055600654600454604080516002815260036020820152815173ffffffffffffffffffffffffffffffffffffffff948516949093169230927f7e89c4b1a4e2b51aae84eb1f90e8a34cb792ece5ac5cb63db4830c891220b28d928290030190a4506001610717565b60075473ffffffffffffffffffffffffffffffffffffffff83811691161480156106765750600260085474010000000000000000000000000000000000000000900460ff16600681111561067457fe5b145b15610717576008805474ff00000000000000000000000000000000000000001916740400000000000000000000000000000000000000001790556007546004805460408051600381526020810193909352805173ffffffffffffffffffffffffffffffffffffffff948516949092169230927f7e89c4b1a4e2b51aae84eb1f90e8a34cb792ece5ac5cb63db4830c891220b28d929181900390910190a45060025b919050565b60045473ffffffffffffffffffffffffffffffffffffffff82811691161461078f576040517f08c379a000000000000000000000000000000000000000000000000000000000815260040180806020018281038252602d815260200180610c15602d913960400191505060405180910390fd5b600060085474010000000000000000000000000000000000000000900460ff1660068111156107ba57fe5b1461082657604080517f08c379a000000000000000000000000000000000000000000000000000000000815260206004820152601c60248201527f5061636b616765206d75737420626520617420537570706c6965722e00000000604482015290519081900360640190fd5b60065473ffffffffffffffffffffffffffffffffffffffff16156108db576008805474ff00000000000000000000000000000000000000001916740100000000000000000000000000000000000000001790556006546004546040805160018082526020820152815173ffffffffffffffffffffffffffffffffffffffff948516949093169230927f7e89c4b1a4e2b51aae84eb1f90e8a34cb792ece5ac5cb63db4830c891220b28d928290030190a461096e565b6008805474ff00000000000000000000000000000000000000001916740200000000000000000000000000000000000000001790556007546004546040805160018082526020820152815173ffffffffffffffffffffffffffffffffffffffff948516949093169230927f7e89c4b1a4e2b51aae84eb1f90e8a34cb792ece5ac5cb63db4830c891220b28d928290030190a45b50565b60075473ffffffffffffffffffffffffffffffffffffffff8281169116146109e4576040517f08c379a0000000000000000000000000000000000000000000000000000000008152600401808060200182810382526023815260200180610bf26023913960400191505060405180910390fd5b60046103b8565b60075473ffffffffffffffffffffffffffffffffffffffff828116911614610a5e576040517f08c379a0000000000000000000000000000000000000000000000000000000008152600401808060200182810382526023815260200180610ca36023913960400191505060405180910390fd5b600880547fffffffffffffffffffffffff00000000000000000000000000000000000000001673ffffffffffffffffffffffffffffffffffffffff841617905560055b6008805474ff0000000000000000000000000000000000000000191674010000000000000000000000000000000000000000836006811115610adf57fe5b02179055505050565b60065473ffffffffffffffffffffffffffffffffffffffff828116911614610b5b576040517f08c379a0000000000000000000000000000000000000000000000000000000008152600401808060200182810382526022815260200180610c816022913960400191505060405180910390fd5b600780547fffffffffffffffffffffffff00000000000000000000000000000000000000001673ffffffffffffffffffffffffffffffffffffffff84161790556002610aa1565b60085460009074010000000000000000000000000000000000000000900460ff166006811115610bce57fe5b905090565b6040518060600160405280600390602082028038833950919291505056fe54686973204469737472696275746572206973206e6f74204173736f6369617465642e4f6e6c79204173736f636961746520536869707065722063616e2063616c6c20746869732066756e6374696f6e4f6e6c79204173736f63696174652057686f6c6573616c6572206f722044697374727562757465722063616e2063616c6c20746869732066756e6374696f6e746869732057686f6c6573616c6572206973206e6f74204173736f6369617465642e74686973204469737472696275746572206973206e6f74204173736f6369617465642ea265627a7a723158204a3a96a1a74da3dad3322f5f6418d4840b45a99e5079ee786b6a987178d6820364736f6c634300050c0032608060405234801561001057600080fd5b5060405161067d38038061067d833981810160405260e081101561003357600080fd5b508051602082015160408301516060840151608085015160a086015160c09096015160008054600160a060020a0319908116600160a060020a0398891690811783556001805430908416179055600297909755600395909555600493909355600591909155600680548416968616969096179095556007805483169490951693909317909355600880549093161760a060020a60ff02191690915561059f9081906100de90396000f3fe608060405234801561001057600080fd5b5060043610610068577c010000000000000000000000000000000000000000000000000000000060003504633b205a7d811461006d57806352b9996814610087578063638e9a3d146100bc578063d02eee23146100ef575b600080fd5b61007561014b565b60408051918252519081900360200190f35b6100ba6004803603602081101561009d57600080fd5b503573ffffffffffffffffffffffffffffffffffffffff1661017c565b005b6100ba600480360360208110156100d257600080fd5b503573ffffffffffffffffffffffffffffffffffffffff16610326565b6100f76104cf565b60408051978852602088019690965286860194909452606086019290925273ffffffffffffffffffffffffffffffffffffffff908116608086015290811660a08501521660c0830152519081900360e00190f35b60085460009074010000000000000000000000000000000000000000900460ff16600281111561017757fe5b905090565b60075473ffffffffffffffffffffffffffffffffffffffff8281169116146101ef576040517f08c379a00000000000000000000000000000000000000000000000000000000081526004018080602001828103825260328152602001806105396032913960400191505060405180910390fd5b600160085474010000000000000000000000000000000000000000900460ff16600281111561021a57fe5b1461028657604080517f08c379a000000000000000000000000000000000000000000000000000000000815260206004820152601960248201527f50726f64756374206e6f74207069636b65642075702079657400000000000000604482015290519081900360640190fd5b600880547fffffffffffffffffffffff00ffffffffffffffffffffffffffffffffffffffff1674020000000000000000000000000000000000000000179055600754600654604080516001815260026020820152815173ffffffffffffffffffffffffffffffffffffffff948516949093169230927f7e89c4b1a4e2b51aae84eb1f90e8a34cb792ece5ac5cb63db4830c891220b28d928290030190a450565b60065473ffffffffffffffffffffffffffffffffffffffff828116911614610399576040517f08c379a000000000000000000000000000000000000000000000000000000000815260040180806020018281038252602d81526020018061050c602d913960400191505060405180910390fd5b600060085474010000000000000000000000000000000000000000900460ff1660028111156103c457fe5b1461043057604080517f08c379a000000000000000000000000000000000000000000000000000000000815260206004820152601c60248201527f5061636b616765206d75737420626520617420537570706c6965722e00000000604482015290519081900360640190fd5b600880547fffffffffffffffffffffff00ffffffffffffffffffffffffffffffffffffffff16740100000000000000000000000000000000000000001790556007546006546040805160018082526020820152815173ffffffffffffffffffffffffffffffffffffffff948516949093169230927f7e89c4b1a4e2b51aae84eb1f90e8a34cb792ece5ac5cb63db4830c891220b28d928290030190a450565b60025460035460045460055460065460075460085473ffffffffffffffffffffffffffffffffffffffff9283169291821691169091929394959656fe4f6e6c79204173736f636961746520536869707065722063616e2063616c6c20746869732066756e6374696f6e4f6e6c79204173736f6369617465204d616e7566616374757265722063616e2063616c6c20746869732066756e6374696f6ea265627a7a723158207e22a79dbc839d7ee2596168713156205f773da3f7af60a8335ea6203ab4f34e64736f6c634300050c0032608060405234801561001057600080fd5b506040516105103803806105108339818101604052608081101561003357600080fd5b5080516020820151604083015160609093015160008054600160a060020a0319908116600160a060020a03948516908117835560018054831696861696909617909555600280548216909517909455600380548516958416959095179094556004805490931691161760a060020a60ff02191690556104589081906100b890396000f3fe608060405234801561001057600080fd5b506004361061005d577c01000000000000000000000000000000000000000000000000000000006000350463443c28d88114610062578063d2f3fcc71461009f578063f4c07229146100b9575b600080fd5b61009d6004803603604081101561007857600080fd5b5073ffffffffffffffffffffffffffffffffffffffff813581169160200135166100f4565b005b6100a761023f565b60408051918252519081900360200190f35b61009d600480360360408110156100cf57600080fd5b5073ffffffffffffffffffffffffffffffffffffffff81358116916020013516610270565b60035473ffffffffffffffffffffffffffffffffffffffff828116911614610167576040517f08c379a000000000000000000000000000000000000000000000000000000000815260040180806020018281038252602f8152602001806103f5602f913960400191505060405180910390fd5b600480547fffffffffffffffffffffff00ffffffffffffffffffffffffffffffffffffffff167401000000000000000000000000000000000000000017808255600254604080517fbd78683500000000000000000000000000000000000000000000000000000000815273ffffffffffffffffffffffffffffffffffffffff938416948101949094529082166024840152519084169163bd78683591604480830192600092919082900301818387803b15801561022357600080fd5b505af1158015610237573d6000803e3d6000fd5b505050505050565b60045460009074010000000000000000000000000000000000000000900460ff16600281111561026b57fe5b905090565b60045473ffffffffffffffffffffffffffffffffffffffff8281169116146102e3576040517f08c379a00000000000000000000000000000000000000000000000000000000081526004018080602001828103825260308152602001806103c56030913960400191505060405180910390fd5b60048054600291907fffffffffffffffffffffff00ffffffffffffffffffffffffffffffffffffffff16740100000000000000000000000000000000000000008302179055508173ffffffffffffffffffffffffffffffffffffffff1663952565cf826040518263ffffffff167c0100000000000000000000000000000000000000000000000000000000028152600401808273ffffffffffffffffffffffffffffffffffffffff1673ffffffffffffffffffffffffffffffffffffffff168152602001915050600060405180830381600087803b15801561022357600080fdfe4f6e6c79204173736f6369617465642072656365697665722063616e2063616c6c20746869732066756e6374696f6e2e4f6e6c79204173736f63696174656420736869707065722063616e2063616c6c20746869732066756e6374696f6e2ea265627a7a72315820df78ac27e394e3cbb4207fb1c0fc76fdb03254607a83ed49cd607c3c91d3bf8d64736f6c634300050c0032608060405234801561001057600080fd5b506040516105103803806105108339818101604052608081101561003357600080fd5b5080516020820151604083015160609093015160008054600160a060020a0319908116600160a060020a03948516908117835560018054831696861696909617909555600280548216909517909455600380548516958416959095179094556004805490931691161760a060020a60ff02191690556104589081906100b890396000f3fe608060405234801561001057600080fd5b506004361061005d577c0100000000000000000000000000000000000000000000000000000000600035046332a60e008114610062578063d2f3fcc71461009f578063d39ff0e7146100b9575b600080fd5b61009d6004803603604081101561007857600080fd5b5073ffffffffffffffffffffffffffffffffffffffff813581169160200135166100f4565b005b6100a7610264565b60408051918252519081900360200190f35b61009d600480360360408110156100cf57600080fd5b5073ffffffffffffffffffffffffffffffffffffffff81358116916020013516610295565b60045473ffffffffffffffffffffffffffffffffffffffff828116911614610167576040517f08c379a00000000000000000000000000000000000000000000000000000000081526004018080602001828103825260308152602001806103c56030913960400191505060405180910390fd5b60048054600291907fffffffffffffffffffffff00ffffffffffffffffffffffffffffffffffffffff16740100000000000000000000000000000000000000008302179055508173ffffffffffffffffffffffffffffffffffffffff16634175699d826040518263ffffffff167c0100000000000000000000000000000000000000000000000000000000028152600401808273ffffffffffffffffffffffffffffffffffffffff1673ffffffffffffffffffffffffffffffffffffffff168152602001915050600060405180830381600087803b15801561024857600080fd5b505af115801561025c573d6000803e3d6000fd5b505050505050565b60045460009074010000000000000000000000000000000000000000900460ff16600281111561029057fe5b905090565b60035473ffffffffffffffffffffffffffffffffffffffff828116911614610308576040517f08c379a000000000000000000000000000000000000000000000000000000000815260040180806020018281038252602f8152602001806103f5602f913960400191505060405180910390fd5b600480547fffffffffffffffffffffff00ffffffffffffffffffffffffffffffffffffffff167401000000000000000000000000000000000000000017808255600254604080517fa19ffd6000000000000000000000000000000000000000000000000000000000815273ffffffffffffffffffffffffffffffffffffffff938416948101949094529082166024840152519084169163a19ffd6091604480830192600092919082900301818387803b15801561024857600080fdfe4f6e6c79204173736f6369617465642072656365697665722063616e2063616c6c20746869732066756e6374696f6e2e4f6e6c79204173736f63696174656420736869707065722063616e2063616c6c20746869732066756e6374696f6e2ea265627a7a72315820d4f935290e182482d3b5794265cc0aa40e51bd6589d6e90171b4b8957c091f4264736f6c634300050c00324f6e6c79206f776e65722063616e2063616c6c20746869732066756e6374696f6e2e4f6e6c792044697374726962757465722043616e2063616c6c20746869732066756e6374696f6e2e4f6e6c79204d616e7566616374757265722043616e2063616c6c20746869732066756e6374696f6e2e4f6e6c7920506861726d612043616e2063616c6c20746869732066756e6374696f6e2e08c379a0000000000000000000000000000000000000000000000000000000004f6e6c792057686f6c6573616c657220616e642044697374726962757465722063616e2063616c6c20746869732066756e6374696f6e4f6e6c792057686f6c6573616c6572206f722063757272656e74206f776e6572206f66207061636b6167652063616e2063616c6c20746869732066756e6374696f6e4f6e6c79204469737472696275746572206f722063757272656e74206f776e6572206f66207061636b6167652063616e2063616c6c20746869732066756e6374696f6e4f6e6c79206d616e7566616374757265722063616e2063616c6c20746869732066756e6374696f6e4f6e6c7920537570706c6965722043616e2063616c6c20746869732066756e6374696f6e204f6e6c792057686f6c6573616c65722043616e2063616c6c20746869732066756e6374696f6e2e4f6e6c7920506861726d61206f722063757272656e74206f776e6572206f66207061636b6167652063616e2063616c6c20746869732066756e6374696f6e4f6e6c79205472616e73706f727465722063616e2063616c6c20746869732066756e6374696f6ea265627a7a723158206e39c080ae9f29485613cc680f0117b0a20693acd17eff3862b09a2d34087a8064736f6c634300050c0032",
  "source": "pragma solidity >=0.4.25 <0.6.0;\r\n\r\nimport './RawMatrials.sol';\r\nimport './Madicine.sol';\r\nimport './MadicineW_D.sol';\r\nimport './MadicineD_P.sol';\r\n\r\n\r\ncontract SupplyChain {\r\n\r\n    address public Owner;\r\n\r\n    constructor () public {\r\n        Owner = msg.sender;\r\n    }\r\n\r\n  \r\n    modifier onlyOwner() {\r\n        require(\r\n            msg.sender == Owner,\r\n            \"Only owner can call this function.\"\r\n        );\r\n        _;\r\n    }\r\n\r\n    enum roles {\r\n        norole,\r\n        supplier,\r\n        transporter,\r\n        manufacturer,\r\n        wholesaler,\r\n        distributer,\r\n        pharma,\r\n        revoke\r\n    }\r\n\r\n    event UserRegister(address indexed EthAddress, bytes32 Name);\r\n    event UserRoleRevoked(address indexed EthAddress, bytes32 Name, uint Role);\r\n    event UserRoleRessigne(address indexed EthAddress, bytes32 Name, uint Role);\r\n\r\n\r\n    function registerUser(\r\n        address EthAddress,\r\n        bytes32 Name,\r\n        bytes32 Location,\r\n        uint Role\r\n        ) public\r\n        onlyOwner\r\n        {\r\n        require(UsersDetails[EthAddress].role == roles.norole, \"User Already registered\");\r\n        UsersDetails[EthAddress].name = Name;\r\n        UsersDetails[EthAddress].location = Location;\r\n        UsersDetails[EthAddress].ethAddress = EthAddress;\r\n        UsersDetails[EthAddress].role = roles(Role);\r\n        users.push(EthAddress);\r\n        emit UserRegister(EthAddress, Name);\r\n    }\r\n\r\n    function revokeRole(address userAddress) public onlyOwner {\r\n        require(UsersDetails[userAddress].role != roles.norole, \"User not registered\");\r\n        emit UserRoleRevoked(userAddress, UsersDetails[userAddress].name,uint(UsersDetails[userAddress].role));\r\n        UsersDetails[userAddress].role = roles(7);\r\n    }\r\n \r\n    function reassigneRole(address userAddress, uint Role) public onlyOwner {\r\n        require(UsersDetails[userAddress].role != roles.norole, \"User not registered\");\r\n        UsersDetails[userAddress].role = roles(Role);\r\n        emit UserRoleRessigne(userAddress, UsersDetails[userAddress].name,uint(UsersDetails[userAddress].role));\r\n    }\r\n\r\n\r\n    struct UserInfo {\r\n        bytes32 name;\r\n        bytes32 location;\r\n        address ethAddress;\r\n        roles role;\r\n    }\r\n\r\n    /// @notice\r\n    mapping(address => UserInfo) UsersDetails;\r\n    /// @notice\r\n    address[] users;\r\n\r\n    function getUserInfo(address User) public view returns(\r\n        bytes32 name,\r\n        bytes32 location,\r\n        address ethAddress,\r\n        roles role\r\n        ) {\r\n        return (\r\n            UsersDetails[User].name,\r\n            UsersDetails[User].location,\r\n            UsersDetails[User].ethAddress,\r\n            UsersDetails[User].role);\r\n    }\r\n\r\n\r\n    function getUsersCount() public view returns(uint count){\r\n        return users.length;\r\n    }\r\n\r\n    function getUserbyIndex(uint index) public view returns(\r\n        bytes32 name,\r\n        bytes32 location,\r\n        address ethAddress,\r\n        roles role\r\n        ) {\r\n        return getUserInfo(users[index]);\r\n    }\r\n\r\n    /// @notice\r\n    mapping(address => address[]) supplierRawProductInfo;\r\n    event RawSupplyInit(\r\n        address indexed ProductID,\r\n        address indexed Supplier,\r\n        address Shipper,\r\n        address indexed Receiver\r\n    );\r\n\r\n\r\n    function createRawPackage(\r\n        bytes32 Des,\r\n        bytes32 FN,\r\n        bytes32 Loc,\r\n        uint Quant,\r\n        address Shpr,\r\n        address Rcvr\r\n        ) public {\r\n        require(\r\n            UsersDetails[msg.sender].role == roles.supplier,\r\n            \"Only Supplier Can call this function \"\r\n        );\r\n        RawMatrials rawData = new RawMatrials(\r\n            msg.sender,\r\n            Des,\r\n            FN,\r\n            Loc,\r\n            Quant,\r\n            Shpr,\r\n            Rcvr\r\n            );\r\n        supplierRawProductInfo[msg.sender].push(address(rawData));\r\n        emit RawSupplyInit(address(rawData), msg.sender, Shpr, Rcvr);\r\n    }\r\n\r\n\r\n    function getPackagesCountS() public view returns (uint count){\r\n        require(\r\n            UsersDetails[msg.sender].role == roles.supplier,\r\n            \"Only Supplier Can call this function \"\r\n        );\r\n        return supplierRawProductInfo[msg.sender].length;\r\n    }\r\n\r\n    function getPackageIdByIndexS(uint index) public view returns(address packageID) {\r\n        require(\r\n            UsersDetails[msg.sender].role == roles.supplier,\r\n            \"Only Supplier Can call this function \"\r\n        );\r\n        return supplierRawProductInfo[msg.sender][index];\r\n    }\r\n\r\n    function loadConsingment(\r\n        address pid,\r\n        uint transportertype,\r\n        address cid\r\n        ) public {\r\n        require(\r\n            UsersDetails[msg.sender].role == roles.transporter,\r\n            \"Only Transporter can call this function\"\r\n        );\r\n        require(\r\n            transportertype > 0,\r\n            \"Transporter Type must be define\"\r\n        );\r\n\r\n        if(transportertype == 1) {  // Supplier to Manufacturer\r\n            RawMatrials(pid).pickPackage(msg.sender);\r\n        } else if(transportertype == 2) {   // Manufacturer to Wholesaler OR Manufacturer to Distributer\r\n            Madicine(pid).pickPackage(msg.sender);\r\n        } else if(transportertype == 3) {   // Wholesaler to Distributer\r\n            MadicineW_D(cid).pickWD(pid,msg.sender);\r\n        } else if(transportertype == 4) {   // Distrubuter to Pharma\r\n            MadicineD_P(cid).pickDP(pid,msg.sender);\r\n        }\r\n    }\r\n\r\n\r\n    mapping(address => address[]) RawPackagesAtManufacturer;\r\n    function  rawPackageReceived(\r\n        address pid\r\n    ) public {\r\n        require(\r\n            UsersDetails[msg.sender].role == roles.manufacturer,\r\n            \"Only manufacturer can call this function\"\r\n        );\r\n\r\n        RawMatrials(pid).receivedPackage(msg.sender);\r\n        RawPackagesAtManufacturer[msg.sender].push(pid);\r\n    }\r\n\r\n\r\n    function getPackagesCountM() public view returns(uint count){\r\n        require(\r\n            UsersDetails[msg.sender].role == roles.manufacturer,\r\n            \"Only manufacturer can call this function\"\r\n        );\r\n        return RawPackagesAtManufacturer[msg.sender].length;\r\n    }\r\n\r\n    function getPackageIDByIndexM(uint index) public view returns(address BatchID){\r\n        require(\r\n            UsersDetails[msg.sender].role == roles.manufacturer,\r\n            \"Only manufacturer can call this function\"\r\n        );\r\n        return RawPackagesAtManufacturer[msg.sender][index];\r\n    }\r\n\r\n    /// @notice\r\n    mapping(address => address[]) ManufactureredMadicineBatches;\r\n    event MadicineNewBatch(\r\n        address indexed BatchId,\r\n        address indexed Manufacturer,\r\n        address shipper,\r\n        address indexed Receiver\r\n    );\r\n\r\n    function manufacturMadicine(\r\n        bytes32 Des,\r\n        bytes32 RM,\r\n        uint Quant,\r\n        address Shpr,\r\n        address Rcvr,\r\n        uint RcvrType\r\n    ) public {\r\n        require(\r\n            UsersDetails[msg.sender].role == roles.manufacturer,\r\n            \"Only manufacturer can call this function\"\r\n        );\r\n        require(\r\n            RcvrType != 0,\r\n            \"Receiver Type must be define\"\r\n        );\r\n\r\n        Madicine m = new Madicine(\r\n            msg.sender,\r\n            Des,\r\n            RM,\r\n            Quant,\r\n            Shpr,\r\n            Rcvr,\r\n            RcvrType\r\n        );\r\n\r\n        ManufactureredMadicineBatches[msg.sender].push(address(m));\r\n        emit MadicineNewBatch(address(m), msg.sender, Shpr, Rcvr);\r\n    }\r\n\r\n\r\n    function getBatchesCountM() public view returns (uint count){\r\n        require(\r\n            UsersDetails[msg.sender].role == roles.manufacturer,\r\n            \"Only Manufacturer Can call this function.\"\r\n        );\r\n        return ManufactureredMadicineBatches[msg.sender].length;\r\n    }\r\n\r\n\r\n    function getBatchIdByIndexM(uint index) public view returns(address packageID) {\r\n        require(\r\n            UsersDetails[msg.sender].role == roles.manufacturer,\r\n            \"Only Manufacturer Can call this function.\"\r\n        );\r\n        return ManufactureredMadicineBatches[msg.sender][index];\r\n    }\r\n\r\n\r\n\r\n    /// @notice\r\n    mapping(address => address[]) MadicineBatchesAtWholesaler;\r\n\r\n    function madicineReceived(\r\n        address batchid,\r\n        address cid\r\n    ) public {\r\n        require(\r\n            UsersDetails[msg.sender].role == roles.wholesaler || UsersDetails[msg.sender].role == roles.distributer,\r\n            \"Only Wholesaler and Distributer can call this function\"\r\n        );\r\n\r\n        uint rtype = Madicine(batchid).receivedPackage(msg.sender);\r\n        if(rtype == 1){\r\n            MadicineBatchesAtWholesaler[msg.sender].push(batchid);\r\n        }else if( rtype == 2){\r\n            MadicineBatchesAtWholesaler[msg.sender].push(batchid);\r\n            if(Madicine(batchid).getWDP()[0] != address(0)){\r\n                MadicineW_D(cid).recieveWD(batchid,msg.sender);\r\n            }\r\n        }\r\n    }\r\n\r\n    /// @notice\r\n    mapping(address => address[]) MadicineWtoD;\r\n    /// @notice\r\n    mapping(address => address) MadicineWtoDTxContract;\r\n\r\n    function transferMadicineWtoD(\r\n        address BatchID,\r\n        address Shipper,\r\n        address Receiver\r\n    ) public {\r\n        require(\r\n            UsersDetails[msg.sender].role == roles.wholesaler &&\r\n            msg.sender == Madicine(BatchID).getWDP()[0],\r\n            \"Only Wholesaler or current owner of package can call this function\"\r\n        );\r\n        MadicineW_D wd = new MadicineW_D(\r\n            BatchID,\r\n            msg.sender,\r\n            Shipper,\r\n            Receiver\r\n        );\r\n        MadicineWtoD[msg.sender].push(address(wd));\r\n        MadicineWtoDTxContract[BatchID] = address(wd);\r\n    }\r\n\r\n\r\n    function getBatchesCountWD() public view returns (uint count){\r\n        require(\r\n            UsersDetails[msg.sender].role == roles.wholesaler,\r\n            \"Only Wholesaler Can call this function.\"\r\n        );\r\n        return MadicineWtoD[msg.sender].length;\r\n    }\r\n\r\n\r\n    function getBatchIdByIndexWD(uint index) public view returns(address packageID) {\r\n        require(\r\n            UsersDetails[msg.sender].role == roles.wholesaler,\r\n            \"Only Wholesaler Can call this function.\"\r\n        );\r\n        return MadicineWtoD[msg.sender][index];\r\n    }\r\n\r\n    function getSubContractWD(address BatchID) public view returns (address SubContractWD) {\r\n        // require(\r\n        //     UsersDetails[msg.sender].role == roles.wholesaler,\r\n        //     \"Only Wholesaler Can call this function.\"\r\n        // );\r\n        return MadicineWtoDTxContract[BatchID];\r\n    }\r\n\r\n    /// @notice\r\n    mapping(address => address[]) MadicineBatchAtDistributer;\r\n\r\n    /// @notice\r\n    mapping(address => address[]) MadicineDtoP;\r\n\r\n    /// @notice\r\n    mapping(address => address) MadicineDtoPTxContract;\r\n\r\n\r\n    function transferMadicineDtoP(\r\n        address BatchID,\r\n        address Shipper,\r\n        address Receiver\r\n    ) public {\r\n        require(\r\n            UsersDetails[msg.sender].role == roles.distributer &&\r\n            msg.sender == Madicine(BatchID).getWDP()[1],\r\n            \"Only Distributer or current owner of package can call this function\"\r\n        );\r\n        MadicineD_P dp = new MadicineD_P(\r\n            BatchID,\r\n            msg.sender,\r\n            Shipper,\r\n            Receiver\r\n        );\r\n        MadicineDtoP[msg.sender].push(address(dp));\r\n        MadicineDtoPTxContract[BatchID] = address(dp);\r\n    }\r\n\r\n    function getBatchesCountDP() public view returns (uint count){\r\n        require(\r\n            UsersDetails[msg.sender].role == roles.distributer,\r\n            \"Only Distributer Can call this function.\"\r\n        );\r\n        return MadicineDtoP[msg.sender].length;\r\n    }\r\n\r\n\r\n    function getBatchIdByIndexDP(uint index) public view returns(address packageID) {\r\n        require(\r\n            UsersDetails[msg.sender].role == roles.distributer,\r\n            \"Only Distributer Can call this function.\"\r\n        );\r\n        return MadicineDtoP[msg.sender][index];\r\n    }\r\n\r\n \r\n    function getSubContractDP(address BatchID) public view returns (address SubContractDP) {\r\n        // require(\r\n        //     UsersDetails[msg.sender].role == roles.distributer,\r\n        //     \"Only Distributer Can call this function.\"\r\n        // );\r\n        return MadicineDtoPTxContract[BatchID];\r\n    }\r\n\r\n    /// @notice\r\n    mapping(address => address[]) MadicineBatchAtPharma;\r\n\r\n  \r\n    function madicineRecievedAtPharma(\r\n        address batchid,\r\n        address cid\r\n    ) public {\r\n        require(\r\n            UsersDetails[msg.sender].role == roles.pharma,\r\n            \"Only Pharma Can call this function.\"\r\n        );\r\n        MadicineD_P(cid).recieveDP(batchid, msg.sender);\r\n        MadicineBatchAtPharma[msg.sender].push(batchid);\r\n        sale[batchid] = salestatus(1);\r\n    }\r\n\r\n    enum salestatus {\r\n        notfound,\r\n        atpharma,\r\n        sold,\r\n        expire,\r\n        damaged\r\n    }\r\n\r\n    /// @notice\r\n    mapping(address => salestatus) sale;\r\n\r\n    event MadicineStatus(\r\n        address BatchID,\r\n        address indexed Pharma,\r\n        uint status\r\n    );\r\n\r\n    function updateSaleStatus(\r\n        address BatchID,\r\n        uint Status\r\n    ) public {\r\n        require(\r\n            UsersDetails[msg.sender].role == roles.pharma &&\r\n            msg.sender == Madicine(BatchID).getWDP()[2],\r\n            \"Only Pharma or current owner of package can call this function\"\r\n        );\r\n        require(sale[BatchID] == salestatus(1), \"madicine Must be at Pharma\");\r\n        sale[BatchID] = salestatus(Status);\r\n\r\n        emit MadicineStatus(BatchID, msg.sender, Status);\r\n    }\r\n\r\n    function salesInfo(\r\n        address BatchID\r\n    ) public\r\n    view\r\n    returns(\r\n        uint Status\r\n    ){\r\n        return uint(sale[BatchID]);\r\n    }\r\n\r\n    function getBatchesCountP() public view returns(uint count){\r\n        require(\r\n            UsersDetails[msg.sender].role == roles.pharma,\r\n            \"Only Wholesaler or current owner of package can call this function\"\r\n        );\r\n        return  MadicineBatchAtPharma[msg.sender].length;\r\n    }\r\n\r\n\r\n    function getBatchIdByIndexP(uint index) public view returns(address BatchID){\r\n        require(\r\n            UsersDetails[msg.sender].role == roles.pharma,\r\n            \"Only Wholesaler or current owner of package can call this function\"\r\n        );\r\n        return MadicineBatchAtPharma[msg.sender][index];\r\n    }\r\n}\r\n",
  "sourcePath": "D:/blockchain/hack/contracts/SupplyChain.sol",
  "compiler": {
    "name": "solc",
    "version": "0.5.12+commit.7709ece9.Emscripten.clang"
  },
  "schemaVersion": "3.0.0",
  "updatedAt": "2020-05-03T12:14:31.819Z",
  "devdoc": {
    "methods": {}
  },
  "userdoc": {
    "methods": {}
  }
}