{
  "contractName": "SupplyChain",
  "abi": [
    {
      "inputs": [],
      "payable": false,
      "stateMutability": "nonpayable",
      "type": "constructor",
      "signature": "constructor"
    },
    {
      "anonymous": false,
      "inputs": [
        {
          "indexed": true,
          "internalType": "address",
          "name": "BatchId",
          "type": "address"
        },
        {
          "indexed": true,
          "internalType": "address",
          "name": "Manufacturer",
          "type": "address"
        },
        {
          "indexed": false,
          "internalType": "address",
          "name": "shipper",
          "type": "address"
        },
        {
          "indexed": true,
          "internalType": "address",
          "name": "Receiver",
          "type": "address"
        }
      ],
      "name": "MadicineNewBatch",
      "type": "event",
      "signature": "0x3279bc96fc4eda86f9fb5456b29ecd9eea4e798e299023b438f7025e6760d5f2"
    },
    {
      "anonymous": false,
      "inputs": [
        {
          "indexed": false,
          "internalType": "address",
          "name": "BatchID",
          "type": "address"
        },
        {
          "indexed": true,
          "internalType": "address",
          "name": "Pharma",
          "type": "address"
        },
        {
          "indexed": false,
          "internalType": "uint256",
          "name": "status",
          "type": "uint256"
        }
      ],
      "name": "MadicineStatus",
      "type": "event",
      "signature": "0x7e0150eb126a0bad6138f448f48f826cabdf937aac9ffdcefbba62cae222332e"
    },
    {
      "anonymous": false,
      "inputs": [
        {
          "indexed": true,
          "internalType": "address",
          "name": "ProductID",
          "type": "address"
        },
        {
          "indexed": true,
          "internalType": "address",
          "name": "Supplier",
          "type": "address"
        },
        {
          "indexed": false,
          "internalType": "address",
          "name": "Shipper",
          "type": "address"
        },
        {
          "indexed": true,
          "internalType": "address",
          "name": "Receiver",
          "type": "address"
        }
      ],
      "name": "RawSupplyInit",
      "type": "event",
      "signature": "0x9dbe7d9fdd28b9b1c2ffe79a40f7beff124537ed0d7a47555d009e0271fc6133"
    },
    {
      "anonymous": false,
      "inputs": [
        {
          "indexed": true,
          "internalType": "address",
          "name": "EthAddress",
          "type": "address"
        },
        {
          "indexed": false,
          "internalType": "bytes32",
          "name": "Name",
          "type": "bytes32"
        }
      ],
      "name": "UserRegister",
      "type": "event",
      "signature": "0x33a7170f028b1e4f5ba321064a00ed820856a920c7f9c6636fbcf385427b1b0f"
    },
    {
      "anonymous": false,
      "inputs": [
        {
          "indexed": true,
          "internalType": "address",
          "name": "EthAddress",
          "type": "address"
        },
        {
          "indexed": false,
          "internalType": "bytes32",
          "name": "Name",
          "type": "bytes32"
        },
        {
          "indexed": false,
          "internalType": "uint256",
          "name": "Role",
          "type": "uint256"
        }
      ],
      "name": "UserRoleReassign",
      "type": "event",
      "signature": "0xc710cf4adb65670b804c8b4e05b16d3a477507ab76f0f12cafc0b194d61ad2e0"
    },
    {
      "anonymous": false,
      "inputs": [
        {
          "indexed": true,
          "internalType": "address",
          "name": "EthAddress",
          "type": "address"
        },
        {
          "indexed": false,
          "internalType": "bytes32",
          "name": "Name",
          "type": "bytes32"
        },
        {
          "indexed": false,
          "internalType": "uint256",
          "name": "Role",
          "type": "uint256"
        }
      ],
      "name": "UserRoleRevoke",
      "type": "event",
      "signature": "0x4bda8a2283829daa51eabd5fc255578b7a565af1d943cedcb8786151073c4dd6"
    },
    {
      "constant": true,
      "inputs": [],
      "name": "Owner",
      "outputs": [
        {
          "internalType": "address",
          "name": "",
          "type": "address"
        }
      ],
      "payable": false,
      "stateMutability": "view",
      "type": "function",
      "signature": "0xb4a99a4e"
    },
    {
      "constant": true,
      "inputs": [
        {
          "internalType": "string",
          "name": "source",
          "type": "string"
        }
      ],
      "name": "stringToBytes32",
      "outputs": [
        {
          "internalType": "bytes32",
          "name": "result",
          "type": "bytes32"
        }
      ],
      "payable": false,
      "stateMutability": "pure",
      "type": "function",
      "signature": "0xcfb51928"
    },
    {
      "constant": false,
      "inputs": [
        {
          "internalType": "address",
          "name": "EthAddress",
          "type": "address"
        },
        {
          "internalType": "string",
          "name": "Name",
          "type": "string"
        },
        {
          "internalType": "string",
          "name": "Location",
          "type": "string"
        },
        {
          "internalType": "uint256",
          "name": "Role",
          "type": "uint256"
        }
      ],
      "name": "registerUser",
      "outputs": [],
      "payable": false,
      "stateMutability": "nonpayable",
      "type": "function",
      "signature": "0xb57d63f5"
    },
    {
      "constant": false,
      "inputs": [
        {
          "internalType": "address",
          "name": "userAddress",
          "type": "address"
        }
      ],
      "name": "revokeRole",
      "outputs": [],
      "payable": false,
      "stateMutability": "nonpayable",
      "type": "function",
      "signature": "0x80e52e3f"
    },
    {
      "constant": false,
      "inputs": [
        {
          "internalType": "address",
          "name": "userAddress",
          "type": "address"
        },
        {
          "internalType": "uint256",
          "name": "Role",
          "type": "uint256"
        }
      ],
      "name": "reassignRole",
      "outputs": [],
      "payable": false,
      "stateMutability": "nonpayable",
      "type": "function",
      "signature": "0xa93c7abb"
    },
    {
      "constant": true,
      "inputs": [
        {
          "internalType": "address",
          "name": "User",
          "type": "address"
        }
      ],
      "name": "getUserInfo",
      "outputs": [
        {
          "internalType": "bytes32",
          "name": "name",
          "type": "bytes32"
        },
        {
          "internalType": "bytes32",
          "name": "location",
          "type": "bytes32"
        },
        {
          "internalType": "address",
          "name": "ethAddress",
          "type": "address"
        },
        {
          "internalType": "enum SupplyChain.roles",
          "name": "role",
          "type": "uint8"
        }
      ],
      "payable": false,
      "stateMutability": "view",
      "type": "function",
      "signature": "0x6386c1c7"
    },
    {
      "constant": true,
      "inputs": [],
      "name": "getUsersCount",
      "outputs": [
        {
          "internalType": "uint256",
          "name": "count",
          "type": "uint256"
        }
      ],
      "payable": false,
      "stateMutability": "view",
      "type": "function",
      "signature": "0xa4a1e263"
    },
    {
      "constant": false,
      "inputs": [
        {
          "internalType": "string",
          "name": "Des",
          "type": "string"
        },
        {
          "internalType": "string",
          "name": "FN",
          "type": "string"
        },
        {
          "internalType": "string",
          "name": "Loc",
          "type": "string"
        },
        {
          "internalType": "uint256",
          "name": "Quant",
          "type": "uint256"
        },
        {
          "internalType": "address",
          "name": "Shpr",
          "type": "address"
        },
        {
          "internalType": "address",
          "name": "Rcvr",
          "type": "address"
        }
      ],
      "name": "createRawPackage",
      "outputs": [],
      "payable": false,
      "stateMutability": "nonpayable",
      "type": "function",
      "signature": "0xb32aedc0"
    },
    {
      "constant": true,
      "inputs": [],
      "name": "getPackagesCountS",
      "outputs": [
        {
          "internalType": "uint256",
          "name": "count",
          "type": "uint256"
        }
      ],
      "payable": false,
      "stateMutability": "view",
      "type": "function",
      "signature": "0x2becfd04"
    },
    {
      "constant": true,
      "inputs": [
        {
          "internalType": "uint256",
          "name": "index",
          "type": "uint256"
        }
      ],
      "name": "getPackageIdByIndexS",
      "outputs": [
        {
          "internalType": "address",
          "name": "packageID",
          "type": "address"
        }
      ],
      "payable": false,
      "stateMutability": "view",
      "type": "function",
      "signature": "0x5e33cea4"
    },
    {
      "constant": false,
      "inputs": [
        {
          "internalType": "address",
          "name": "pid",
          "type": "address"
        },
        {
          "internalType": "uint256",
          "name": "transportertype",
          "type": "uint256"
        },
        {
          "internalType": "address",
          "name": "cid",
          "type": "address"
        }
      ],
      "name": "loadConsingment",
      "outputs": [],
      "payable": false,
      "stateMutability": "nonpayable",
      "type": "function",
      "signature": "0x73f08eb3"
    },
    {
      "constant": false,
      "inputs": [
        {
          "internalType": "address",
          "name": "pid",
          "type": "address"
        }
      ],
      "name": "rawPackageReceived",
      "outputs": [],
      "payable": false,
      "stateMutability": "nonpayable",
      "type": "function",
      "signature": "0xbc8c5b1c"
    },
    {
      "constant": true,
      "inputs": [],
      "name": "getPackagesCountM",
      "outputs": [
        {
          "internalType": "uint256",
          "name": "count",
          "type": "uint256"
        }
      ],
      "payable": false,
      "stateMutability": "view",
      "type": "function",
      "signature": "0x9fb3a903"
    },
    {
      "constant": true,
      "inputs": [
        {
          "internalType": "uint256",
          "name": "index",
          "type": "uint256"
        }
      ],
      "name": "getPackageIDByIndexM",
      "outputs": [
        {
          "internalType": "address",
          "name": "BatchID",
          "type": "address"
        }
      ],
      "payable": false,
      "stateMutability": "view",
      "type": "function",
      "signature": "0x0bcc7568"
    },
    {
      "constant": false,
      "inputs": [
        {
          "internalType": "bytes32",
          "name": "Des",
          "type": "bytes32"
        },
        {
          "internalType": "bytes32",
          "name": "RM",
          "type": "bytes32"
        },
        {
          "internalType": "uint256",
          "name": "Quant",
          "type": "uint256"
        },
        {
          "internalType": "address",
          "name": "Shpr",
          "type": "address"
        },
        {
          "internalType": "address",
          "name": "Rcvr",
          "type": "address"
        },
        {
          "internalType": "uint256",
          "name": "RcvrType",
          "type": "uint256"
        }
      ],
      "name": "manufacturMadicine",
      "outputs": [],
      "payable": false,
      "stateMutability": "nonpayable",
      "type": "function",
      "signature": "0x9856f6b3"
    },
    {
      "constant": true,
      "inputs": [],
      "name": "getBatchesCountM",
      "outputs": [
        {
          "internalType": "uint256",
          "name": "count",
          "type": "uint256"
        }
      ],
      "payable": false,
      "stateMutability": "view",
      "type": "function",
      "signature": "0x3d66f86d"
    },
    {
      "constant": true,
      "inputs": [
        {
          "internalType": "uint256",
          "name": "index",
          "type": "uint256"
        }
      ],
      "name": "getBatchIdByIndexM",
      "outputs": [
        {
          "internalType": "address",
          "name": "packageID",
          "type": "address"
        }
      ],
      "payable": false,
      "stateMutability": "view",
      "type": "function",
      "signature": "0x986c9139"
    },
    {
      "constant": false,
      "inputs": [
        {
          "internalType": "address",
          "name": "batchid",
          "type": "address"
        },
        {
          "internalType": "address",
          "name": "cid",
          "type": "address"
        }
      ],
      "name": "madicineReceived",
      "outputs": [],
      "payable": false,
      "stateMutability": "nonpayable",
      "type": "function",
      "signature": "0x2246e4d4"
    },
    {
      "constant": false,
      "inputs": [
        {
          "internalType": "address",
          "name": "BatchID",
          "type": "address"
        },
        {
          "internalType": "address",
          "name": "Shipper",
          "type": "address"
        },
        {
          "internalType": "address",
          "name": "Receiver",
          "type": "address"
        }
      ],
      "name": "transferMadicineWtoD",
      "outputs": [],
      "payable": false,
      "stateMutability": "nonpayable",
      "type": "function",
      "signature": "0xe95690aa"
    },
    {
      "constant": true,
      "inputs": [],
      "name": "getBatchesCountWD",
      "outputs": [
        {
          "internalType": "uint256",
          "name": "count",
          "type": "uint256"
        }
      ],
      "payable": false,
      "stateMutability": "view",
      "type": "function",
      "signature": "0x9f696b35"
    },
    {
      "constant": true,
      "inputs": [
        {
          "internalType": "uint256",
          "name": "index",
          "type": "uint256"
        }
      ],
      "name": "getBatchIdByIndexWD",
      "outputs": [
        {
          "internalType": "address",
          "name": "packageID",
          "type": "address"
        }
      ],
      "payable": false,
      "stateMutability": "view",
      "type": "function",
      "signature": "0x9af035a3"
    },
    {
      "constant": true,
      "inputs": [
        {
          "internalType": "address",
          "name": "BatchID",
          "type": "address"
        }
      ],
      "name": "getSubContractWD",
      "outputs": [
        {
          "internalType": "address",
          "name": "SubContractWD",
          "type": "address"
        }
      ],
      "payable": false,
      "stateMutability": "view",
      "type": "function",
      "signature": "0x34759016"
    },
    {
      "constant": false,
      "inputs": [
        {
          "internalType": "address",
          "name": "BatchID",
          "type": "address"
        },
        {
          "internalType": "address",
          "name": "Shipper",
          "type": "address"
        },
        {
          "internalType": "address",
          "name": "Receiver",
          "type": "address"
        }
      ],
      "name": "transferMadicineDtoP",
      "outputs": [],
      "payable": false,
      "stateMutability": "nonpayable",
      "type": "function",
      "signature": "0xf9723eb6"
    },
    {
      "constant": true,
      "inputs": [],
      "name": "getBatchesCountDP",
      "outputs": [
        {
          "internalType": "uint256",
          "name": "count",
          "type": "uint256"
        }
      ],
      "payable": false,
      "stateMutability": "view",
      "type": "function",
      "signature": "0x884b9c52"
    },
    {
      "constant": true,
      "inputs": [
        {
          "internalType": "uint256",
          "name": "index",
          "type": "uint256"
        }
      ],
      "name": "getBatchIdByIndexDP",
      "outputs": [
        {
          "internalType": "address",
          "name": "packageID",
          "type": "address"
        }
      ],
      "payable": false,
      "stateMutability": "view",
      "type": "function",
      "signature": "0xf05bcd4e"
    },
    {
      "constant": true,
      "inputs": [
        {
          "internalType": "address",
          "name": "BatchID",
          "type": "address"
        }
      ],
      "name": "getSubContractDP",
      "outputs": [
        {
          "internalType": "address",
          "name": "SubContractDP",
          "type": "address"
        }
      ],
      "payable": false,
      "stateMutability": "view",
      "type": "function",
      "signature": "0xb6c022f5"
    },
    {
      "constant": false,
      "inputs": [
        {
          "internalType": "address",
          "name": "batchid",
          "type": "address"
        },
        {
          "internalType": "address",
          "name": "cid",
          "type": "address"
        }
      ],
      "name": "madicineRecievedAtPharma",
      "outputs": [],
      "payable": false,
      "stateMutability": "nonpayable",
      "type": "function",
      "signature": "0x0cd48d81"
    },
    {
      "constant": false,
      "inputs": [
        {
          "internalType": "address",
          "name": "BatchID",
          "type": "address"
        },
        {
          "internalType": "uint256",
          "name": "Status",
          "type": "uint256"
        }
      ],
      "name": "updateSaleStatus",
      "outputs": [],
      "payable": false,
      "stateMutability": "nonpayable",
      "type": "function",
      "signature": "0xeae3c207"
    },
    {
      "constant": true,
      "inputs": [
        {
          "internalType": "address",
          "name": "BatchID",
          "type": "address"
        }
      ],
      "name": "salesInfo",
      "outputs": [
        {
          "internalType": "uint256",
          "name": "Status",
          "type": "uint256"
        }
      ],
      "payable": false,
      "stateMutability": "view",
      "type": "function",
      "signature": "0xbb8ee1c5"
    },
    {
      "constant": true,
      "inputs": [],
      "name": "getBatchesCountP",
      "outputs": [
        {
          "internalType": "uint256",
          "name": "count",
          "type": "uint256"
        }
      ],
      "payable": false,
      "stateMutability": "view",
      "type": "function",
      "signature": "0xe581762e"
    },
    {
      "constant": true,
      "inputs": [
        {
          "internalType": "uint256",
          "name": "index",
          "type": "uint256"
        }
      ],
      "name": "getBatchIdByIndexP",
      "outputs": [
        {
          "internalType": "address",
          "name": "BatchID",
          "type": "address"
        }
      ],
      "payable": false,
      "stateMutability": "view",
      "type": "function",
      "signature": "0xe5bff92a"
    }
  ],
  "bytecode": "0x608060405234801561001057600080fd5b5060008054600160a060020a03191633179055615373806100326000396000f3fe60806040523480156200001157600080fd5b506004361062000231576000357c0100000000000000000000000000000000000000000000000000000000900480639fb3a9031162000146578063bc8c5b1c11620000ce578063e95690aa1162000098578063e95690aa1462000978578063eae3c20714620009b3578063f05bcd4e14620009e2578063f9723eb61462000a025762000231565b8063bc8c5b1c1462000879578063cfb5192814620008a2578063e581762e146200094e578063e5bff92a14620009585762000231565b8063b4a99a4e1162000110578063b4a99a4e14620006d5578063b57d63f514620006df578063b6c022f51462000827578063bb8ee1c514620008505762000231565b80639fb3a90314620004bb578063a4a1e26314620004c5578063a93c7abb14620004cf578063b32aedc014620004fe5762000231565b80636386c1c711620001ca5780639856f6b311620001945780639856f6b31462000426578063986c913914620004715780639af035a314620004915780639f696b3514620004b15762000231565b80636386c1c7146200034557806373f08eb314620003ba57806380e52e3f14620003f3578063884b9c52146200041c5762000231565b80632becfd04116200020c5780632becfd0414620002d65780633475901614620002f25780633d66f86d146200031b5780635e33cea414620003255762000231565b80630bcc756814620002365780630cd48d8114620002725780632246e4d414620002a5575b600080fd5b62000256600480360360208110156200024e57600080fd5b503562000a3d565b60408051600160a060020a039092168252519081900360200190f35b620002a3600480360360408110156200028a57600080fd5b50600160a060020a038135811691602001351662000afb565b005b620002a360048036036040811015620002bd57600080fd5b50600160a060020a038135811691602001351662000c88565b620002e062000fb5565b60408051918252519081900360200190f35b62000256600480360360208110156200030a57600080fd5b5035600160a060020a03166200104e565b620002e06200106c565b62000256600480360360208110156200033d57600080fd5b503562001105565b6200036e600480360360208110156200035d57600080fd5b5035600160a060020a0316620011a6565b6040518085815260200184815260200183600160a060020a0316600160a060020a03168152602001826007811115620003a357fe5b60ff16815260200194505050505060405180910390f35b620002a360048036036060811015620003d257600080fd5b50600160a060020a03813581169160208101359160409091013516620011f3565b620002a3600480360360208110156200040b57600080fd5b5035600160a060020a0316620014b4565b620002e06200167b565b620002a3600480360360c08110156200043e57600080fd5b50803590602081013590604081013590600160a060020a03606082013581169160808101359091169060a0013562001714565b62000256600480360360208110156200048957600080fd5b5035620018fb565b6200025660048036036020811015620004a957600080fd5b50356200199c565b620002e062001a3d565b620002e062001ad6565b620002e062001b6f565b620002a360048036036040811015620004e757600080fd5b50600160a060020a03813516906020013562001b75565b620002a3600480360360c08110156200051657600080fd5b8101906020810181356401000000008111156200053257600080fd5b8201836020820111156200054557600080fd5b803590602001918460018302840111640100000000831117156200056857600080fd5b91908080601f0160208091040260200160405190810160405280939291908181526020018383808284376000920191909152509295949360208101935035915050640100000000811115620005bc57600080fd5b820183602082011115620005cf57600080fd5b80359060200191846001830284011164010000000083111715620005f257600080fd5b91908080601f01602080910402602001604051908101604052809392919081815260200183838082843760009201919091525092959493602081019350359150506401000000008111156200064657600080fd5b8201836020820111156200065957600080fd5b803590602001918460018302840111640100000000831117156200067c57600080fd5b91908080601f016020809104026020016040519081016040528093929190818152602001838380828437600092019190915250929550508235935050600160a060020a0360208301358116926040013516905062001d5b565b6200025662002011565b620002a360048036036080811015620006f757600080fd5b600160a060020a0382351691908101906040810160208201356401000000008111156200072357600080fd5b8201836020820111156200073657600080fd5b803590602001918460018302840111640100000000831117156200075957600080fd5b91908080601f0160208091040260200160405190810160405280939291908181526020018383808284376000920191909152509295949360208101935035915050640100000000811115620007ad57600080fd5b820183602082011115620007c057600080fd5b80359060200191846001830284011164010000000083111715620007e357600080fd5b91908080601f016020809104026020016040519081016040528093929190818152602001838380828437600092019190915250929550509135925062002020915050565b62000256600480360360208110156200083f57600080fd5b5035600160a060020a031662002279565b620002e0600480360360208110156200086857600080fd5b5035600160a060020a031662002297565b620002a3600480360360208110156200089157600080fd5b5035600160a060020a0316620022c5565b620002e060048036036020811015620008ba57600080fd5b810190602081018135640100000000811115620008d657600080fd5b820183602082011115620008e957600080fd5b803590602001918460018302840111640100000000831117156200090c57600080fd5b91908080601f0160208091040260200160405190810160405280939291908181526020018383808284376000920191909152509295506200240f945050505050565b620002e06200242f565b62000256600480360360208110156200097057600080fd5b5035620024c8565b620002a3600480360360608110156200099057600080fd5b50600160a060020a03813581169160208101358216916040909101351662002569565b620002a360048036036040811015620009cb57600080fd5b50600160a060020a03813516906020013562002757565b6200025660048036036020811015620009fa57600080fd5b503562002990565b620002a36004803603606081101562000a1a57600080fd5b50600160a060020a03813581169160208101358216916040909101351662002a31565b600060033360009081526001602052604090206002015474010000000000000000000000000000000000000000900460ff16600781111562000a7b57fe5b1462000ac2576040516000805160206200518b8339815191528152600401808060200182810382526028815260200180620052666028913960400191505060405180910390fd5b33600090815260046020526040902080548390811062000ade57fe5b600091825260209091200154600160a060020a031690505b919050565b60063360009081526001602052604090206002015474010000000000000000000000000000000000000000900460ff16600781111562000b3757fe5b1462000b7e576040516000805160206200518b8339815191528152600401808060200182810382526023815260200180620051686023913960400191505060405180910390fd5b604080517f32a60e00000000000000000000000000000000000000000000000000000000008152600160a060020a0384811660048301523360248301529151918316916332a60e009160448082019260009290919082900301818387803b15801562000be957600080fd5b505af115801562000bfe573d6000803e3d6000fd5b5050336000908152600c6020908152604082208054600180820183559184529190922001805473ffffffffffffffffffffffffffffffffffffffff1916600160a060020a038716179055915062000c529050565b600160a060020a0383166000908152600d60205260409020805460ff1916600183600481111562000c7f57fe5b02179055505050565b60043360009081526001602052604090206002015474010000000000000000000000000000000000000000900460ff16600781111562000cc457fe5b148062000d0a575060053360009081526001602052604090206002015474010000000000000000000000000000000000000000900460ff16600781111562000d0857fe5b145b62000d50576040516000805160206200518b8339815191528152600401808060200182810382526036815260200180620051ab6036913960400191505060405180910390fd5b604080517f52b999680000000000000000000000000000000000000000000000000000000081523360048201529051600091600160a060020a038516916352b999689160248082019260209290919082900301818787803b15801562000db557600080fd5b505af115801562000dca573d6000803e3d6000fd5b505050506040513d602081101562000de157600080fd5b50519050600181141562000e3a5733600090815260066020908152604082208054600181018255908352912001805473ffffffffffffffffffffffffffffffffffffffff1916600160a060020a03851617905562000fb0565b806002141562000fb0573360009081526006602090815260408083208054600181018255908452918320909101805473ffffffffffffffffffffffffffffffffffffffff1916600160a060020a03871690811790915581517f01a9a23e000000000000000000000000000000000000000000000000000000008152915190916301a9a23e916004808301926060929190829003018186803b15801562000edf57600080fd5b505afa15801562000ef4573d6000803e3d6000fd5b505050506040513d601f19601f82011682018060405250606081101562000f1a57600080fd5b5051600160a060020a03161462000fb057604080517ff4c07229000000000000000000000000000000000000000000000000000000008152600160a060020a03858116600483015233602483015291519184169163f4c072299160448082019260009290919082900301818387803b15801562000f9657600080fd5b505af115801562000fab573d6000803e3d6000fd5b505050505b505050565b600060013360009081526001602052604090206002015474010000000000000000000000000000000000000000900460ff16600781111562000ff357fe5b146200103a576040516000805160206200518b83398151915281526004018080602001828103825260258152602001806200528e6025913960400191505060405180910390fd5b503360009081526003602052604090205490565b600160a060020a039081166000908152600860205260409020541690565b600060033360009081526001602052604090206002015474010000000000000000000000000000000000000000900460ff166007811115620010aa57fe5b14620010f1576040516000805160206200518b83398151915281526004018080602001828103825260298152602001806200513f6029913960400191505060405180910390fd5b503360009081526005602052604090205490565b600060013360009081526001602052604090206002015474010000000000000000000000000000000000000000900460ff1660078111156200114357fe5b146200118a576040516000805160206200518b83398151915281526004018080602001828103825260258152602001806200528e6025913960400191505060405180910390fd5b33600090815260036020526040902080548390811062000ade57fe5b600160a060020a0390811660009081526001602081905260409091208054918101546002909101549193909282169174010000000000000000000000000000000000000000900460ff1690565b60023360009081526001602052604090206002015474010000000000000000000000000000000000000000900460ff1660078111156200122f57fe5b1462001276576040516000805160206200518b8339815191528152600401808060200182810382526027815260200180620053186027913960400191505060405180910390fd5b60008211620012d557604080516000805160206200518b833981519152815260206004820152601f60248201527f5472616e73706f727465722054797065206d75737420626520646566696e6500604482015290519081900360640190fd5b81600114156200135f57604080517f638e9a3d0000000000000000000000000000000000000000000000000000000081523360048201529051600160a060020a0385169163638e9a3d91602480830192600092919082900301818387803b1580156200134057600080fd5b505af115801562001355573d6000803e3d6000fd5b5050505062000fb0565b8160021415620013ca57604080517f638e9a3d0000000000000000000000000000000000000000000000000000000081523360048201529051600160a060020a0385169163638e9a3d91602480830192600092919082900301818387803b1580156200134057600080fd5b81600314156200143f57604080517f443c28d8000000000000000000000000000000000000000000000000000000008152600160a060020a03858116600483015233602483015291519183169163443c28d89160448082019260009290919082900301818387803b1580156200134057600080fd5b816004141562000fb057604080517fd39ff0e7000000000000000000000000000000000000000000000000000000008152600160a060020a03858116600483015233602483015291519183169163d39ff0e79160448082019260009290919082900301818387803b15801562000f9657600080fd5b600054600160a060020a0316331462001508576040516000805160206200518b8339815191528152600401808060200182810382526022815260200180620050f56022913960400191505060405180910390fd5b6000600160a060020a03821660009081526001602052604090206002015474010000000000000000000000000000000000000000900460ff1660078111156200154d57fe5b1415620015aa57604080516000805160206200518b833981519152815260206004820152601360248201527f55736572206e6f74207265676973746572656400000000000000000000000000604482015290519081900360640190fd5b600160a060020a038116600081815260016020526040902080546002909101547f4bda8a2283829daa51eabd5fc255578b7a565af1d943cedcb8786151073c4dd6919074010000000000000000000000000000000000000000900460ff1660078111156200161457fe5b6040805192835260208301919091528051918290030190a2600160a060020a03166000908152600160205260409020600201805474ff0000000000000000000000000000000000000000191674070000000000000000000000000000000000000000179055565b600060053360009081526001602052604090206002015474010000000000000000000000000000000000000000900460ff166007811115620016b957fe5b1462001700576040516000805160206200518b8339815191528152600401808060200182810382526028815260200180620051176028913960400191505060405180910390fd5b50336000908152600a602052604090205490565b60033360009081526001602052604090206002015474010000000000000000000000000000000000000000900460ff1660078111156200175057fe5b1462001797576040516000805160206200518b8339815191528152600401808060200182810382526028815260200180620052666028913960400191505060405180910390fd5b80620017f357604080516000805160206200518b833981519152815260206004820152601c60248201527f52656365697665722054797065206d75737420626520646566696e6500000000604482015290519081900360640190fd5b6000338787878787876040516200180a9062002c22565b600160a060020a03978816815260208101969096526040808701959095526060860193909352908516608085015290931660a083015260c082019290925290519081900360e001906000f08015801562001868573d6000803e3d6000fd5b50336000818152600560209081526040808320805460018101825590845292829020909201805473ffffffffffffffffffffffffffffffffffffffff1916600160a060020a0386811691821790925583518a8316815293519596509088169490927f3279bc96fc4eda86f9fb5456b29ecd9eea4e798e299023b438f7025e6760d5f292908290030190a450505050505050565b600060033360009081526001602052604090206002015474010000000000000000000000000000000000000000900460ff1660078111156200193957fe5b1462001980576040516000805160206200518b83398151915281526004018080602001828103825260298152602001806200513f6029913960400191505060405180910390fd5b33600090815260056020526040902080548390811062000ade57fe5b600060043360009081526001602052604090206002015474010000000000000000000000000000000000000000900460ff166007811115620019da57fe5b1462001a21576040516000805160206200518b8339815191528152600401808060200182810382526027815260200180620052b36027913960400191505060405180910390fd5b33600090815260076020526040902080548390811062000ade57fe5b600060043360009081526001602052604090206002015474010000000000000000000000000000000000000000900460ff16600781111562001a7b57fe5b1462001ac2576040516000805160206200518b8339815191528152600401808060200182810382526027815260200180620052b36027913960400191505060405180910390fd5b503360009081526007602052604090205490565b600060033360009081526001602052604090206002015474010000000000000000000000000000000000000000900460ff16600781111562001b1457fe5b1462001b5b576040516000805160206200518b8339815191528152600401808060200182810382526028815260200180620052666028913960400191505060405180910390fd5b503360009081526004602052604090205490565b60025490565b600054600160a060020a0316331462001bc9576040516000805160206200518b8339815191528152600401808060200182810382526022815260200180620050f56022913960400191505060405180910390fd5b6000600160a060020a03831660009081526001602052604090206002015474010000000000000000000000000000000000000000900460ff16600781111562001c0e57fe5b141562001c6b57604080516000805160206200518b833981519152815260206004820152601360248201527f55736572206e6f74207265676973746572656400000000000000000000000000604482015290519081900360640190fd5b80600781111562001c7857fe5b600160a060020a0383166000908152600160205260409020600201805474ff000000000000000000000000000000000000000019167401000000000000000000000000000000000000000083600781111562001cd057fe5b0217905550600160a060020a038216600081815260016020526040902080546002909101547fc710cf4adb65670b804c8b4e05b16d3a477507ab76f0f12cafc0b194d61ad2e0919074010000000000000000000000000000000000000000900460ff16600781111562001d3f57fe5b6040805192835260208301919091528051918290030190a25050565b60013360009081526001602052604090206002015474010000000000000000000000000000000000000000900460ff16600781111562001d9757fe5b1462001dde576040516000805160206200518b83398151915281526004018080602001828103825260258152602001806200528e6025913960400191505060405180910390fd5b60003387878787878760405162001df59062002c30565b600160a060020a0380891682526080820185905283811660a0830152821660c082015260e060208083018281528951928401929092528851604084019160608501916101008601918c019080838360005b8381101562001e6057818101518382015260200162001e46565b50505050905090810190601f16801562001e8e5780820380516001836020036101000a031916815260200191505b5084810383528951815289516020918201918b019080838360005b8381101562001ec357818101518382015260200162001ea9565b50505050905090810190601f16801562001ef15780820380516001836020036101000a031916815260200191505b5084810382528851815288516020918201918a019080838360005b8381101562001f2657818101518382015260200162001f0c565b50505050905090810190601f16801562001f545780820380516001836020036101000a031916815260200191505b509a5050505050505050505050604051809103906000f08015801562001f7e573d6000803e3d6000fd5b50336000818152600360209081526040808320805460018101825590845292829020909201805473ffffffffffffffffffffffffffffffffffffffff1916600160a060020a038681169182179092558351898316815293519596509087169490927f9dbe7d9fdd28b9b1c2ffe79a40f7beff124537ed0d7a47555d009e0271fc613392908290030190a450505050505050565b600054600160a060020a031681565b600054600160a060020a0316331462002074576040516000805160206200518b8339815191528152600401808060200182810382526022815260200180620050f56022913960400191505060405180910390fd5b6000600160a060020a03851660009081526001602052604090206002015474010000000000000000000000000000000000000000900460ff166007811115620020b957fe5b146200211557604080516000805160206200518b833981519152815260206004820152601760248201527f5573657220416c72656164792072656769737465726564000000000000000000604482015290519081900360640190fd5b600062002122846200240f565b9050600062002131846200240f565b600160a060020a0387166000818152600160208190526040909120858155908101839055600201805473ffffffffffffffffffffffffffffffffffffffff1916909117905590508260078111156200218557fe5b600160a060020a0387166000908152600160205260409020600201805474ff0000000000000000000000000000000000000000191674010000000000000000000000000000000000000000836007811115620021dd57fe5b0217905550600280546001810182556000919091527f405787fa12a823e0f2b7631cc41b3ba8828b3321ca811111fa75cd3aa3bb5ace018054600160a060020a03881673ffffffffffffffffffffffffffffffffffffffff1990911681179091556040805184815290517f33a7170f028b1e4f5ba321064a00ed820856a920c7f9c6636fbcf385427b1b0f9181900360200190a2505050505050565b600160a060020a039081166000908152600b60205260409020541690565b600160a060020a0381166000908152600d602052604081205460ff166004811115620022bf57fe5b92915050565b60033360009081526001602052604090206002015474010000000000000000000000000000000000000000900460ff1660078111156200230157fe5b1462002348576040516000805160206200518b8339815191528152600401808060200182810382526028815260200180620052666028913960400191505060405180910390fd5b604080517f52b999680000000000000000000000000000000000000000000000000000000081523360048201529051600160a060020a038316916352b9996891602480830192600092919082900301818387803b158015620023a957600080fd5b505af1158015620023be573d6000803e3d6000fd5b505033600090815260046020908152604082208054600181018255908352912001805473ffffffffffffffffffffffffffffffffffffffff1916600160a060020a0394909416939093179092555050565b805160009082906200242657506000905062000af6565b50506020015190565b600060063360009081526001602052604090206002015474010000000000000000000000000000000000000000900460ff1660078111156200246d57fe5b14620024b4576040516000805160206200518b8339815191528152600401808060200182810382526042815260200180620051e16042913960600191505060405180910390fd5b50336000908152600c602052604090205490565b600060063360009081526001602052604090206002015474010000000000000000000000000000000000000000900460ff1660078111156200250657fe5b146200254d576040516000805160206200518b8339815191528152600401808060200182810382526042815260200180620051e16042913960600191505060405180910390fd5b336000908152600c6020526040902080548390811062000ade57fe5b60043360009081526001602052604090206002015474010000000000000000000000000000000000000000900460ff166007811115620025a557fe5b1480156200264d575082600160a060020a03166301a9a23e6040518163ffffffff167c010000000000000000000000000000000000000000000000000000000002815260040160606040518083038186803b1580156200260457600080fd5b505afa15801562002619573d6000803e3d6000fd5b505050506040513d601f19601f8201168201806040525060608110156200263f57600080fd5b5051600160a060020a031633145b62002693576040516000805160206200518b8339815191528152600401808060200182810382526042815260200180620051e16042913960600191505060405180910390fd5b600083338484604051620026a79062002c3e565b600160a060020a039485168152928416602084015290831660408084019190915292166060820152905190819003608001906000f080158015620026ef573d6000803e3d6000fd5b503360009081526007602090815260408083208054600181018255908452828420018054600160a060020a0395861673ffffffffffffffffffffffffffffffffffffffff19918216811790925598909416835260089091529020805490951617909355505050565b60063360009081526001602052604090206002015474010000000000000000000000000000000000000000900460ff1660078111156200279357fe5b1480156200283e575081600160a060020a03166301a9a23e6040518163ffffffff167c010000000000000000000000000000000000000000000000000000000002815260040160606040518083038186803b158015620027f257600080fd5b505afa15801562002807573d6000803e3d6000fd5b505050506040513d601f19601f8201168201806040525060608110156200282d57600080fd5b5060400151600160a060020a031633145b62002884576040516000805160206200518b833981519152815260040180806020018281038252603e815260200180620052da603e913960400191505060405180910390fd5b6001600160a060020a0383166000908152600d602052604090205460ff166004811115620028ae57fe5b146200290a57604080516000805160206200518b833981519152815260206004820152601a60248201527f6d61646963696e65204d75737420626520617420506861726d61000000000000604482015290519081900360640190fd5b8060048111156200291757fe5b600160a060020a0383166000908152600d60205260409020805460ff191660018360048111156200294457fe5b021790555060408051600160a060020a038416815260208101839052815133927f7e0150eb126a0bad6138f448f48f826cabdf937aac9ffdcefbba62cae222332e928290030190a25050565b600060053360009081526001602052604090206002015474010000000000000000000000000000000000000000900460ff166007811115620029ce57fe5b1462002a15576040516000805160206200518b8339815191528152600401808060200182810382526028815260200180620051176028913960400191505060405180910390fd5b336000908152600a6020526040902080548390811062000ade57fe5b60053360009081526001602052604090206002015474010000000000000000000000000000000000000000900460ff16600781111562002a6d57fe5b14801562002b18575082600160a060020a03166301a9a23e6040518163ffffffff167c010000000000000000000000000000000000000000000000000000000002815260040160606040518083038186803b15801562002acc57600080fd5b505afa15801562002ae1573d6000803e3d6000fd5b505050506040513d601f19601f82011682018060405250606081101562002b0757600080fd5b5060200151600160a060020a031633145b62002b5e576040516000805160206200518b8339815191528152600401808060200182810382526043815260200180620052236043913960600191505060405180910390fd5b60008333848460405162002b729062002c4c565b600160a060020a039485168152928416602084015290831660408084019190915292166060820152905190819003608001906000f08015801562002bba573d6000803e3d6000fd5b50336000908152600a602090815260408083208054600181018255908452828420018054600160a060020a0395861673ffffffffffffffffffffffffffffffffffffffff199182168117909255989094168352600b9091529020805490951617909355505050565b610e078062002c5b83390190565b610c738062003a6283390190565b61051080620046d583390190565b6105108062004be58339019056fe608060405234801561001057600080fd5b50604051610e07380380610e07833981810160405260e081101561003357600080fd5b508051602082015160408301516060840151608085015160a086015160c09096015160008054600160a060020a0319908116600160a060020a03808a1691821790935560058054831690911790556001878155600287905560038690556004805490921692851692909217905595969495939492939192918114156100d25760068054600160a060020a031916600160a060020a0384161790556100f7565b80600214156100f75760078054600160a060020a031916600160a060020a0384161790555b50505050505050610cfa8061010d6000396000f3fe608060405234801561001057600080fd5b50600436106100c0576000357c010000000000000000000000000000000000000000000000000000000090048063638e9a3d11610093578063a19ffd6011610078578063a19ffd6014610236578063bd78683514610271578063d2f3fcc7146102ac576100c0565b8063638e9a3d146101d0578063952565cf14610203576100c0565b806301a9a23e146100c55780631d2aafc8146101055780634175699d1461015657806352b999681461018b575b600080fd5b6100cd6102b4565b6040518082606080838360005b838110156100f25781810151838201526020016100da565b5050505090500191505060405180910390f35b61010d6102fc565b6040805173ffffffffffffffffffffffffffffffffffffffff96871681526020810195909552848101939093526060840191909152909216608082015290519081900360a00190f35b6101896004803603602081101561016c57600080fd5b503573ffffffffffffffffffffffffffffffffffffffff1661032c565b005b6101be600480360360208110156101a157600080fd5b503573ffffffffffffffffffffffffffffffffffffffff166103fe565b60408051918252519081900360200190f35b610189600480360360208110156101e657600080fd5b503573ffffffffffffffffffffffffffffffffffffffff1661071c565b6101896004803603602081101561021957600080fd5b503573ffffffffffffffffffffffffffffffffffffffff16610971565b6101896004803603604081101561024c57600080fd5b5073ffffffffffffffffffffffffffffffffffffffff813581169160200135166109eb565b6101896004803603604081101561028757600080fd5b5073ffffffffffffffffffffffffffffffffffffffff81358116916020013516610ae8565b6101be610ba2565b6102bc610bd3565b506040805160608101825260065473ffffffffffffffffffffffffffffffffffffffff908116825260075481166020830152600854169181019190915290565b60055460015460025460035460045473ffffffffffffffffffffffffffffffffffffffff94851694169091929394565b60085473ffffffffffffffffffffffffffffffffffffffff8281169116146103b557604080517f08c379a000000000000000000000000000000000000000000000000000000000815260206004820152601e60248201527f5468697320506861726d61206973206e6f74204173736f6369617465642e0000604482015290519081900360640190fd5b60065b6008805474ff00000000000000000000000000000000000000001916740100000000000000000000000000000000000000008360068111156103f657fe5b021790555050565b60065460009073ffffffffffffffffffffffffffffffffffffffff83811691161480610444575060075473ffffffffffffffffffffffffffffffffffffffff8381169116145b610499576040517f08c379a000000000000000000000000000000000000000000000000000000000815260040180806020018281038252603f815260200180610c42603f913960400191505060405180910390fd5b60085460019074010000000000000000000000000000000000000000900460ff1660068111156104c557fe5b101561053257604080517f08c379a000000000000000000000000000000000000000000000000000000000815260206004820152601960248201527f50726f64756374206e6f74207069636b65642075702079657400000000000000604482015290519081900360640190fd5b60065473ffffffffffffffffffffffffffffffffffffffff83811691161480156105845750600160085474010000000000000000000000000000000000000000900460ff16600681111561058257fe5b145b15610624576008805474ff0000000000000000000000000000000000000000191674030000000000000000000000000000000000000000179055600654600454604080516002815260036020820152815173ffffffffffffffffffffffffffffffffffffffff948516949093169230927f7e89c4b1a4e2b51aae84eb1f90e8a34cb792ece5ac5cb63db4830c891220b28d928290030190a4506001610717565b60075473ffffffffffffffffffffffffffffffffffffffff83811691161480156106765750600260085474010000000000000000000000000000000000000000900460ff16600681111561067457fe5b145b15610717576008805474ff00000000000000000000000000000000000000001916740400000000000000000000000000000000000000001790556007546004805460408051600381526020810193909352805173ffffffffffffffffffffffffffffffffffffffff948516949092169230927f7e89c4b1a4e2b51aae84eb1f90e8a34cb792ece5ac5cb63db4830c891220b28d929181900390910190a45060025b919050565b60045473ffffffffffffffffffffffffffffffffffffffff82811691161461078f576040517f08c379a000000000000000000000000000000000000000000000000000000000815260040180806020018281038252602d815260200180610c15602d913960400191505060405180910390fd5b600060085474010000000000000000000000000000000000000000900460ff1660068111156107ba57fe5b1461082657604080517f08c379a000000000000000000000000000000000000000000000000000000000815260206004820152601c60248201527f5061636b616765206d75737420626520617420537570706c6965722e00000000604482015290519081900360640190fd5b60065473ffffffffffffffffffffffffffffffffffffffff16156108db576008805474ff00000000000000000000000000000000000000001916740100000000000000000000000000000000000000001790556006546004546040805160018082526020820152815173ffffffffffffffffffffffffffffffffffffffff948516949093169230927f7e89c4b1a4e2b51aae84eb1f90e8a34cb792ece5ac5cb63db4830c891220b28d928290030190a461096e565b6008805474ff00000000000000000000000000000000000000001916740200000000000000000000000000000000000000001790556007546004546040805160018082526020820152815173ffffffffffffffffffffffffffffffffffffffff948516949093169230927f7e89c4b1a4e2b51aae84eb1f90e8a34cb792ece5ac5cb63db4830c891220b28d928290030190a45b50565b60075473ffffffffffffffffffffffffffffffffffffffff8281169116146109e4576040517f08c379a0000000000000000000000000000000000000000000000000000000008152600401808060200182810382526023815260200180610bf26023913960400191505060405180910390fd5b60046103b8565b60075473ffffffffffffffffffffffffffffffffffffffff828116911614610a5e576040517f08c379a0000000000000000000000000000000000000000000000000000000008152600401808060200182810382526023815260200180610ca36023913960400191505060405180910390fd5b600880547fffffffffffffffffffffffff00000000000000000000000000000000000000001673ffffffffffffffffffffffffffffffffffffffff841617905560055b6008805474ff0000000000000000000000000000000000000000191674010000000000000000000000000000000000000000836006811115610adf57fe5b02179055505050565b60065473ffffffffffffffffffffffffffffffffffffffff828116911614610b5b576040517f08c379a0000000000000000000000000000000000000000000000000000000008152600401808060200182810382526022815260200180610c816022913960400191505060405180910390fd5b600780547fffffffffffffffffffffffff00000000000000000000000000000000000000001673ffffffffffffffffffffffffffffffffffffffff84161790556002610aa1565b60085460009074010000000000000000000000000000000000000000900460ff166006811115610bce57fe5b905090565b6040518060600160405280600390602082028038833950919291505056fe54686973204469737472696275746572206973206e6f74204173736f6369617465642e4f6e6c79204173736f636961746520536869707065722063616e2063616c6c20746869732066756e6374696f6e4f6e6c79204173736f63696174652057686f6c6573616c6572206f722044697374727562757465722063616e2063616c6c20746869732066756e6374696f6e746869732057686f6c6573616c6572206973206e6f74204173736f6369617465642e74686973204469737472696275746572206973206e6f74204173736f6369617465642ea265627a7a723158204a3a96a1a74da3dad3322f5f6418d4840b45a99e5079ee786b6a987178d6820364736f6c634300050c003260806040523480156200001157600080fd5b5060405162000c7338038062000c73833981810160405260e08110156200003757600080fd5b8151602083018051604051929492938301929190846401000000008211156200005f57600080fd5b9083019060208201858111156200007557600080fd5b82516401000000008111828201881017156200009057600080fd5b82525081516020918201929091019080838360005b83811015620000bf578181015183820152602001620000a5565b50505050905090810190601f168015620000ed5780820380516001836020036101000a031916815260200191505b50604052602001805160405193929190846401000000008211156200011157600080fd5b9083019060208201858111156200012757600080fd5b82516401000000008111828201881017156200014257600080fd5b82525081516020918201929091019080838360005b838110156200017157818101518382015260200162000157565b50505050905090810190601f1680156200019f5780820380516001836020036101000a031916815260200191505b5060405260200180516040519392919084640100000000821115620001c357600080fd5b908301906020820185811115620001d957600080fd5b8251640100000000811182820188101715620001f457600080fd5b82525081516020918201929091019080838360005b838110156200022357818101518382015260200162000209565b50505050905090810190601f168015620002515780820380516001836020036101000a031916815260200191505b5060409081526020828101519183015160609093015160008054600160a060020a038c16600160a060020a03199182161790915560018054909116301790558851929550929350620002a99160029189019062000330565b508451620002bf90600390602088019062000330565b508351620002d590600490602087019062000330565b5060059290925560068054600160a060020a0319908116600160a060020a0393841617909155600780548216938316939093179092556008805460a060020a60ff0219931696909116959095171690935550620003d5915050565b828054600181600116156101000203166002900490600052602060002090601f016020900481019282601f106200037357805160ff1916838001178555620003a3565b82800160010185558215620003a3579182015b82811115620003a357825182559160200191906001019062000386565b50620003b1929150620003b5565b5090565b620003d291905b80821115620003b15760008155600101620003bc565b90565b61088e80620003e56000396000f3fe608060405234801561001057600080fd5b5060043610610068577c010000000000000000000000000000000000000000000000000000000060003504633b205a7d811461006d57806352b9996814610087578063638e9a3d146100bc578063d02eee23146100ef575b600080fd5b610075610272565b60408051918252519081900360200190f35b6100ba6004803603602081101561009d57600080fd5b503573ffffffffffffffffffffffffffffffffffffffff166102a3565b005b6100ba600480360360208110156100d257600080fd5b503573ffffffffffffffffffffffffffffffffffffffff1661044d565b6100f76105f6565b604080516060810186905273ffffffffffffffffffffffffffffffffffffffff808616608083015284811660a0830152831660c082015260e08082528951908201528851909182916020808401928401916101008501918d019080838360005b8381101561016f578181015183820152602001610157565b50505050905090810190601f16801561019c5780820380516001836020036101000a031916815260200191505b5084810383528a5181528a516020918201918c019080838360005b838110156101cf5781810151838201526020016101b7565b50505050905090810190601f1680156101fc5780820380516001836020036101000a031916815260200191505b5084810382528951815289516020918201918b019080838360005b8381101561022f578181015183820152602001610217565b50505050905090810190601f16801561025c5780820380516001836020036101000a031916815260200191505b509a505050505050505050505060405180910390f35b60085460009074010000000000000000000000000000000000000000900460ff16600281111561029e57fe5b905090565b60075473ffffffffffffffffffffffffffffffffffffffff828116911614610316576040517f08c379a00000000000000000000000000000000000000000000000000000000081526004018080602001828103825260328152602001806108286032913960400191505060405180910390fd5b600160085474010000000000000000000000000000000000000000900460ff16600281111561034157fe5b146103ad57604080517f08c379a000000000000000000000000000000000000000000000000000000000815260206004820152601960248201527f50726f64756374206e6f74207069636b65642075702079657400000000000000604482015290519081900360640190fd5b600880547fffffffffffffffffffffff00ffffffffffffffffffffffffffffffffffffffff1674020000000000000000000000000000000000000000179055600754600654604080516001815260026020820152815173ffffffffffffffffffffffffffffffffffffffff948516949093169230927f7e89c4b1a4e2b51aae84eb1f90e8a34cb792ece5ac5cb63db4830c891220b28d928290030190a450565b60065473ffffffffffffffffffffffffffffffffffffffff8281169116146104c0576040517f08c379a000000000000000000000000000000000000000000000000000000000815260040180806020018281038252602d8152602001806107fb602d913960400191505060405180910390fd5b600060085474010000000000000000000000000000000000000000900460ff1660028111156104eb57fe5b1461055757604080517f08c379a000000000000000000000000000000000000000000000000000000000815260206004820152601c60248201527f5061636b616765206d75737420626520617420537570706c6965722e00000000604482015290519081900360640190fd5b600880547fffffffffffffffffffffff00ffffffffffffffffffffffffffffffffffffffff16740100000000000000000000000000000000000000001790556007546006546040805160018082526020820152815173ffffffffffffffffffffffffffffffffffffffff948516949093169230927f7e89c4b1a4e2b51aae84eb1f90e8a34cb792ece5ac5cb63db4830c891220b28d928290030190a450565b60055460065460075460085460028054604080516020601f60001960018616156101000201909416859004938401819004810282018101909252828152606097889788976000978897889788979196600396600496909573ffffffffffffffffffffffffffffffffffffffff918216959082169491169289918301828280156106c05780601f10610695576101008083540402835291602001916106c0565b820191906000526020600020905b8154815290600101906020018083116106a357829003601f168201915b5050895460408051602060026001851615610100026000190190941693909304601f8101849004840282018401909252818152959c508b94509250840190508282801561074e5780601f106107235761010080835404028352916020019161074e565b820191906000526020600020905b81548152906001019060200180831161073157829003601f168201915b5050885460408051602060026001851615610100026000190190941693909304601f8101849004840282018401909252818152959b508a9450925084019050828280156107dc5780601f106107b1576101008083540402835291602001916107dc565b820191906000526020600020905b8154815290600101906020018083116107bf57829003601f168201915b5050505050945096509650965096509650965096509091929394959656fe4f6e6c79204173736f636961746520536869707065722063616e2063616c6c20746869732066756e6374696f6e4f6e6c79204173736f6369617465204d616e7566616374757265722063616e2063616c6c20746869732066756e6374696f6ea265627a7a72315820d35c1bf2e64b592efd85a1bae5de8b721d1022bef7f6ae047307c4a0470d565364736f6c634300050c0032608060405234801561001057600080fd5b506040516105103803806105108339818101604052608081101561003357600080fd5b5080516020820151604083015160609093015160008054600160a060020a0319908116600160a060020a03948516908117835560018054831696861696909617909555600280548216909517909455600380548516958416959095179094556004805490931691161760a060020a60ff02191690556104589081906100b890396000f3fe608060405234801561001057600080fd5b506004361061005d577c01000000000000000000000000000000000000000000000000000000006000350463443c28d88114610062578063d2f3fcc71461009f578063f4c07229146100b9575b600080fd5b61009d6004803603604081101561007857600080fd5b5073ffffffffffffffffffffffffffffffffffffffff813581169160200135166100f4565b005b6100a761023f565b60408051918252519081900360200190f35b61009d600480360360408110156100cf57600080fd5b5073ffffffffffffffffffffffffffffffffffffffff81358116916020013516610270565b60035473ffffffffffffffffffffffffffffffffffffffff828116911614610167576040517f08c379a000000000000000000000000000000000000000000000000000000000815260040180806020018281038252602f8152602001806103f5602f913960400191505060405180910390fd5b600480547fffffffffffffffffffffff00ffffffffffffffffffffffffffffffffffffffff167401000000000000000000000000000000000000000017808255600254604080517fbd78683500000000000000000000000000000000000000000000000000000000815273ffffffffffffffffffffffffffffffffffffffff938416948101949094529082166024840152519084169163bd78683591604480830192600092919082900301818387803b15801561022357600080fd5b505af1158015610237573d6000803e3d6000fd5b505050505050565b60045460009074010000000000000000000000000000000000000000900460ff16600281111561026b57fe5b905090565b60045473ffffffffffffffffffffffffffffffffffffffff8281169116146102e3576040517f08c379a00000000000000000000000000000000000000000000000000000000081526004018080602001828103825260308152602001806103c56030913960400191505060405180910390fd5b60048054600291907fffffffffffffffffffffff00ffffffffffffffffffffffffffffffffffffffff16740100000000000000000000000000000000000000008302179055508173ffffffffffffffffffffffffffffffffffffffff1663952565cf826040518263ffffffff167c0100000000000000000000000000000000000000000000000000000000028152600401808273ffffffffffffffffffffffffffffffffffffffff1673ffffffffffffffffffffffffffffffffffffffff168152602001915050600060405180830381600087803b15801561022357600080fdfe4f6e6c79204173736f6369617465642072656365697665722063616e2063616c6c20746869732066756e6374696f6e2e4f6e6c79204173736f63696174656420736869707065722063616e2063616c6c20746869732066756e6374696f6e2ea265627a7a72315820df78ac27e394e3cbb4207fb1c0fc76fdb03254607a83ed49cd607c3c91d3bf8d64736f6c634300050c0032608060405234801561001057600080fd5b506040516105103803806105108339818101604052608081101561003357600080fd5b5080516020820151604083015160609093015160008054600160a060020a0319908116600160a060020a03948516908117835560018054831696861696909617909555600280548216909517909455600380548516958416959095179094556004805490931691161760a060020a60ff02191690556104589081906100b890396000f3fe608060405234801561001057600080fd5b506004361061005d577c0100000000000000000000000000000000000000000000000000000000600035046332a60e008114610062578063d2f3fcc71461009f578063d39ff0e7146100b9575b600080fd5b61009d6004803603604081101561007857600080fd5b5073ffffffffffffffffffffffffffffffffffffffff813581169160200135166100f4565b005b6100a7610264565b60408051918252519081900360200190f35b61009d600480360360408110156100cf57600080fd5b5073ffffffffffffffffffffffffffffffffffffffff81358116916020013516610295565b60045473ffffffffffffffffffffffffffffffffffffffff828116911614610167576040517f08c379a00000000000000000000000000000000000000000000000000000000081526004018080602001828103825260308152602001806103c56030913960400191505060405180910390fd5b60048054600291907fffffffffffffffffffffff00ffffffffffffffffffffffffffffffffffffffff16740100000000000000000000000000000000000000008302179055508173ffffffffffffffffffffffffffffffffffffffff16634175699d826040518263ffffffff167c0100000000000000000000000000000000000000000000000000000000028152600401808273ffffffffffffffffffffffffffffffffffffffff1673ffffffffffffffffffffffffffffffffffffffff168152602001915050600060405180830381600087803b15801561024857600080fd5b505af115801561025c573d6000803e3d6000fd5b505050505050565b60045460009074010000000000000000000000000000000000000000900460ff16600281111561029057fe5b905090565b60035473ffffffffffffffffffffffffffffffffffffffff828116911614610308576040517f08c379a000000000000000000000000000000000000000000000000000000000815260040180806020018281038252602f8152602001806103f5602f913960400191505060405180910390fd5b600480547fffffffffffffffffffffff00ffffffffffffffffffffffffffffffffffffffff167401000000000000000000000000000000000000000017808255600254604080517fa19ffd6000000000000000000000000000000000000000000000000000000000815273ffffffffffffffffffffffffffffffffffffffff938416948101949094529082166024840152519084169163a19ffd6091604480830192600092919082900301818387803b15801561024857600080fdfe4f6e6c79204173736f6369617465642072656365697665722063616e2063616c6c20746869732066756e6374696f6e2e4f6e6c79204173736f63696174656420736869707065722063616e2063616c6c20746869732066756e6374696f6e2ea265627a7a72315820d4f935290e182482d3b5794265cc0aa40e51bd6589d6e90171b4b8957c091f4264736f6c634300050c00324f6e6c79206f776e65722063616e2063616c6c20746869732066756e6374696f6e2e4f6e6c792044697374726962757465722043616e2063616c6c20746869732066756e6374696f6e2e4f6e6c79204d616e7566616374757265722043616e2063616c6c20746869732066756e6374696f6e2e4f6e6c7920506861726d612043616e2063616c6c20746869732066756e6374696f6e2e08c379a0000000000000000000000000000000000000000000000000000000004f6e6c792057686f6c6573616c657220616e642044697374726962757465722063616e2063616c6c20746869732066756e6374696f6e4f6e6c792057686f6c6573616c6572206f722063757272656e74206f776e6572206f66207061636b6167652063616e2063616c6c20746869732066756e6374696f6e4f6e6c79204469737472696275746572206f722063757272656e74206f776e6572206f66207061636b6167652063616e2063616c6c20746869732066756e6374696f6e4f6e6c79206d616e7566616374757265722063616e2063616c6c20746869732066756e6374696f6e4f6e6c7920537570706c6965722043616e2063616c6c20746869732066756e6374696f6e204f6e6c792057686f6c6573616c65722043616e2063616c6c20746869732066756e6374696f6e2e4f6e6c7920506861726d61206f722063757272656e74206f776e6572206f66207061636b6167652063616e2063616c6c20746869732066756e6374696f6e4f6e6c79205472616e73706f727465722063616e2063616c6c20746869732066756e6374696f6ea265627a7a723158204a3988f6c2f1780a729ee6b40a1083019176be473ec9ba5fe4ed6e4e80c2e1ba64736f6c634300050c0032",
  "source": "pragma solidity >=0.4.25 <0.6.0;\r\n\r\nimport './RawMatrials.sol';\r\nimport './Madicine.sol';\r\nimport './MadicineW_D.sol';\r\nimport './MadicineD_P.sol';\r\n\r\n\r\ncontract SupplyChain {\r\n\r\n    address public Owner;\r\n\r\n    constructor () public {\r\n        Owner = msg.sender;\r\n    }\r\n\r\n    modifier onlyOwner() {\r\n        require(\r\n            msg.sender == Owner,\r\n            \"Only owner can call this function.\"\r\n        );\r\n        _;\r\n    }\r\n\r\n    enum roles {\r\n        norole,\r\n        supplier,\r\n        transporter,\r\n        manufacturer,\r\n        wholesaler,\r\n        distributer,\r\n        pharma,\r\n        revoke\r\n    }\r\n\r\n    event UserRegister(address indexed EthAddress, bytes32 Name);\r\n    event UserRoleRevoke(address indexed EthAddress, bytes32 Name, uint Role);\r\n    event UserRoleReassign(address indexed EthAddress, bytes32 Name, uint Role);\r\n    \r\n    function stringToBytes32(string memory source) public pure returns (bytes32 result) {\r\n        bytes memory tempEmptyStringTest = bytes(source);\r\n        if (tempEmptyStringTest.length == 0) {\r\n            return 0x0;\r\n        }\r\n        assembly {\r\n            result := mload(add(source, 32))\r\n        }\r\n    }\r\n\r\n\r\n    function registerUser(\r\n        address EthAddress,\r\n        string memory Name,\r\n        string memory Location,\r\n        uint Role\r\n        ) public\r\n        onlyOwner\r\n        {\r\n        require(UsersDetails[EthAddress].role == roles.norole, \"User Already registered\");\r\n        bytes32 name = stringToBytes32(Name);\r\n        bytes32 location = stringToBytes32(Location);\r\n        UsersDetails[EthAddress].name = name;\r\n        UsersDetails[EthAddress].location = location;\r\n        UsersDetails[EthAddress].ethAddress = EthAddress;\r\n        UsersDetails[EthAddress].role = roles(Role);\r\n        users.push(EthAddress);\r\n        emit UserRegister(EthAddress, name);\r\n    }\r\n\r\n    function revokeRole(address userAddress) public onlyOwner {\r\n        require(UsersDetails[userAddress].role != roles.norole, \"User not registered\");\r\n        emit UserRoleRevoke(userAddress, UsersDetails[userAddress].name,uint(UsersDetails[userAddress].role));\r\n        UsersDetails[userAddress].role = roles(7);\r\n    }\r\n \r\n    function reassignRole(address userAddress, uint Role) public onlyOwner {\r\n        require(UsersDetails[userAddress].role != roles.norole, \"User not registered\");\r\n        UsersDetails[userAddress].role = roles(Role);\r\n        emit UserRoleReassign(userAddress, UsersDetails[userAddress].name,uint(UsersDetails[userAddress].role));\r\n    }\r\n\r\n\r\n    struct UserInfo {\r\n        bytes32 name;\r\n        bytes32 location;\r\n        address ethAddress;\r\n        roles role;\r\n    }\r\n\r\n    /// @notice\r\n    mapping(address => UserInfo) UsersDetails;\r\n    /// @notice\r\n    address[] users;\r\n\r\n    function getUserInfo(address User) public view returns(\r\n        bytes32 name,\r\n        bytes32 location,\r\n        address ethAddress,\r\n        roles role\r\n        ) {\r\n        return (\r\n            UsersDetails[User].name,\r\n            UsersDetails[User].location,\r\n            UsersDetails[User].ethAddress,\r\n            UsersDetails[User].role);\r\n    }\r\n\r\n\r\n    function getUsersCount() public view returns(uint count){\r\n        return users.length;\r\n    }\r\n\r\n    // function getUserbyIndex(uint index) public view returns(\r\n    //     bytes32 name,\r\n    //     bytes32 location,\r\n    //     address ethAddress,\r\n    //     roles role\r\n    //     ) {\r\n    //     return getUserInfo(users[index]);\r\n    // }\r\n\r\n    /// @notice\r\n    mapping(address => address[]) supplierRawProductInfo;\r\n    event RawSupplyInit(\r\n        address indexed ProductID,\r\n        address indexed Supplier,\r\n        address Shipper,\r\n        address indexed Receiver\r\n    );\r\n\r\n\r\n    function createRawPackage(\r\n        string memory Des,\r\n        string memory FN,\r\n        string memory Loc,\r\n        uint Quant,\r\n        address Shpr,\r\n        address Rcvr\r\n        ) public {\r\n        require(\r\n            UsersDetails[msg.sender].role == roles.supplier,\r\n            \"Only Supplier Can call this function \"\r\n        );\r\n        RawMaterials rawData = new RawMaterials(\r\n            msg.sender,\r\n            Des,\r\n            FN,\r\n            Loc,\r\n            Quant,\r\n            Shpr,\r\n            Rcvr\r\n            );\r\n        supplierRawProductInfo[msg.sender].push(address(rawData));\r\n        emit RawSupplyInit(address(rawData), msg.sender, Shpr, Rcvr);\r\n    }\r\n\r\n\r\n    function getPackagesCountS() public view returns (uint count){\r\n        require(\r\n            UsersDetails[msg.sender].role == roles.supplier,\r\n            \"Only Supplier Can call this function \"\r\n        );\r\n        return supplierRawProductInfo[msg.sender].length;\r\n    }\r\n\r\n    function getPackageIdByIndexS(uint index) public view returns(address packageID) {\r\n        require(\r\n            UsersDetails[msg.sender].role == roles.supplier,\r\n            \"Only Supplier Can call this function \"\r\n        );\r\n        return supplierRawProductInfo[msg.sender][index];\r\n    }\r\n\r\n    function loadConsingment(\r\n        address pid,\r\n        uint transportertype,\r\n        address cid\r\n        ) public {\r\n        require(\r\n            UsersDetails[msg.sender].role == roles.transporter,\r\n            \"Only Transporter can call this function\"\r\n        );\r\n        require(\r\n            transportertype > 0,\r\n            \"Transporter Type must be define\"\r\n        );\r\n\r\n        if(transportertype == 1) {  // Supplier to Manufacturer\r\n            RawMaterials(pid).pickPackage(msg.sender);\r\n        } else if(transportertype == 2) {   // Manufacturer to Wholesaler OR Manufacturer to Distributer\r\n            Madicine(pid).pickPackage(msg.sender);\r\n        } else if(transportertype == 3) {   // Wholesaler to Distributer\r\n            MadicineW_D(cid).pickWD(pid,msg.sender);\r\n        } else if(transportertype == 4) {   // Distrubuter to Pharma\r\n            MadicineD_P(cid).pickDP(pid,msg.sender);\r\n        }\r\n    }\r\n\r\n\r\n    mapping(address => address[]) RawPackagesAtManufacturer;\r\n    function  rawPackageReceived(\r\n        address pid\r\n    ) public {\r\n        require(\r\n            UsersDetails[msg.sender].role == roles.manufacturer,\r\n            \"Only manufacturer can call this function\"\r\n        );\r\n\r\n        RawMaterials(pid).receivedPackage(msg.sender);\r\n        RawPackagesAtManufacturer[msg.sender].push(pid);\r\n    }\r\n\r\n\r\n    function getPackagesCountM() public view returns(uint count){\r\n        require(\r\n            UsersDetails[msg.sender].role == roles.manufacturer,\r\n            \"Only manufacturer can call this function\"\r\n        );\r\n        return RawPackagesAtManufacturer[msg.sender].length;\r\n    }\r\n\r\n    function getPackageIDByIndexM(uint index) public view returns(address BatchID){\r\n        require(\r\n            UsersDetails[msg.sender].role == roles.manufacturer,\r\n            \"Only manufacturer can call this function\"\r\n        );\r\n        return RawPackagesAtManufacturer[msg.sender][index];\r\n    }\r\n\r\n    /// @notice\r\n    mapping(address => address[]) ManufactureredMadicineBatches;\r\n    event MadicineNewBatch(\r\n        address indexed BatchId,\r\n        address indexed Manufacturer,\r\n        address shipper,\r\n        address indexed Receiver\r\n    );\r\n\r\n    function manufacturMadicine(\r\n        bytes32 Des,\r\n        bytes32 RM,\r\n        uint Quant,\r\n        address Shpr,\r\n        address Rcvr,\r\n        uint RcvrType\r\n    ) public {\r\n        require(\r\n            UsersDetails[msg.sender].role == roles.manufacturer,\r\n            \"Only manufacturer can call this function\"\r\n        );\r\n        require(\r\n            RcvrType != 0,\r\n            \"Receiver Type must be define\"\r\n        );\r\n\r\n        Madicine m = new Madicine(\r\n            msg.sender,\r\n            Des,\r\n            RM,\r\n            Quant,\r\n            Shpr,\r\n            Rcvr,\r\n            RcvrType\r\n        );\r\n\r\n        ManufactureredMadicineBatches[msg.sender].push(address(m));\r\n        emit MadicineNewBatch(address(m), msg.sender, Shpr, Rcvr);\r\n    }\r\n\r\n\r\n    function getBatchesCountM() public view returns (uint count){\r\n        require(\r\n            UsersDetails[msg.sender].role == roles.manufacturer,\r\n            \"Only Manufacturer Can call this function.\"\r\n        );\r\n        return ManufactureredMadicineBatches[msg.sender].length;\r\n    }\r\n\r\n\r\n    function getBatchIdByIndexM(uint index) public view returns(address packageID) {\r\n        require(\r\n            UsersDetails[msg.sender].role == roles.manufacturer,\r\n            \"Only Manufacturer Can call this function.\"\r\n        );\r\n        return ManufactureredMadicineBatches[msg.sender][index];\r\n    }\r\n\r\n\r\n\r\n    /// @notice\r\n    mapping(address => address[]) MadicineBatchesAtWholesaler;\r\n\r\n    function madicineReceived(\r\n        address batchid,\r\n        address cid\r\n    ) public {\r\n        require(\r\n            UsersDetails[msg.sender].role == roles.wholesaler || UsersDetails[msg.sender].role == roles.distributer,\r\n            \"Only Wholesaler and Distributer can call this function\"\r\n        );\r\n\r\n        uint rtype = Madicine(batchid).receivedPackage(msg.sender);\r\n        if(rtype == 1){\r\n            MadicineBatchesAtWholesaler[msg.sender].push(batchid);\r\n        }else if( rtype == 2){\r\n            MadicineBatchesAtWholesaler[msg.sender].push(batchid);\r\n            if(Madicine(batchid).getWDP()[0] != address(0)){\r\n                MadicineW_D(cid).recieveWD(batchid,msg.sender);\r\n            }\r\n        }\r\n    }\r\n\r\n    /// @notice\r\n    mapping(address => address[]) MadicineWtoD;\r\n    /// @notice\r\n    mapping(address => address) MadicineWtoDTxContract;\r\n\r\n    function transferMadicineWtoD(\r\n        address BatchID,\r\n        address Shipper,\r\n        address Receiver\r\n    ) public {\r\n        require(\r\n            UsersDetails[msg.sender].role == roles.wholesaler &&\r\n            msg.sender == Madicine(BatchID).getWDP()[0],\r\n            \"Only Wholesaler or current owner of package can call this function\"\r\n        );\r\n        MadicineW_D wd = new MadicineW_D(\r\n            BatchID,\r\n            msg.sender,\r\n            Shipper,\r\n            Receiver\r\n        );\r\n        MadicineWtoD[msg.sender].push(address(wd));\r\n        MadicineWtoDTxContract[BatchID] = address(wd);\r\n    }\r\n\r\n\r\n    function getBatchesCountWD() public view returns (uint count){\r\n        require(\r\n            UsersDetails[msg.sender].role == roles.wholesaler,\r\n            \"Only Wholesaler Can call this function.\"\r\n        );\r\n        return MadicineWtoD[msg.sender].length;\r\n    }\r\n\r\n\r\n    function getBatchIdByIndexWD(uint index) public view returns(address packageID) {\r\n        require(\r\n            UsersDetails[msg.sender].role == roles.wholesaler,\r\n            \"Only Wholesaler Can call this function.\"\r\n        );\r\n        return MadicineWtoD[msg.sender][index];\r\n    }\r\n\r\n    function getSubContractWD(address BatchID) public view returns (address SubContractWD) {\r\n        // require(\r\n        //     UsersDetails[msg.sender].role == roles.wholesaler,\r\n        //     \"Only Wholesaler Can call this function.\"\r\n        // );\r\n        return MadicineWtoDTxContract[BatchID];\r\n    }\r\n\r\n    /// @notice\r\n    mapping(address => address[]) MadicineBatchAtDistributer;\r\n\r\n    /// @notice\r\n    mapping(address => address[]) MadicineDtoP;\r\n\r\n    /// @notice\r\n    mapping(address => address) MadicineDtoPTxContract;\r\n\r\n\r\n    function transferMadicineDtoP(\r\n        address BatchID,\r\n        address Shipper,\r\n        address Receiver\r\n    ) public {\r\n        require(\r\n            UsersDetails[msg.sender].role == roles.distributer &&\r\n            msg.sender == Madicine(BatchID).getWDP()[1],\r\n            \"Only Distributer or current owner of package can call this function\"\r\n        );\r\n        MadicineD_P dp = new MadicineD_P(\r\n            BatchID,\r\n            msg.sender,\r\n            Shipper,\r\n            Receiver\r\n        );\r\n        MadicineDtoP[msg.sender].push(address(dp));\r\n        MadicineDtoPTxContract[BatchID] = address(dp);\r\n    }\r\n\r\n    function getBatchesCountDP() public view returns (uint count){\r\n        require(\r\n            UsersDetails[msg.sender].role == roles.distributer,\r\n            \"Only Distributer Can call this function.\"\r\n        );\r\n        return MadicineDtoP[msg.sender].length;\r\n    }\r\n\r\n\r\n    function getBatchIdByIndexDP(uint index) public view returns(address packageID) {\r\n        require(\r\n            UsersDetails[msg.sender].role == roles.distributer,\r\n            \"Only Distributer Can call this function.\"\r\n        );\r\n        return MadicineDtoP[msg.sender][index];\r\n    }\r\n\r\n \r\n    function getSubContractDP(address BatchID) public view returns (address SubContractDP) {\r\n        // require(\r\n        //     UsersDetails[msg.sender].role == roles.distributer,\r\n        //     \"Only Distributer Can call this function.\"\r\n        // );\r\n        return MadicineDtoPTxContract[BatchID];\r\n    }\r\n\r\n    /// @notice\r\n    mapping(address => address[]) MadicineBatchAtPharma;\r\n\r\n  \r\n    function madicineRecievedAtPharma(\r\n        address batchid,\r\n        address cid\r\n    ) public {\r\n        require(\r\n            UsersDetails[msg.sender].role == roles.pharma,\r\n            \"Only Pharma Can call this function.\"\r\n        );\r\n        MadicineD_P(cid).recieveDP(batchid, msg.sender);\r\n        MadicineBatchAtPharma[msg.sender].push(batchid);\r\n        sale[batchid] = salestatus(1);\r\n    }\r\n\r\n    enum salestatus {\r\n        notfound,\r\n        atpharma,\r\n        sold,\r\n        expire,\r\n        damaged\r\n    }\r\n\r\n    /// @notice\r\n    mapping(address => salestatus) sale;\r\n\r\n    event MadicineStatus(\r\n        address BatchID,\r\n        address indexed Pharma,\r\n        uint status\r\n    );\r\n\r\n    function updateSaleStatus(\r\n        address BatchID,\r\n        uint Status\r\n    ) public {\r\n        require(\r\n            UsersDetails[msg.sender].role == roles.pharma &&\r\n            msg.sender == Madicine(BatchID).getWDP()[2],\r\n            \"Only Pharma or current owner of package can call this function\"\r\n        );\r\n        require(sale[BatchID] == salestatus(1), \"madicine Must be at Pharma\");\r\n        sale[BatchID] = salestatus(Status);\r\n\r\n        emit MadicineStatus(BatchID, msg.sender, Status);\r\n    }\r\n\r\n    function salesInfo(\r\n        address BatchID\r\n    ) public\r\n    view\r\n    returns(\r\n        uint Status\r\n    ){\r\n        return uint(sale[BatchID]);\r\n    }\r\n\r\n    function getBatchesCountP() public view returns(uint count){\r\n        require(\r\n            UsersDetails[msg.sender].role == roles.pharma,\r\n            \"Only Wholesaler or current owner of package can call this function\"\r\n        );\r\n        return  MadicineBatchAtPharma[msg.sender].length;\r\n    }\r\n\r\n\r\n    function getBatchIdByIndexP(uint index) public view returns(address BatchID){\r\n        require(\r\n            UsersDetails[msg.sender].role == roles.pharma,\r\n            \"Only Wholesaler or current owner of package can call this function\"\r\n        );\r\n        return MadicineBatchAtPharma[msg.sender][index];\r\n    }\r\n}\r\n",
  "sourcePath": "D:/blockchain/hack/contracts/SupplyChain.sol",
  "compiler": {
    "name": "solc",
    "version": "0.5.12+commit.7709ece9.Emscripten.clang"
  },
  "schemaVersion": "3.0.0",
  "updatedAt": "2020-05-08T09:39:31.422Z",
  "devdoc": {
    "methods": {}
  },
  "userdoc": {
    "methods": {}
  }
}